{
	"contracts/staking edu/staking.sol": {
		"SimpleStaking": {
			"abi": [
				{
					"inputs": [
						{
							"internalType": "address",
							"name": "_stakingToken",
							"type": "address"
						},
						{
							"internalType": "address",
							"name": "_rewardToken",
							"type": "address"
						}
					],
					"stateMutability": "nonpayable",
					"type": "constructor"
				},
				{
					"inputs": [
						{
							"internalType": "address",
							"name": "owner",
							"type": "address"
						}
					],
					"name": "OwnableInvalidOwner",
					"type": "error"
				},
				{
					"inputs": [
						{
							"internalType": "address",
							"name": "account",
							"type": "address"
						}
					],
					"name": "OwnableUnauthorizedAccount",
					"type": "error"
				},
				{
					"anonymous": false,
					"inputs": [
						{
							"indexed": true,
							"internalType": "address",
							"name": "previousOwner",
							"type": "address"
						},
						{
							"indexed": true,
							"internalType": "address",
							"name": "newOwner",
							"type": "address"
						}
					],
					"name": "OwnershipTransferred",
					"type": "event"
				},
				{
					"anonymous": false,
					"inputs": [
						{
							"indexed": true,
							"internalType": "address",
							"name": "user",
							"type": "address"
						},
						{
							"indexed": false,
							"internalType": "uint256",
							"name": "amount",
							"type": "uint256"
						}
					],
					"name": "RewardClaimed",
					"type": "event"
				},
				{
					"anonymous": false,
					"inputs": [
						{
							"indexed": true,
							"internalType": "address",
							"name": "user",
							"type": "address"
						},
						{
							"indexed": false,
							"internalType": "uint256",
							"name": "amount",
							"type": "uint256"
						}
					],
					"name": "Staked",
					"type": "event"
				},
				{
					"anonymous": false,
					"inputs": [
						{
							"indexed": true,
							"internalType": "address",
							"name": "user",
							"type": "address"
						},
						{
							"indexed": false,
							"internalType": "uint256",
							"name": "amount",
							"type": "uint256"
						}
					],
					"name": "Unstaked",
					"type": "event"
				},
				{
					"inputs": [],
					"name": "MINIMUM_LOCK_PERIOD",
					"outputs": [
						{
							"internalType": "uint256",
							"name": "",
							"type": "uint256"
						}
					],
					"stateMutability": "view",
					"type": "function"
				},
				{
					"inputs": [],
					"name": "claimReward",
					"outputs": [],
					"stateMutability": "nonpayable",
					"type": "function"
				},
				{
					"inputs": [
						{
							"internalType": "address",
							"name": "_user",
							"type": "address"
						}
					],
					"name": "getStakeInfo",
					"outputs": [
						{
							"internalType": "uint256",
							"name": "amount",
							"type": "uint256"
						},
						{
							"internalType": "uint256",
							"name": "startTime",
							"type": "uint256"
						},
						{
							"internalType": "uint256",
							"name": "lockEndTime",
							"type": "uint256"
						},
						{
							"internalType": "uint256",
							"name": "pendingRewards",
							"type": "uint256"
						}
					],
					"stateMutability": "view",
					"type": "function"
				},
				{
					"inputs": [],
					"name": "owner",
					"outputs": [
						{
							"internalType": "address",
							"name": "",
							"type": "address"
						}
					],
					"stateMutability": "view",
					"type": "function"
				},
				{
					"inputs": [
						{
							"internalType": "address",
							"name": "_user",
							"type": "address"
						}
					],
					"name": "pendingReward",
					"outputs": [
						{
							"internalType": "uint256",
							"name": "",
							"type": "uint256"
						}
					],
					"stateMutability": "view",
					"type": "function"
				},
				{
					"inputs": [],
					"name": "renounceOwnership",
					"outputs": [],
					"stateMutability": "nonpayable",
					"type": "function"
				},
				{
					"inputs": [],
					"name": "rewardRate",
					"outputs": [
						{
							"internalType": "uint256",
							"name": "",
							"type": "uint256"
						}
					],
					"stateMutability": "view",
					"type": "function"
				},
				{
					"inputs": [],
					"name": "rewardToken",
					"outputs": [
						{
							"internalType": "contract IERC20",
							"name": "",
							"type": "address"
						}
					],
					"stateMutability": "view",
					"type": "function"
				},
				{
					"inputs": [
						{
							"internalType": "uint256",
							"name": "_rewardRate",
							"type": "uint256"
						}
					],
					"name": "setRewardRate",
					"outputs": [],
					"stateMutability": "nonpayable",
					"type": "function"
				},
				{
					"inputs": [
						{
							"internalType": "uint256",
							"name": "_amount",
							"type": "uint256"
						}
					],
					"name": "stake",
					"outputs": [],
					"stateMutability": "nonpayable",
					"type": "function"
				},
				{
					"inputs": [
						{
							"internalType": "address",
							"name": "",
							"type": "address"
						}
					],
					"name": "stakes",
					"outputs": [
						{
							"internalType": "uint256",
							"name": "amount",
							"type": "uint256"
						},
						{
							"internalType": "uint256",
							"name": "startTime",
							"type": "uint256"
						},
						{
							"internalType": "uint256",
							"name": "lastClaimTime",
							"type": "uint256"
						}
					],
					"stateMutability": "view",
					"type": "function"
				},
				{
					"inputs": [],
					"name": "stakingToken",
					"outputs": [
						{
							"internalType": "contract IERC20",
							"name": "",
							"type": "address"
						}
					],
					"stateMutability": "view",
					"type": "function"
				},
				{
					"inputs": [],
					"name": "totalStaked",
					"outputs": [
						{
							"internalType": "uint256",
							"name": "",
							"type": "uint256"
						}
					],
					"stateMutability": "view",
					"type": "function"
				},
				{
					"inputs": [
						{
							"internalType": "address",
							"name": "newOwner",
							"type": "address"
						}
					],
					"name": "transferOwnership",
					"outputs": [],
					"stateMutability": "nonpayable",
					"type": "function"
				},
				{
					"inputs": [
						{
							"internalType": "uint256",
							"name": "_amount",
							"type": "uint256"
						}
					],
					"name": "unstake",
					"outputs": [],
					"stateMutability": "nonpayable",
					"type": "function"
				}
			],
			"devdoc": {
				"errors": {
					"OwnableInvalidOwner(address)": [
						{
							"details": "The owner is not a valid owner account. (eg. `address(0)`)"
						}
					],
					"OwnableUnauthorizedAccount(address)": [
						{
							"details": "The caller account is not authorized to perform an operation."
						}
					]
				},
				"kind": "dev",
				"methods": {
					"getStakeInfo(address)": {
						"params": {
							"_user": "Address of the user"
						},
						"returns": {
							"amount": "Amount staked (in whole tokens)",
							"lockEndTime": "Time when lock period ends",
							"pendingRewards": "Pending rewards (in wei)",
							"startTime": "Time when stake was created"
						}
					},
					"owner()": {
						"details": "Returns the address of the current owner."
					},
					"pendingReward(address)": {
						"params": {
							"_user": "Address of the user"
						},
						"returns": {
							"_0": "Pending reward amount"
						}
					},
					"renounceOwnership()": {
						"details": "Leaves the contract without owner. It will not be possible to call `onlyOwner` functions. Can only be called by the current owner. NOTE: Renouncing ownership will leave the contract without an owner, thereby disabling any functionality that is only available to the owner."
					},
					"setRewardRate(uint256)": {
						"params": {
							"_rewardRate": "New reward rate in basis points"
						}
					},
					"stake(uint256)": {
						"params": {
							"_amount": "Amount to stake (in whole tokens, not wei)"
						}
					},
					"transferOwnership(address)": {
						"details": "Transfers ownership of the contract to a new account (`newOwner`). Can only be called by the current owner."
					},
					"unstake(uint256)": {
						"params": {
							"_amount": "Amount to unstake (in whole tokens, not wei)"
						}
					}
				},
				"version": 1
			},
			"evm": {
				"assembly": "    /* \"contracts/staking edu/staking.sol\":240:6168  contract SimpleStaking is Ownable, ReentrancyGuard {... */\n  mstore(0x40, 0x80)\n    /* \"contracts/staking edu/staking.sol\":652:656  1000 */\n  0x03e8\n    /* \"contracts/staking edu/staking.sol\":624:656  uint256 public rewardRate = 1000 */\n  0x04\n  sstore\n    /* \"contracts/staking edu/staking.sol\":1260:1437  constructor(address _stakingToken, address _rewardToken) Ownable(msg.sender) {... */\n  callvalue\n  dup1\n  iszero\n  tag_1\n  jumpi\n  0x00\n  dup1\n  revert\ntag_1:\n  pop\n  mload(0x40)\n  sub(codesize, bytecodeSize)\n  dup1\n  bytecodeSize\n  dup4\n  codecopy\n  dup2\n  dup2\n  add\n  0x40\n  mstore\n  dup2\n  add\n  swap1\n  tag_2\n  swap2\n  swap1\n  tag_3\n  jump\t// in\ntag_2:\n    /* \"contracts/staking edu/staking.sol\":1325:1335  msg.sender */\n  caller\n    /* \"@openzeppelin/contracts/access/Ownable.sol\":1297:1298  0 */\n  0x00\n    /* \"@openzeppelin/contracts/access/Ownable.sol\":1273:1299  initialOwner == address(0) */\n  0xffffffffffffffffffffffffffffffffffffffff\n  and\n    /* \"@openzeppelin/contracts/access/Ownable.sol\":1273:1285  initialOwner */\n  dup2\n    /* \"@openzeppelin/contracts/access/Ownable.sol\":1273:1299  initialOwner == address(0) */\n  0xffffffffffffffffffffffffffffffffffffffff\n  and\n  sub\n    /* \"@openzeppelin/contracts/access/Ownable.sol\":1269:1364  if (initialOwner == address(0)) {... */\n  tag_8\n  jumpi\n    /* \"@openzeppelin/contracts/access/Ownable.sol\":1350:1351  0 */\n  0x00\n    /* \"@openzeppelin/contracts/access/Ownable.sol\":1322:1353  OwnableInvalidOwner(address(0)) */\n  mload(0x40)\n  0x1e4fbdf700000000000000000000000000000000000000000000000000000000\n  dup2\n  mstore\n  0x04\n  add\n  tag_9\n  swap2\n  swap1\n  tag_10\n  jump\t// in\ntag_9:\n  mload(0x40)\n  dup1\n  swap2\n  sub\n  swap1\n  revert\n    /* \"@openzeppelin/contracts/access/Ownable.sol\":1269:1364  if (initialOwner == address(0)) {... */\ntag_8:\n    /* \"@openzeppelin/contracts/access/Ownable.sol\":1373:1405  _transferOwnership(initialOwner) */\n  tag_11\n    /* \"@openzeppelin/contracts/access/Ownable.sol\":1392:1404  initialOwner */\n  dup2\n    /* \"@openzeppelin/contracts/access/Ownable.sol\":1373:1391  _transferOwnership */\n  shl(0x20, tag_12)\n    /* \"@openzeppelin/contracts/access/Ownable.sol\":1373:1405  _transferOwnership(initialOwner) */\n  0x20\n  shr\n  jump\t// in\ntag_11:\n    /* \"@openzeppelin/contracts/access/Ownable.sol\":1225:1412  constructor(address initialOwner) {... */\n  pop\n    /* \"@openzeppelin/contracts/security/ReentrancyGuard.sol\":1716:1717  1 */\n  0x01\n    /* \"@openzeppelin/contracts/security/ReentrancyGuard.sol\":1821:1828  _status */\n  dup1\n    /* \"@openzeppelin/contracts/security/ReentrancyGuard.sol\":1821:1843  _status = _NOT_ENTERED */\n  dup2\n  swap1\n  sstore\n  pop\n    /* \"contracts/staking edu/staking.sol\":1370:1383  _stakingToken */\n  dup2\n    /* \"contracts/staking edu/staking.sol\":1348:1360  stakingToken */\n  0x02\n  0x00\n    /* \"contracts/staking edu/staking.sol\":1348:1384  stakingToken = IERC20(_stakingToken) */\n  0x0100\n  exp\n  dup2\n  sload\n  dup2\n  0xffffffffffffffffffffffffffffffffffffffff\n  mul\n  not\n  and\n  swap1\n  dup4\n  0xffffffffffffffffffffffffffffffffffffffff\n  and\n  mul\n  or\n  swap1\n  sstore\n  pop\n    /* \"contracts/staking edu/staking.sol\":1416:1428  _rewardToken */\n  dup1\n    /* \"contracts/staking edu/staking.sol\":1395:1406  rewardToken */\n  0x03\n  0x00\n    /* \"contracts/staking edu/staking.sol\":1395:1429  rewardToken = IERC20(_rewardToken) */\n  0x0100\n  exp\n  dup2\n  sload\n  dup2\n  0xffffffffffffffffffffffffffffffffffffffff\n  mul\n  not\n  and\n  swap1\n  dup4\n  0xffffffffffffffffffffffffffffffffffffffff\n  and\n  mul\n  or\n  swap1\n  sstore\n  pop\n    /* \"contracts/staking edu/staking.sol\":1260:1437  constructor(address _stakingToken, address _rewardToken) Ownable(msg.sender) {... */\n  pop\n  pop\n    /* \"contracts/staking edu/staking.sol\":240:6168  contract SimpleStaking is Ownable, ReentrancyGuard {... */\n  jump(tag_15)\n    /* \"@openzeppelin/contracts/access/Ownable.sol\":2912:3099  function _transferOwnership(address newOwner) internal virtual {... */\ntag_12:\n    /* \"@openzeppelin/contracts/access/Ownable.sol\":2985:3001  address oldOwner */\n  0x00\n    /* \"@openzeppelin/contracts/access/Ownable.sol\":3004:3010  _owner */\n  dup1\n  0x00\n  swap1\n  sload\n  swap1\n  0x0100\n  exp\n  swap1\n  div\n  0xffffffffffffffffffffffffffffffffffffffff\n  and\n    /* \"@openzeppelin/contracts/access/Ownable.sol\":2985:3010  address oldOwner = _owner */\n  swap1\n  pop\n    /* \"@openzeppelin/contracts/access/Ownable.sol\":3029:3037  newOwner */\n  dup2\n    /* \"@openzeppelin/contracts/access/Ownable.sol\":3020:3026  _owner */\n  0x00\n  dup1\n    /* \"@openzeppelin/contracts/access/Ownable.sol\":3020:3037  _owner = newOwner */\n  0x0100\n  exp\n  dup2\n  sload\n  dup2\n  0xffffffffffffffffffffffffffffffffffffffff\n  mul\n  not\n  and\n  swap1\n  dup4\n  0xffffffffffffffffffffffffffffffffffffffff\n  and\n  mul\n  or\n  swap1\n  sstore\n  pop\n    /* \"@openzeppelin/contracts/access/Ownable.sol\":3083:3091  newOwner */\n  dup2\n    /* \"@openzeppelin/contracts/access/Ownable.sol\":3052:3092  OwnershipTransferred(oldOwner, newOwner) */\n  0xffffffffffffffffffffffffffffffffffffffff\n  and\n    /* \"@openzeppelin/contracts/access/Ownable.sol\":3073:3081  oldOwner */\n  dup2\n    /* \"@openzeppelin/contracts/access/Ownable.sol\":3052:3092  OwnershipTransferred(oldOwner, newOwner) */\n  0xffffffffffffffffffffffffffffffffffffffff\n  and\n  0x8be0079c531659141344cd1fd0a4f28419497f9722a3daafe3b4186f6b6457e0\n  mload(0x40)\n  mload(0x40)\n  dup1\n  swap2\n  sub\n  swap1\n  log3\n    /* \"@openzeppelin/contracts/access/Ownable.sol\":2975:3099  {... */\n  pop\n    /* \"@openzeppelin/contracts/access/Ownable.sol\":2912:3099  function _transferOwnership(address newOwner) internal virtual {... */\n  pop\n  jump\t// out\n    /* \"#utility.yul\":88:205   */\ntag_18:\n    /* \"#utility.yul\":197:198   */\n  0x00\n    /* \"#utility.yul\":194:195   */\n  dup1\n    /* \"#utility.yul\":187:199   */\n  revert\n    /* \"#utility.yul\":334:460   */\ntag_20:\n    /* \"#utility.yul\":371:378   */\n  0x00\n    /* \"#utility.yul\":411:453   */\n  0xffffffffffffffffffffffffffffffffffffffff\n    /* \"#utility.yul\":404:409   */\n  dup3\n    /* \"#utility.yul\":400:454   */\n  and\n    /* \"#utility.yul\":389:454   */\n  swap1\n  pop\n    /* \"#utility.yul\":334:460   */\n  swap2\n  swap1\n  pop\n  jump\t// out\n    /* \"#utility.yul\":466:562   */\ntag_21:\n    /* \"#utility.yul\":503:510   */\n  0x00\n    /* \"#utility.yul\":532:556   */\n  tag_31\n    /* \"#utility.yul\":550:555   */\n  dup3\n    /* \"#utility.yul\":532:556   */\n  tag_20\n  jump\t// in\ntag_31:\n    /* \"#utility.yul\":521:556   */\n  swap1\n  pop\n    /* \"#utility.yul\":466:562   */\n  swap2\n  swap1\n  pop\n  jump\t// out\n    /* \"#utility.yul\":568:690   */\ntag_22:\n    /* \"#utility.yul\":641:665   */\n  tag_33\n    /* \"#utility.yul\":659:664   */\n  dup2\n    /* \"#utility.yul\":641:665   */\n  tag_21\n  jump\t// in\ntag_33:\n    /* \"#utility.yul\":634:639   */\n  dup2\n    /* \"#utility.yul\":631:666   */\n  eq\n    /* \"#utility.yul\":621:684   */\n  tag_34\n  jumpi\n    /* \"#utility.yul\":680:681   */\n  0x00\n    /* \"#utility.yul\":677:678   */\n  dup1\n    /* \"#utility.yul\":670:682   */\n  revert\n    /* \"#utility.yul\":621:684   */\ntag_34:\n    /* \"#utility.yul\":568:690   */\n  pop\n  jump\t// out\n    /* \"#utility.yul\":696:839   */\ntag_23:\n    /* \"#utility.yul\":753:758   */\n  0x00\n    /* \"#utility.yul\":784:790   */\n  dup2\n    /* \"#utility.yul\":778:791   */\n  mload\n    /* \"#utility.yul\":769:791   */\n  swap1\n  pop\n    /* \"#utility.yul\":800:833   */\n  tag_36\n    /* \"#utility.yul\":827:832   */\n  dup2\n    /* \"#utility.yul\":800:833   */\n  tag_22\n  jump\t// in\ntag_36:\n    /* \"#utility.yul\":696:839   */\n  swap3\n  swap2\n  pop\n  pop\n  jump\t// out\n    /* \"#utility.yul\":845:1352   */\ntag_3:\n    /* \"#utility.yul\":924:930   */\n  0x00\n    /* \"#utility.yul\":932:938   */\n  dup1\n    /* \"#utility.yul\":981:983   */\n  0x40\n    /* \"#utility.yul\":969:978   */\n  dup4\n    /* \"#utility.yul\":960:967   */\n  dup6\n    /* \"#utility.yul\":956:979   */\n  sub\n    /* \"#utility.yul\":952:984   */\n  slt\n    /* \"#utility.yul\":949:1068   */\n  iszero\n  tag_38\n  jumpi\n    /* \"#utility.yul\":987:1066   */\n  tag_39\n  tag_18\n  jump\t// in\ntag_39:\n    /* \"#utility.yul\":949:1068   */\ntag_38:\n    /* \"#utility.yul\":1107:1108   */\n  0x00\n    /* \"#utility.yul\":1132:1196   */\n  tag_40\n    /* \"#utility.yul\":1188:1195   */\n  dup6\n    /* \"#utility.yul\":1179:1185   */\n  dup3\n    /* \"#utility.yul\":1168:1177   */\n  dup7\n    /* \"#utility.yul\":1164:1186   */\n  add\n    /* \"#utility.yul\":1132:1196   */\n  tag_23\n  jump\t// in\ntag_40:\n    /* \"#utility.yul\":1122:1196   */\n  swap3\n  pop\n    /* \"#utility.yul\":1078:1206   */\n  pop\n    /* \"#utility.yul\":1245:1247   */\n  0x20\n    /* \"#utility.yul\":1271:1335   */\n  tag_41\n    /* \"#utility.yul\":1327:1334   */\n  dup6\n    /* \"#utility.yul\":1318:1324   */\n  dup3\n    /* \"#utility.yul\":1307:1316   */\n  dup7\n    /* \"#utility.yul\":1303:1325   */\n  add\n    /* \"#utility.yul\":1271:1335   */\n  tag_23\n  jump\t// in\ntag_41:\n    /* \"#utility.yul\":1261:1335   */\n  swap2\n  pop\n    /* \"#utility.yul\":1216:1345   */\n  pop\n    /* \"#utility.yul\":845:1352   */\n  swap3\n  pop\n  swap3\n  swap1\n  pop\n  jump\t// out\n    /* \"#utility.yul\":1358:1476   */\ntag_24:\n    /* \"#utility.yul\":1445:1469   */\n  tag_43\n    /* \"#utility.yul\":1463:1468   */\n  dup2\n    /* \"#utility.yul\":1445:1469   */\n  tag_21\n  jump\t// in\ntag_43:\n    /* \"#utility.yul\":1440:1443   */\n  dup3\n    /* \"#utility.yul\":1433:1470   */\n  mstore\n    /* \"#utility.yul\":1358:1476   */\n  pop\n  pop\n  jump\t// out\n    /* \"#utility.yul\":1482:1704   */\ntag_10:\n    /* \"#utility.yul\":1575:1579   */\n  0x00\n    /* \"#utility.yul\":1613:1615   */\n  0x20\n    /* \"#utility.yul\":1602:1611   */\n  dup3\n    /* \"#utility.yul\":1598:1616   */\n  add\n    /* \"#utility.yul\":1590:1616   */\n  swap1\n  pop\n    /* \"#utility.yul\":1626:1697   */\n  tag_45\n    /* \"#utility.yul\":1694:1695   */\n  0x00\n    /* \"#utility.yul\":1683:1692   */\n  dup4\n    /* \"#utility.yul\":1679:1696   */\n  add\n    /* \"#utility.yul\":1670:1676   */\n  dup5\n    /* \"#utility.yul\":1626:1697   */\n  tag_24\n  jump\t// in\ntag_45:\n    /* \"#utility.yul\":1482:1704   */\n  swap3\n  swap2\n  pop\n  pop\n  jump\t// out\n    /* \"contracts/staking edu/staking.sol\":240:6168  contract SimpleStaking is Ownable, ReentrancyGuard {... */\ntag_15:\n  dataSize(sub_0)\n  dup1\n  dataOffset(sub_0)\n  0x00\n  codecopy\n  0x00\n  return\nstop\n\nsub_0: assembly {\n        /* \"contracts/staking edu/staking.sol\":240:6168  contract SimpleStaking is Ownable, ReentrancyGuard {... */\n      mstore(0x40, 0x80)\n      callvalue\n      dup1\n      iszero\n      tag_1\n      jumpi\n      0x00\n      dup1\n      revert\n    tag_1:\n      pop\n      jumpi(tag_2, lt(calldatasize, 0x04))\n      shr(0xe0, calldataload(0x00))\n      dup1\n      0x8da5cb5b\n      gt\n      tag_18\n      jumpi\n      dup1\n      0xc3453153\n      gt\n      tag_19\n      jumpi\n      dup1\n      0xc3453153\n      eq\n      tag_14\n      jumpi\n      dup1\n      0xf2fde38b\n      eq\n      tag_15\n      jumpi\n      dup1\n      0xf40f0f52\n      eq\n      tag_16\n      jumpi\n      dup1\n      0xf7c618c1\n      eq\n      tag_17\n      jumpi\n      jump(tag_2)\n    tag_19:\n      dup1\n      0x8da5cb5b\n      eq\n      tag_10\n      jumpi\n      dup1\n      0x9e447fc6\n      eq\n      tag_11\n      jumpi\n      dup1\n      0xa694fc3a\n      eq\n      tag_12\n      jumpi\n      dup1\n      0xb88a802f\n      eq\n      tag_13\n      jumpi\n      jump(tag_2)\n    tag_18:\n      dup1\n      0x715018a6\n      gt\n      tag_20\n      jumpi\n      dup1\n      0x715018a6\n      eq\n      tag_6\n      jumpi\n      dup1\n      0x72f702f3\n      eq\n      tag_7\n      jumpi\n      dup1\n      0x7b0a47ee\n      eq\n      tag_8\n      jumpi\n      dup1\n      0x817b1cd2\n      eq\n      tag_9\n      jumpi\n      jump(tag_2)\n    tag_20:\n      dup1\n      0x16934fc4\n      eq\n      tag_3\n      jumpi\n      dup1\n      0x21a40589\n      eq\n      tag_4\n      jumpi\n      dup1\n      0x2e17de78\n      eq\n      tag_5\n      jumpi\n    tag_2:\n      0x00\n      dup1\n      revert\n        /* \"contracts/staking edu/staking.sol\":936:979  mapping(address => StakeInfo) public stakes */\n    tag_3:\n      tag_21\n      0x04\n      dup1\n      calldatasize\n      sub\n      dup2\n      add\n      swap1\n      tag_22\n      swap2\n      swap1\n      tag_23\n      jump\t// in\n    tag_22:\n      tag_24\n      jump\t// in\n    tag_21:\n      mload(0x40)\n      tag_25\n      swap4\n      swap3\n      swap2\n      swap1\n      tag_26\n      jump\t// in\n    tag_25:\n      mload(0x40)\n      dup1\n      swap2\n      sub\n      swap1\n      return\n        /* \"contracts/staking edu/staking.sol\":496:549  uint256 public constant MINIMUM_LOCK_PERIOD = 2 weeks */\n    tag_4:\n      tag_27\n      tag_28\n      jump\t// in\n    tag_27:\n      mload(0x40)\n      tag_29\n      swap2\n      swap1\n      tag_30\n      jump\t// in\n    tag_29:\n      mload(0x40)\n      dup1\n      swap2\n      sub\n      swap1\n      return\n        /* \"contracts/staking edu/staking.sol\":2652:3631  function unstake(uint256 _amount) external nonReentrant {... */\n    tag_5:\n      tag_31\n      0x04\n      dup1\n      calldatasize\n      sub\n      dup2\n      add\n      swap1\n      tag_32\n      swap2\n      swap1\n      tag_33\n      jump\t// in\n    tag_32:\n      tag_34\n      jump\t// in\n    tag_31:\n      stop\n        /* \"@openzeppelin/contracts/access/Ownable.sol\":2293:2394  function renounceOwnership() public virtual onlyOwner {... */\n    tag_6:\n      tag_35\n      tag_36\n      jump\t// in\n    tag_35:\n      stop\n        /* \"contracts/staking edu/staking.sol\":331:357  IERC20 public stakingToken */\n    tag_7:\n      tag_37\n      tag_38\n      jump\t// in\n    tag_37:\n      mload(0x40)\n      tag_39\n      swap2\n      swap1\n      tag_40\n      jump\t// in\n    tag_39:\n      mload(0x40)\n      dup1\n      swap2\n      sub\n      swap1\n      return\n        /* \"contracts/staking edu/staking.sol\":624:656  uint256 public rewardRate = 1000 */\n    tag_8:\n      tag_41\n      tag_42\n      jump\t// in\n    tag_41:\n      mload(0x40)\n      tag_43\n      swap2\n      swap1\n      tag_30\n      jump\t// in\n    tag_43:\n      mload(0x40)\n      dup1\n      swap2\n      sub\n      swap1\n      return\n        /* \"contracts/staking edu/staking.sol\":1020:1046  uint256 public totalStaked */\n    tag_9:\n      tag_44\n      tag_45\n      jump\t// in\n    tag_44:\n      mload(0x40)\n      tag_46\n      swap2\n      swap1\n      tag_30\n      jump\t// in\n    tag_46:\n      mload(0x40)\n      dup1\n      swap2\n      sub\n      swap1\n      return\n        /* \"@openzeppelin/contracts/access/Ownable.sol\":1638:1723  function owner() public view virtual returns (address) {... */\n    tag_10:\n      tag_47\n      tag_48\n      jump\t// in\n    tag_47:\n      mload(0x40)\n      tag_49\n      swap2\n      swap1\n      tag_50\n      jump\t// in\n    tag_49:\n      mload(0x40)\n      dup1\n      swap2\n      sub\n      swap1\n      return\n        /* \"contracts/staking edu/staking.sol\":5227:5333  function setRewardRate(uint256 _rewardRate) external onlyOwner {... */\n    tag_11:\n      tag_51\n      0x04\n      dup1\n      calldatasize\n      sub\n      dup2\n      add\n      swap1\n      tag_52\n      swap2\n      swap1\n      tag_33\n      jump\t// in\n    tag_52:\n      tag_53\n      jump\t// in\n    tag_51:\n      stop\n        /* \"contracts/staking edu/staking.sol\":1562:2505  function stake(uint256 _amount) external nonReentrant {... */\n    tag_12:\n      tag_54\n      0x04\n      dup1\n      calldatasize\n      sub\n      dup2\n      add\n      swap1\n      tag_55\n      swap2\n      swap1\n      tag_33\n      jump\t// in\n    tag_55:\n      tag_56\n      jump\t// in\n    tag_54:\n      stop\n        /* \"contracts/staking edu/staking.sol\":3703:4000  function claimReward() external nonReentrant {... */\n    tag_13:\n      tag_57\n      tag_58\n      jump\t// in\n    tag_57:\n      stop\n        /* \"contracts/staking edu/staking.sol\":5675:6165  function getStakeInfo(address _user) external view returns (... */\n    tag_14:\n      tag_59\n      0x04\n      dup1\n      calldatasize\n      sub\n      dup2\n      add\n      swap1\n      tag_60\n      swap2\n      swap1\n      tag_23\n      jump\t// in\n    tag_60:\n      tag_61\n      jump\t// in\n    tag_59:\n      mload(0x40)\n      tag_62\n      swap5\n      swap4\n      swap3\n      swap2\n      swap1\n      tag_63\n      jump\t// in\n    tag_62:\n      mload(0x40)\n      dup1\n      swap2\n      sub\n      swap1\n      return\n        /* \"@openzeppelin/contracts/access/Ownable.sol\":2543:2758  function transferOwnership(address newOwner) public virtual onlyOwner {... */\n    tag_15:\n      tag_64\n      0x04\n      dup1\n      calldatasize\n      sub\n      dup2\n      add\n      swap1\n      tag_65\n      swap2\n      swap1\n      tag_23\n      jump\t// in\n    tag_65:\n      tag_66\n      jump\t// in\n    tag_64:\n      stop\n        /* \"contracts/staking edu/staking.sol\":4162:4688  function pendingReward(address _user) public view returns (uint256) {... */\n    tag_16:\n      tag_67\n      0x04\n      dup1\n      calldatasize\n      sub\n      dup2\n      add\n      swap1\n      tag_68\n      swap2\n      swap1\n      tag_23\n      jump\t// in\n    tag_68:\n      tag_69\n      jump\t// in\n    tag_67:\n      mload(0x40)\n      tag_70\n      swap2\n      swap1\n      tag_30\n      jump\t// in\n    tag_70:\n      mload(0x40)\n      dup1\n      swap2\n      sub\n      swap1\n      return\n        /* \"contracts/staking edu/staking.sol\":420:445  IERC20 public rewardToken */\n    tag_17:\n      tag_71\n      tag_72\n      jump\t// in\n    tag_71:\n      mload(0x40)\n      tag_73\n      swap2\n      swap1\n      tag_40\n      jump\t// in\n    tag_73:\n      mload(0x40)\n      dup1\n      swap2\n      sub\n      swap1\n      return\n        /* \"contracts/staking edu/staking.sol\":936:979  mapping(address => StakeInfo) public stakes */\n    tag_24:\n      mstore(0x20, 0x05)\n      dup1\n      0x00\n      mstore\n      keccak256(0x00, 0x40)\n      0x00\n      swap2\n      pop\n      swap1\n      pop\n      dup1\n      0x00\n      add\n      sload\n      swap1\n      dup1\n      0x01\n      add\n      sload\n      swap1\n      dup1\n      0x02\n      add\n      sload\n      swap1\n      pop\n      dup4\n      jump\t// out\n        /* \"contracts/staking edu/staking.sol\":496:549  uint256 public constant MINIMUM_LOCK_PERIOD = 2 weeks */\n    tag_28:\n        /* \"contracts/staking edu/staking.sol\":542:549  2 weeks */\n      0x127500\n        /* \"contracts/staking edu/staking.sol\":496:549  uint256 public constant MINIMUM_LOCK_PERIOD = 2 weeks */\n      dup2\n      jump\t// out\n        /* \"contracts/staking edu/staking.sol\":2652:3631  function unstake(uint256 _amount) external nonReentrant {... */\n    tag_34:\n        /* \"@openzeppelin/contracts/security/ReentrancyGuard.sol\":2261:2282  _nonReentrantBefore() */\n      tag_75\n        /* \"@openzeppelin/contracts/security/ReentrancyGuard.sol\":2261:2280  _nonReentrantBefore */\n      tag_76\n        /* \"@openzeppelin/contracts/security/ReentrancyGuard.sol\":2261:2282  _nonReentrantBefore() */\n      jump\t// in\n    tag_75:\n        /* \"contracts/staking edu/staking.sol\":2719:2746  StakeInfo storage userStake */\n      0x00\n        /* \"contracts/staking edu/staking.sol\":2749:2755  stakes */\n      0x05\n        /* \"contracts/staking edu/staking.sol\":2749:2767  stakes[msg.sender] */\n      0x00\n        /* \"contracts/staking edu/staking.sol\":2756:2766  msg.sender */\n      caller\n        /* \"contracts/staking edu/staking.sol\":2749:2767  stakes[msg.sender] */\n      0xffffffffffffffffffffffffffffffffffffffff\n      and\n      0xffffffffffffffffffffffffffffffffffffffff\n      and\n      dup2\n      mstore\n      0x20\n      add\n      swap1\n      dup2\n      mstore\n      0x20\n      add\n      0x00\n      keccak256\n        /* \"contracts/staking edu/staking.sol\":2719:2767  StakeInfo storage userStake = stakes[msg.sender] */\n      swap1\n      pop\n        /* \"contracts/staking edu/staking.sol\":2829:2848  uint256 amountInWei */\n      0x00\n        /* \"contracts/staking edu/staking.sol\":2861:2865  1e18 */\n      0x0de0b6b3a7640000\n        /* \"contracts/staking edu/staking.sol\":2851:2858  _amount */\n      dup4\n        /* \"contracts/staking edu/staking.sol\":2851:2865  _amount * 1e18 */\n      tag_78\n      swap2\n      swap1\n      tag_79\n      jump\t// in\n    tag_78:\n        /* \"contracts/staking edu/staking.sol\":2829:2865  uint256 amountInWei = _amount * 1e18 */\n      swap1\n      pop\n        /* \"contracts/staking edu/staking.sol\":2914:2925  amountInWei */\n      dup1\n        /* \"contracts/staking edu/staking.sol\":2894:2903  userStake */\n      dup3\n        /* \"contracts/staking edu/staking.sol\":2894:2910  userStake.amount */\n      0x00\n      add\n      sload\n        /* \"contracts/staking edu/staking.sol\":2894:2925  userStake.amount >= amountInWei */\n      lt\n      iszero\n        /* \"contracts/staking edu/staking.sol\":2886:2956  require(userStake.amount >= amountInWei, \"Insufficient staked amount\") */\n      tag_80\n      jumpi\n      mload(0x40)\n      0x08c379a000000000000000000000000000000000000000000000000000000000\n      dup2\n      mstore\n      0x04\n      add\n      tag_81\n      swap1\n      tag_82\n      jump\t// in\n    tag_81:\n      mload(0x40)\n      dup1\n      swap2\n      sub\n      swap1\n      revert\n    tag_80:\n        /* \"contracts/staking edu/staking.sol\":542:549  2 weeks */\n      0x127500\n        /* \"contracts/staking edu/staking.sol\":2994:3003  userStake */\n      dup3\n        /* \"contracts/staking edu/staking.sol\":2994:3013  userStake.startTime */\n      0x01\n      add\n      sload\n        /* \"contracts/staking edu/staking.sol\":2994:3035  userStake.startTime + MINIMUM_LOCK_PERIOD */\n      tag_83\n      swap2\n      swap1\n      tag_84\n      jump\t// in\n    tag_83:\n        /* \"contracts/staking edu/staking.sol\":2975:2990  block.timestamp */\n      timestamp\n        /* \"contracts/staking edu/staking.sol\":2975:3035  block.timestamp >= userStake.startTime + MINIMUM_LOCK_PERIOD */\n      lt\n      iszero\n        /* \"contracts/staking edu/staking.sol\":2967:3061  require(block.timestamp >= userStake.startTime + MINIMUM_LOCK_PERIOD, \"Lock period not ended\") */\n      tag_85\n      jumpi\n      mload(0x40)\n      0x08c379a000000000000000000000000000000000000000000000000000000000\n      dup2\n      mstore\n      0x04\n      add\n      tag_86\n      swap1\n      tag_87\n      jump\t// in\n    tag_86:\n      mload(0x40)\n      dup1\n      swap2\n      sub\n      swap1\n      revert\n    tag_85:\n        /* \"contracts/staking edu/staking.sol\":3132:3157  _updateReward(msg.sender) */\n      tag_88\n        /* \"contracts/staking edu/staking.sol\":3146:3156  msg.sender */\n      caller\n        /* \"contracts/staking edu/staking.sol\":3132:3145  _updateReward */\n      tag_89\n        /* \"contracts/staking edu/staking.sol\":3132:3157  _updateReward(msg.sender) */\n      jump\t// in\n    tag_88:\n      pop\n        /* \"contracts/staking edu/staking.sol\":3235:3246  amountInWei */\n      dup1\n        /* \"contracts/staking edu/staking.sol\":3215:3224  userStake */\n      dup3\n        /* \"contracts/staking edu/staking.sol\":3215:3231  userStake.amount */\n      0x00\n      add\n      0x00\n        /* \"contracts/staking edu/staking.sol\":3215:3246  userStake.amount -= amountInWei */\n      dup3\n      dup3\n      sload\n      tag_90\n      swap2\n      swap1\n      tag_91\n      jump\t// in\n    tag_90:\n      swap3\n      pop\n      pop\n      dup2\n      swap1\n      sstore\n      pop\n        /* \"contracts/staking edu/staking.sol\":3272:3283  amountInWei */\n      dup1\n        /* \"contracts/staking edu/staking.sol\":3257:3268  totalStaked */\n      0x06\n      0x00\n        /* \"contracts/staking edu/staking.sol\":3257:3283  totalStaked -= amountInWei */\n      dup3\n      dup3\n      sload\n      tag_92\n      swap2\n      swap1\n      tag_91\n      jump\t// in\n    tag_92:\n      swap3\n      pop\n      pop\n      dup2\n      swap1\n      sstore\n      pop\n        /* \"contracts/staking edu/staking.sol\":3376:3377  0 */\n      0x00\n        /* \"contracts/staking edu/staking.sol\":3356:3365  userStake */\n      dup3\n        /* \"contracts/staking edu/staking.sol\":3356:3372  userStake.amount */\n      0x00\n      add\n      sload\n        /* \"contracts/staking edu/staking.sol\":3356:3377  userStake.amount == 0 */\n      sub\n        /* \"contracts/staking edu/staking.sol\":3352:3429  if (userStake.amount == 0) {... */\n      tag_93\n      jumpi\n        /* \"contracts/staking edu/staking.sol\":3416:3417  0 */\n      0x00\n        /* \"contracts/staking edu/staking.sol\":3394:3403  userStake */\n      dup3\n        /* \"contracts/staking edu/staking.sol\":3394:3413  userStake.startTime */\n      0x01\n      add\n        /* \"contracts/staking edu/staking.sol\":3394:3417  userStake.startTime = 0 */\n      dup2\n      swap1\n      sstore\n      pop\n        /* \"contracts/staking edu/staking.sol\":3352:3429  if (userStake.amount == 0) {... */\n    tag_93:\n        /* \"contracts/staking edu/staking.sol\":3498:3510  stakingToken */\n      0x02\n      0x00\n      swap1\n      sload\n      swap1\n      0x0100\n      exp\n      swap1\n      div\n      0xffffffffffffffffffffffffffffffffffffffff\n      and\n        /* \"contracts/staking edu/staking.sol\":3498:3519  stakingToken.transfer */\n      0xffffffffffffffffffffffffffffffffffffffff\n      and\n      0xa9059cbb\n        /* \"contracts/staking edu/staking.sol\":3520:3530  msg.sender */\n      caller\n        /* \"contracts/staking edu/staking.sol\":3532:3543  amountInWei */\n      dup4\n        /* \"contracts/staking edu/staking.sol\":3498:3544  stakingToken.transfer(msg.sender, amountInWei) */\n      mload(0x40)\n      dup4\n      0xffffffff\n      and\n      0xe0\n      shl\n      dup2\n      mstore\n      0x04\n      add\n      tag_94\n      swap3\n      swap2\n      swap1\n      tag_95\n      jump\t// in\n    tag_94:\n      0x20\n      mload(0x40)\n      dup1\n      dup4\n      sub\n      dup2\n      0x00\n      dup8\n      gas\n      call\n      iszero\n      dup1\n      iszero\n      tag_97\n      jumpi\n      returndatasize\n      0x00\n      dup1\n      returndatacopy\n      revert(0x00, returndatasize)\n    tag_97:\n      pop\n      pop\n      pop\n      pop\n      mload(0x40)\n      returndatasize\n      not(0x1f)\n      0x1f\n      dup3\n      add\n      and\n      dup3\n      add\n      dup1\n      0x40\n      mstore\n      pop\n      dup2\n      add\n      swap1\n      tag_98\n      swap2\n      swap1\n      tag_99\n      jump\t// in\n    tag_98:\n        /* \"contracts/staking edu/staking.sol\":3490:3564  require(stakingToken.transfer(msg.sender, amountInWei), \"Transfer failed\") */\n      tag_100\n      jumpi\n      mload(0x40)\n      0x08c379a000000000000000000000000000000000000000000000000000000000\n      dup2\n      mstore\n      0x04\n      add\n      tag_101\n      swap1\n      tag_102\n      jump\t// in\n    tag_101:\n      mload(0x40)\n      dup1\n      swap2\n      sub\n      swap1\n      revert\n    tag_100:\n        /* \"contracts/staking edu/staking.sol\":3599:3609  msg.sender */\n      caller\n        /* \"contracts/staking edu/staking.sol\":3590:3623  Unstaked(msg.sender, amountInWei) */\n      0xffffffffffffffffffffffffffffffffffffffff\n      and\n      0x0f5bb82176feb1b5e747e28471aa92156a04d9f3ab9f45f28e2d704232b93f75\n        /* \"contracts/staking edu/staking.sol\":3611:3622  amountInWei */\n      dup3\n        /* \"contracts/staking edu/staking.sol\":3590:3623  Unstaked(msg.sender, amountInWei) */\n      mload(0x40)\n      tag_103\n      swap2\n      swap1\n      tag_30\n      jump\t// in\n    tag_103:\n      mload(0x40)\n      dup1\n      swap2\n      sub\n      swap1\n      log2\n        /* \"contracts/staking edu/staking.sol\":2708:3631  {... */\n      pop\n      pop\n        /* \"@openzeppelin/contracts/security/ReentrancyGuard.sol\":2303:2323  _nonReentrantAfter() */\n      tag_104\n        /* \"@openzeppelin/contracts/security/ReentrancyGuard.sol\":2303:2321  _nonReentrantAfter */\n      tag_105\n        /* \"@openzeppelin/contracts/security/ReentrancyGuard.sol\":2303:2323  _nonReentrantAfter() */\n      jump\t// in\n    tag_104:\n        /* \"contracts/staking edu/staking.sol\":2652:3631  function unstake(uint256 _amount) external nonReentrant {... */\n      pop\n      jump\t// out\n        /* \"@openzeppelin/contracts/access/Ownable.sol\":2293:2394  function renounceOwnership() public virtual onlyOwner {... */\n    tag_36:\n        /* \"@openzeppelin/contracts/access/Ownable.sol\":1531:1544  _checkOwner() */\n      tag_107\n        /* \"@openzeppelin/contracts/access/Ownable.sol\":1531:1542  _checkOwner */\n      tag_108\n        /* \"@openzeppelin/contracts/access/Ownable.sol\":1531:1544  _checkOwner() */\n      jump\t// in\n    tag_107:\n        /* \"@openzeppelin/contracts/access/Ownable.sol\":2357:2387  _transferOwnership(address(0)) */\n      tag_110\n        /* \"@openzeppelin/contracts/access/Ownable.sol\":2384:2385  0 */\n      0x00\n        /* \"@openzeppelin/contracts/access/Ownable.sol\":2357:2375  _transferOwnership */\n      tag_111\n        /* \"@openzeppelin/contracts/access/Ownable.sol\":2357:2387  _transferOwnership(address(0)) */\n      jump\t// in\n    tag_110:\n        /* \"@openzeppelin/contracts/access/Ownable.sol\":2293:2394  function renounceOwnership() public virtual onlyOwner {... */\n      jump\t// out\n        /* \"contracts/staking edu/staking.sol\":331:357  IERC20 public stakingToken */\n    tag_38:\n      0x02\n      0x00\n      swap1\n      sload\n      swap1\n      0x0100\n      exp\n      swap1\n      div\n      0xffffffffffffffffffffffffffffffffffffffff\n      and\n      dup2\n      jump\t// out\n        /* \"contracts/staking edu/staking.sol\":624:656  uint256 public rewardRate = 1000 */\n    tag_42:\n      sload(0x04)\n      dup2\n      jump\t// out\n        /* \"contracts/staking edu/staking.sol\":1020:1046  uint256 public totalStaked */\n    tag_45:\n      sload(0x06)\n      dup2\n      jump\t// out\n        /* \"@openzeppelin/contracts/access/Ownable.sol\":1638:1723  function owner() public view virtual returns (address) {... */\n    tag_48:\n        /* \"@openzeppelin/contracts/access/Ownable.sol\":1684:1691  address */\n      0x00\n        /* \"@openzeppelin/contracts/access/Ownable.sol\":1710:1716  _owner */\n      dup1\n      0x00\n      swap1\n      sload\n      swap1\n      0x0100\n      exp\n      swap1\n      div\n      0xffffffffffffffffffffffffffffffffffffffff\n      and\n        /* \"@openzeppelin/contracts/access/Ownable.sol\":1703:1716  return _owner */\n      swap1\n      pop\n        /* \"@openzeppelin/contracts/access/Ownable.sol\":1638:1723  function owner() public view virtual returns (address) {... */\n      swap1\n      jump\t// out\n        /* \"contracts/staking edu/staking.sol\":5227:5333  function setRewardRate(uint256 _rewardRate) external onlyOwner {... */\n    tag_53:\n        /* \"@openzeppelin/contracts/access/Ownable.sol\":1531:1544  _checkOwner() */\n      tag_114\n        /* \"@openzeppelin/contracts/access/Ownable.sol\":1531:1542  _checkOwner */\n      tag_108\n        /* \"@openzeppelin/contracts/access/Ownable.sol\":1531:1544  _checkOwner() */\n      jump\t// in\n    tag_114:\n        /* \"contracts/staking edu/staking.sol\":5314:5325  _rewardRate */\n      dup1\n        /* \"contracts/staking edu/staking.sol\":5301:5311  rewardRate */\n      0x04\n        /* \"contracts/staking edu/staking.sol\":5301:5325  rewardRate = _rewardRate */\n      dup2\n      swap1\n      sstore\n      pop\n        /* \"contracts/staking edu/staking.sol\":5227:5333  function setRewardRate(uint256 _rewardRate) external onlyOwner {... */\n      pop\n      jump\t// out\n        /* \"contracts/staking edu/staking.sol\":1562:2505  function stake(uint256 _amount) external nonReentrant {... */\n    tag_56:\n        /* \"@openzeppelin/contracts/security/ReentrancyGuard.sol\":2261:2282  _nonReentrantBefore() */\n      tag_117\n        /* \"@openzeppelin/contracts/security/ReentrancyGuard.sol\":2261:2280  _nonReentrantBefore */\n      tag_76\n        /* \"@openzeppelin/contracts/security/ReentrancyGuard.sol\":2261:2282  _nonReentrantBefore() */\n      jump\t// in\n    tag_117:\n        /* \"contracts/staking edu/staking.sol\":1645:1646  0 */\n      0x00\n        /* \"contracts/staking edu/staking.sol\":1635:1642  _amount */\n      dup2\n        /* \"contracts/staking edu/staking.sol\":1635:1646  _amount > 0 */\n      gt\n        /* \"contracts/staking edu/staking.sol\":1627:1665  require(_amount > 0, \"Cannot stake 0\") */\n      tag_119\n      jumpi\n      mload(0x40)\n      0x08c379a000000000000000000000000000000000000000000000000000000000\n      dup2\n      mstore\n      0x04\n      add\n      tag_120\n      swap1\n      tag_121\n      jump\t// in\n    tag_120:\n      mload(0x40)\n      dup1\n      swap2\n      sub\n      swap1\n      revert\n    tag_119:\n        /* \"contracts/staking edu/staking.sol\":1727:1746  uint256 amountInWei */\n      0x00\n        /* \"contracts/staking edu/staking.sol\":1759:1763  1e18 */\n      0x0de0b6b3a7640000\n        /* \"contracts/staking edu/staking.sol\":1749:1756  _amount */\n      dup3\n        /* \"contracts/staking edu/staking.sol\":1749:1763  _amount * 1e18 */\n      tag_122\n      swap2\n      swap1\n      tag_79\n      jump\t// in\n    tag_122:\n        /* \"contracts/staking edu/staking.sol\":1727:1763  uint256 amountInWei = _amount * 1e18 */\n      swap1\n      pop\n        /* \"contracts/staking edu/staking.sol\":1834:1859  _updateReward(msg.sender) */\n      tag_123\n        /* \"contracts/staking edu/staking.sol\":1848:1858  msg.sender */\n      caller\n        /* \"contracts/staking edu/staking.sol\":1834:1847  _updateReward */\n      tag_89\n        /* \"contracts/staking edu/staking.sol\":1834:1859  _updateReward(msg.sender) */\n      jump\t// in\n    tag_123:\n      pop\n        /* \"contracts/staking edu/staking.sol\":1938:1950  stakingToken */\n      0x02\n      0x00\n      swap1\n      sload\n      swap1\n      0x0100\n      exp\n      swap1\n      div\n      0xffffffffffffffffffffffffffffffffffffffff\n      and\n        /* \"contracts/staking edu/staking.sol\":1938:1963  stakingToken.transferFrom */\n      0xffffffffffffffffffffffffffffffffffffffff\n      and\n      0x23b872dd\n        /* \"contracts/staking edu/staking.sol\":1964:1974  msg.sender */\n      caller\n        /* \"contracts/staking edu/staking.sol\":1984:1988  this */\n      address\n        /* \"contracts/staking edu/staking.sol\":1991:2002  amountInWei */\n      dup5\n        /* \"contracts/staking edu/staking.sol\":1938:2003  stakingToken.transferFrom(msg.sender, address(this), amountInWei) */\n      mload(0x40)\n      dup5\n      0xffffffff\n      and\n      0xe0\n      shl\n      dup2\n      mstore\n      0x04\n      add\n      tag_124\n      swap4\n      swap3\n      swap2\n      swap1\n      tag_125\n      jump\t// in\n    tag_124:\n      0x20\n      mload(0x40)\n      dup1\n      dup4\n      sub\n      dup2\n      0x00\n      dup8\n      gas\n      call\n      iszero\n      dup1\n      iszero\n      tag_127\n      jumpi\n      returndatasize\n      0x00\n      dup1\n      returndatacopy\n      revert(0x00, returndatasize)\n    tag_127:\n      pop\n      pop\n      pop\n      pop\n      mload(0x40)\n      returndatasize\n      not(0x1f)\n      0x1f\n      dup3\n      add\n      and\n      dup3\n      add\n      dup1\n      0x40\n      mstore\n      pop\n      dup2\n      add\n      swap1\n      tag_128\n      swap2\n      swap1\n      tag_99\n      jump\t// in\n    tag_128:\n        /* \"contracts/staking edu/staking.sol\":1930:2023  require(stakingToken.transferFrom(msg.sender, address(this), amountInWei), \"Transfer failed\") */\n      tag_129\n      jumpi\n      mload(0x40)\n      0x08c379a000000000000000000000000000000000000000000000000000000000\n      dup2\n      mstore\n      0x04\n      add\n      tag_130\n      swap1\n      tag_102\n      jump\t// in\n    tag_130:\n      mload(0x40)\n      dup1\n      swap2\n      sub\n      swap1\n      revert\n    tag_129:\n        /* \"contracts/staking edu/staking.sol\":2081:2108  StakeInfo storage userStake */\n      0x00\n        /* \"contracts/staking edu/staking.sol\":2111:2117  stakes */\n      0x05\n        /* \"contracts/staking edu/staking.sol\":2111:2129  stakes[msg.sender] */\n      0x00\n        /* \"contracts/staking edu/staking.sol\":2118:2128  msg.sender */\n      caller\n        /* \"contracts/staking edu/staking.sol\":2111:2129  stakes[msg.sender] */\n      0xffffffffffffffffffffffffffffffffffffffff\n      and\n      0xffffffffffffffffffffffffffffffffffffffff\n      and\n      dup2\n      mstore\n      0x20\n      add\n      swap1\n      dup2\n      mstore\n      0x20\n      add\n      0x00\n      keccak256\n        /* \"contracts/staking edu/staking.sol\":2081:2129  StakeInfo storage userStake = stakes[msg.sender] */\n      swap1\n      pop\n        /* \"contracts/staking edu/staking.sol\":2229:2230  0 */\n      0x00\n        /* \"contracts/staking edu/staking.sol\":2209:2218  userStake */\n      dup2\n        /* \"contracts/staking edu/staking.sol\":2209:2225  userStake.amount */\n      0x00\n      add\n      sload\n        /* \"contracts/staking edu/staking.sol\":2209:2230  userStake.amount == 0 */\n      sub\n        /* \"contracts/staking edu/staking.sol\":2205:2352  if (userStake.amount == 0) {... */\n      tag_131\n      jumpi\n        /* \"contracts/staking edu/staking.sol\":2269:2284  block.timestamp */\n      timestamp\n        /* \"contracts/staking edu/staking.sol\":2247:2256  userStake */\n      dup2\n        /* \"contracts/staking edu/staking.sol\":2247:2266  userStake.startTime */\n      0x01\n      add\n        /* \"contracts/staking edu/staking.sol\":2247:2284  userStake.startTime = block.timestamp */\n      dup2\n      swap1\n      sstore\n      pop\n        /* \"contracts/staking edu/staking.sol\":2325:2340  block.timestamp */\n      timestamp\n        /* \"contracts/staking edu/staking.sol\":2299:2308  userStake */\n      dup2\n        /* \"contracts/staking edu/staking.sol\":2299:2322  userStake.lastClaimTime */\n      0x02\n      add\n        /* \"contracts/staking edu/staking.sol\":2299:2340  userStake.lastClaimTime = block.timestamp */\n      dup2\n      swap1\n      sstore\n      pop\n        /* \"contracts/staking edu/staking.sol\":2205:2352  if (userStake.amount == 0) {... */\n    tag_131:\n        /* \"contracts/staking edu/staking.sol\":2392:2403  amountInWei */\n      dup2\n        /* \"contracts/staking edu/staking.sol\":2372:2381  userStake */\n      dup2\n        /* \"contracts/staking edu/staking.sol\":2372:2388  userStake.amount */\n      0x00\n      add\n      0x00\n        /* \"contracts/staking edu/staking.sol\":2372:2403  userStake.amount += amountInWei */\n      dup3\n      dup3\n      sload\n      tag_132\n      swap2\n      swap1\n      tag_84\n      jump\t// in\n    tag_132:\n      swap3\n      pop\n      pop\n      dup2\n      swap1\n      sstore\n      pop\n        /* \"contracts/staking edu/staking.sol\":2429:2440  amountInWei */\n      dup2\n        /* \"contracts/staking edu/staking.sol\":2414:2425  totalStaked */\n      0x06\n      0x00\n        /* \"contracts/staking edu/staking.sol\":2414:2440  totalStaked += amountInWei */\n      dup3\n      dup3\n      sload\n      tag_133\n      swap2\n      swap1\n      tag_84\n      jump\t// in\n    tag_133:\n      swap3\n      pop\n      pop\n      dup2\n      swap1\n      sstore\n      pop\n        /* \"contracts/staking edu/staking.sol\":2473:2483  msg.sender */\n      caller\n        /* \"contracts/staking edu/staking.sol\":2466:2497  Staked(msg.sender, amountInWei) */\n      0xffffffffffffffffffffffffffffffffffffffff\n      and\n      0x9e71bc8eea02a63969f509818f2dafb9254532904319f9dbda79b67bd34a5f3d\n        /* \"contracts/staking edu/staking.sol\":2485:2496  amountInWei */\n      dup4\n        /* \"contracts/staking edu/staking.sol\":2466:2497  Staked(msg.sender, amountInWei) */\n      mload(0x40)\n      tag_134\n      swap2\n      swap1\n      tag_30\n      jump\t// in\n    tag_134:\n      mload(0x40)\n      dup1\n      swap2\n      sub\n      swap1\n      log2\n        /* \"contracts/staking edu/staking.sol\":1616:2505  {... */\n      pop\n      pop\n        /* \"@openzeppelin/contracts/security/ReentrancyGuard.sol\":2303:2323  _nonReentrantAfter() */\n      tag_135\n        /* \"@openzeppelin/contracts/security/ReentrancyGuard.sol\":2303:2321  _nonReentrantAfter */\n      tag_105\n        /* \"@openzeppelin/contracts/security/ReentrancyGuard.sol\":2303:2323  _nonReentrantAfter() */\n      jump\t// in\n    tag_135:\n        /* \"contracts/staking edu/staking.sol\":1562:2505  function stake(uint256 _amount) external nonReentrant {... */\n      pop\n      jump\t// out\n        /* \"contracts/staking edu/staking.sol\":3703:4000  function claimReward() external nonReentrant {... */\n    tag_58:\n        /* \"@openzeppelin/contracts/security/ReentrancyGuard.sol\":2261:2282  _nonReentrantBefore() */\n      tag_137\n        /* \"@openzeppelin/contracts/security/ReentrancyGuard.sol\":2261:2280  _nonReentrantBefore */\n      tag_76\n        /* \"@openzeppelin/contracts/security/ReentrancyGuard.sol\":2261:2282  _nonReentrantBefore() */\n      jump\t// in\n    tag_137:\n        /* \"contracts/staking edu/staking.sol\":3759:3773  uint256 reward */\n      0x00\n        /* \"contracts/staking edu/staking.sol\":3776:3801  _updateReward(msg.sender) */\n      tag_139\n        /* \"contracts/staking edu/staking.sol\":3790:3800  msg.sender */\n      caller\n        /* \"contracts/staking edu/staking.sol\":3776:3789  _updateReward */\n      tag_89\n        /* \"contracts/staking edu/staking.sol\":3776:3801  _updateReward(msg.sender) */\n      jump\t// in\n    tag_139:\n        /* \"contracts/staking edu/staking.sol\":3759:3801  uint256 reward = _updateReward(msg.sender) */\n      swap1\n      pop\n        /* \"contracts/staking edu/staking.sol\":3835:3836  0 */\n      0x00\n        /* \"contracts/staking edu/staking.sol\":3826:3832  reward */\n      dup2\n        /* \"contracts/staking edu/staking.sol\":3826:3836  reward > 0 */\n      gt\n        /* \"contracts/staking edu/staking.sol\":3822:3993  if (reward > 0) {... */\n      iszero\n      tag_140\n      jumpi\n        /* \"contracts/staking edu/staking.sol\":3861:3872  rewardToken */\n      0x03\n      0x00\n      swap1\n      sload\n      swap1\n      0x0100\n      exp\n      swap1\n      div\n      0xffffffffffffffffffffffffffffffffffffffff\n      and\n        /* \"contracts/staking edu/staking.sol\":3861:3881  rewardToken.transfer */\n      0xffffffffffffffffffffffffffffffffffffffff\n      and\n      0xa9059cbb\n        /* \"contracts/staking edu/staking.sol\":3882:3892  msg.sender */\n      caller\n        /* \"contracts/staking edu/staking.sol\":3894:3900  reward */\n      dup4\n        /* \"contracts/staking edu/staking.sol\":3861:3901  rewardToken.transfer(msg.sender, reward) */\n      mload(0x40)\n      dup4\n      0xffffffff\n      and\n      0xe0\n      shl\n      dup2\n      mstore\n      0x04\n      add\n      tag_141\n      swap3\n      swap2\n      swap1\n      tag_95\n      jump\t// in\n    tag_141:\n      0x20\n      mload(0x40)\n      dup1\n      dup4\n      sub\n      dup2\n      0x00\n      dup8\n      gas\n      call\n      iszero\n      dup1\n      iszero\n      tag_143\n      jumpi\n      returndatasize\n      0x00\n      dup1\n      returndatacopy\n      revert(0x00, returndatasize)\n    tag_143:\n      pop\n      pop\n      pop\n      pop\n      mload(0x40)\n      returndatasize\n      not(0x1f)\n      0x1f\n      dup3\n      add\n      and\n      dup3\n      add\n      dup1\n      0x40\n      mstore\n      pop\n      dup2\n      add\n      swap1\n      tag_144\n      swap2\n      swap1\n      tag_99\n      jump\t// in\n    tag_144:\n        /* \"contracts/staking edu/staking.sol\":3853:3928  require(rewardToken.transfer(msg.sender, reward), \"Reward transfer failed\") */\n      tag_145\n      jumpi\n      mload(0x40)\n      0x08c379a000000000000000000000000000000000000000000000000000000000\n      dup2\n      mstore\n      0x04\n      add\n      tag_146\n      swap1\n      tag_147\n      jump\t// in\n    tag_146:\n      mload(0x40)\n      dup1\n      swap2\n      sub\n      swap1\n      revert\n    tag_145:\n        /* \"contracts/staking edu/staking.sol\":3962:3972  msg.sender */\n      caller\n        /* \"contracts/staking edu/staking.sol\":3948:3981  RewardClaimed(msg.sender, reward) */\n      0xffffffffffffffffffffffffffffffffffffffff\n      and\n      0x106f923f993c2149d49b4255ff723acafa1f2d94393f561d3eda32ae348f7241\n        /* \"contracts/staking edu/staking.sol\":3974:3980  reward */\n      dup3\n        /* \"contracts/staking edu/staking.sol\":3948:3981  RewardClaimed(msg.sender, reward) */\n      mload(0x40)\n      tag_148\n      swap2\n      swap1\n      tag_30\n      jump\t// in\n    tag_148:\n      mload(0x40)\n      dup1\n      swap2\n      sub\n      swap1\n      log2\n        /* \"contracts/staking edu/staking.sol\":3822:3993  if (reward > 0) {... */\n    tag_140:\n        /* \"contracts/staking edu/staking.sol\":3748:4000  {... */\n      pop\n        /* \"@openzeppelin/contracts/security/ReentrancyGuard.sol\":2303:2323  _nonReentrantAfter() */\n      tag_149\n        /* \"@openzeppelin/contracts/security/ReentrancyGuard.sol\":2303:2321  _nonReentrantAfter */\n      tag_105\n        /* \"@openzeppelin/contracts/security/ReentrancyGuard.sol\":2303:2323  _nonReentrantAfter() */\n      jump\t// in\n    tag_149:\n        /* \"contracts/staking edu/staking.sol\":3703:4000  function claimReward() external nonReentrant {... */\n      jump\t// out\n        /* \"contracts/staking edu/staking.sol\":5675:6165  function getStakeInfo(address _user) external view returns (... */\n    tag_61:\n        /* \"contracts/staking edu/staking.sol\":5745:5759  uint256 amount */\n      0x00\n        /* \"contracts/staking edu/staking.sol\":5770:5787  uint256 startTime */\n      dup1\n        /* \"contracts/staking edu/staking.sol\":5798:5817  uint256 lockEndTime */\n      0x00\n        /* \"contracts/staking edu/staking.sol\":5828:5850  uint256 pendingRewards */\n      dup1\n        /* \"contracts/staking edu/staking.sol\":5869:5896  StakeInfo storage userStake */\n      0x00\n        /* \"contracts/staking edu/staking.sol\":5899:5905  stakes */\n      0x05\n        /* \"contracts/staking edu/staking.sol\":5899:5912  stakes[_user] */\n      0x00\n        /* \"contracts/staking edu/staking.sol\":5906:5911  _user */\n      dup8\n        /* \"contracts/staking edu/staking.sol\":5899:5912  stakes[_user] */\n      0xffffffffffffffffffffffffffffffffffffffff\n      and\n      0xffffffffffffffffffffffffffffffffffffffff\n      and\n      dup2\n      mstore\n      0x20\n      add\n      swap1\n      dup2\n      mstore\n      0x20\n      add\n      0x00\n      keccak256\n        /* \"contracts/staking edu/staking.sol\":5869:5912  StakeInfo storage userStake = stakes[_user] */\n      swap1\n      pop\n        /* \"contracts/staking edu/staking.sol\":5974:5978  1e18 */\n      0x0de0b6b3a7640000\n        /* \"contracts/staking edu/staking.sol\":5955:5964  userStake */\n      dup2\n        /* \"contracts/staking edu/staking.sol\":5955:5971  userStake.amount */\n      0x00\n      add\n      sload\n        /* \"contracts/staking edu/staking.sol\":5955:5978  userStake.amount / 1e18 */\n      tag_151\n      swap2\n      swap1\n      tag_152\n      jump\t// in\n    tag_151:\n        /* \"contracts/staking edu/staking.sol\":6036:6045  userStake */\n      dup2\n        /* \"contracts/staking edu/staking.sol\":6036:6055  userStake.startTime */\n      0x01\n      add\n      sload\n        /* \"contracts/staking edu/staking.sol\":542:549  2 weeks */\n      0x127500\n        /* \"contracts/staking edu/staking.sol\":6070:6079  userStake */\n      dup4\n        /* \"contracts/staking edu/staking.sol\":6070:6089  userStake.startTime */\n      0x01\n      add\n      sload\n        /* \"contracts/staking edu/staking.sol\":6070:6111  userStake.startTime + MINIMUM_LOCK_PERIOD */\n      tag_153\n      swap2\n      swap1\n      tag_84\n      jump\t// in\n    tag_153:\n        /* \"contracts/staking edu/staking.sol\":6126:6146  pendingReward(_user) */\n      tag_154\n        /* \"contracts/staking edu/staking.sol\":6140:6145  _user */\n      dup10\n        /* \"contracts/staking edu/staking.sol\":6126:6139  pendingReward */\n      tag_69\n        /* \"contracts/staking edu/staking.sol\":6126:6146  pendingReward(_user) */\n      jump\t// in\n    tag_154:\n        /* \"contracts/staking edu/staking.sol\":5933:6157  return (... */\n      swap5\n      pop\n      swap5\n      pop\n      swap5\n      pop\n      swap5\n      pop\n      pop\n        /* \"contracts/staking edu/staking.sol\":5675:6165  function getStakeInfo(address _user) external view returns (... */\n      swap2\n      swap4\n      pop\n      swap2\n      swap4\n      jump\t// out\n        /* \"@openzeppelin/contracts/access/Ownable.sol\":2543:2758  function transferOwnership(address newOwner) public virtual onlyOwner {... */\n    tag_66:\n        /* \"@openzeppelin/contracts/access/Ownable.sol\":1531:1544  _checkOwner() */\n      tag_156\n        /* \"@openzeppelin/contracts/access/Ownable.sol\":1531:1542  _checkOwner */\n      tag_108\n        /* \"@openzeppelin/contracts/access/Ownable.sol\":1531:1544  _checkOwner() */\n      jump\t// in\n    tag_156:\n        /* \"@openzeppelin/contracts/access/Ownable.sol\":2647:2648  0 */\n      0x00\n        /* \"@openzeppelin/contracts/access/Ownable.sol\":2627:2649  newOwner == address(0) */\n      0xffffffffffffffffffffffffffffffffffffffff\n      and\n        /* \"@openzeppelin/contracts/access/Ownable.sol\":2627:2635  newOwner */\n      dup2\n        /* \"@openzeppelin/contracts/access/Ownable.sol\":2627:2649  newOwner == address(0) */\n      0xffffffffffffffffffffffffffffffffffffffff\n      and\n      sub\n        /* \"@openzeppelin/contracts/access/Ownable.sol\":2623:2714  if (newOwner == address(0)) {... */\n      tag_158\n      jumpi\n        /* \"@openzeppelin/contracts/access/Ownable.sol\":2700:2701  0 */\n      0x00\n        /* \"@openzeppelin/contracts/access/Ownable.sol\":2672:2703  OwnableInvalidOwner(address(0)) */\n      mload(0x40)\n      0x1e4fbdf700000000000000000000000000000000000000000000000000000000\n      dup2\n      mstore\n      0x04\n      add\n      tag_159\n      swap2\n      swap1\n      tag_50\n      jump\t// in\n    tag_159:\n      mload(0x40)\n      dup1\n      swap2\n      sub\n      swap1\n      revert\n        /* \"@openzeppelin/contracts/access/Ownable.sol\":2623:2714  if (newOwner == address(0)) {... */\n    tag_158:\n        /* \"@openzeppelin/contracts/access/Ownable.sol\":2723:2751  _transferOwnership(newOwner) */\n      tag_160\n        /* \"@openzeppelin/contracts/access/Ownable.sol\":2742:2750  newOwner */\n      dup2\n        /* \"@openzeppelin/contracts/access/Ownable.sol\":2723:2741  _transferOwnership */\n      tag_111\n        /* \"@openzeppelin/contracts/access/Ownable.sol\":2723:2751  _transferOwnership(newOwner) */\n      jump\t// in\n    tag_160:\n        /* \"@openzeppelin/contracts/access/Ownable.sol\":2543:2758  function transferOwnership(address newOwner) public virtual onlyOwner {... */\n      pop\n      jump\t// out\n        /* \"contracts/staking edu/staking.sol\":4162:4688  function pendingReward(address _user) public view returns (uint256) {... */\n    tag_69:\n        /* \"contracts/staking edu/staking.sol\":4221:4228  uint256 */\n      0x00\n        /* \"contracts/staking edu/staking.sol\":4241:4268  StakeInfo storage userStake */\n      dup1\n        /* \"contracts/staking edu/staking.sol\":4271:4277  stakes */\n      0x05\n        /* \"contracts/staking edu/staking.sol\":4271:4284  stakes[_user] */\n      0x00\n        /* \"contracts/staking edu/staking.sol\":4278:4283  _user */\n      dup5\n        /* \"contracts/staking edu/staking.sol\":4271:4284  stakes[_user] */\n      0xffffffffffffffffffffffffffffffffffffffff\n      and\n      0xffffffffffffffffffffffffffffffffffffffff\n      and\n      dup2\n      mstore\n      0x20\n      add\n      swap1\n      dup2\n      mstore\n      0x20\n      add\n      0x00\n      keccak256\n        /* \"contracts/staking edu/staking.sol\":4241:4284  StakeInfo storage userStake = stakes[_user] */\n      swap1\n      pop\n        /* \"contracts/staking edu/staking.sol\":4329:4330  0 */\n      0x00\n        /* \"contracts/staking edu/staking.sol\":4309:4318  userStake */\n      dup2\n        /* \"contracts/staking edu/staking.sol\":4309:4325  userStake.amount */\n      0x00\n      add\n      sload\n        /* \"contracts/staking edu/staking.sol\":4309:4330  userStake.amount == 0 */\n      sub\n        /* \"contracts/staking edu/staking.sol\":4305:4367  if (userStake.amount == 0) {... */\n      tag_162\n      jumpi\n        /* \"contracts/staking edu/staking.sol\":4354:4355  0 */\n      0x00\n        /* \"contracts/staking edu/staking.sol\":4347:4355  return 0 */\n      swap2\n      pop\n      pop\n      jump(tag_161)\n        /* \"contracts/staking edu/staking.sol\":4305:4367  if (userStake.amount == 0) {... */\n    tag_162:\n        /* \"contracts/staking edu/staking.sol\":4387:4406  uint256 timeElapsed */\n      0x00\n        /* \"contracts/staking edu/staking.sol\":4427:4436  userStake */\n      dup2\n        /* \"contracts/staking edu/staking.sol\":4427:4450  userStake.lastClaimTime */\n      0x02\n      add\n      sload\n        /* \"contracts/staking edu/staking.sol\":4409:4424  block.timestamp */\n      timestamp\n        /* \"contracts/staking edu/staking.sol\":4409:4450  block.timestamp - userStake.lastClaimTime */\n      tag_163\n      swap2\n      swap1\n      tag_91\n      jump\t// in\n    tag_163:\n        /* \"contracts/staking edu/staking.sol\":4387:4450  uint256 timeElapsed = block.timestamp - userStake.lastClaimTime */\n      swap1\n      pop\n        /* \"contracts/staking edu/staking.sol\":4663:4679  365 days * 10000 */\n      0x496cebb800\n        /* \"contracts/staking edu/staking.sol\":4647:4658  timeElapsed */\n      dup2\n        /* \"contracts/staking edu/staking.sol\":4634:4644  rewardRate */\n      sload(0x04)\n        /* \"contracts/staking edu/staking.sol\":4615:4624  userStake */\n      dup5\n        /* \"contracts/staking edu/staking.sol\":4615:4631  userStake.amount */\n      0x00\n      add\n      sload\n        /* \"contracts/staking edu/staking.sol\":4615:4644  userStake.amount * rewardRate */\n      tag_164\n      swap2\n      swap1\n      tag_79\n      jump\t// in\n    tag_164:\n        /* \"contracts/staking edu/staking.sol\":4615:4658  userStake.amount * rewardRate * timeElapsed */\n      tag_165\n      swap2\n      swap1\n      tag_79\n      jump\t// in\n    tag_165:\n        /* \"contracts/staking edu/staking.sol\":4614:4680  (userStake.amount * rewardRate * timeElapsed) / (365 days * 10000) */\n      tag_166\n      swap2\n      swap1\n      tag_152\n      jump\t// in\n    tag_166:\n        /* \"contracts/staking edu/staking.sol\":4607:4680  return (userStake.amount * rewardRate * timeElapsed) / (365 days * 10000) */\n      swap3\n      pop\n      pop\n      pop\n        /* \"contracts/staking edu/staking.sol\":4162:4688  function pendingReward(address _user) public view returns (uint256) {... */\n    tag_161:\n      swap2\n      swap1\n      pop\n      jump\t// out\n        /* \"contracts/staking edu/staking.sol\":420:445  IERC20 public rewardToken */\n    tag_72:\n      0x03\n      0x00\n      swap1\n      sload\n      swap1\n      0x0100\n      exp\n      swap1\n      div\n      0xffffffffffffffffffffffffffffffffffffffff\n      and\n      dup2\n      jump\t// out\n        /* \"@openzeppelin/contracts/security/ReentrancyGuard.sol\":2336:2623  function _nonReentrantBefore() private {... */\n    tag_76:\n        /* \"@openzeppelin/contracts/security/ReentrancyGuard.sol\":1759:1760  2 */\n      0x02\n        /* \"@openzeppelin/contracts/security/ReentrancyGuard.sol\":2468:2475  _status */\n      sload(0x01)\n        /* \"@openzeppelin/contracts/security/ReentrancyGuard.sol\":2468:2487  _status != _ENTERED */\n      sub\n        /* \"@openzeppelin/contracts/security/ReentrancyGuard.sol\":2460:2523  require(_status != _ENTERED, \"ReentrancyGuard: reentrant call\") */\n      tag_168\n      jumpi\n      mload(0x40)\n      0x08c379a000000000000000000000000000000000000000000000000000000000\n      dup2\n      mstore\n      0x04\n      add\n      tag_169\n      swap1\n      tag_170\n      jump\t// in\n    tag_169:\n      mload(0x40)\n      dup1\n      swap2\n      sub\n      swap1\n      revert\n    tag_168:\n        /* \"@openzeppelin/contracts/security/ReentrancyGuard.sol\":1759:1760  2 */\n      0x02\n        /* \"@openzeppelin/contracts/security/ReentrancyGuard.sol\":2598:2605  _status */\n      0x01\n        /* \"@openzeppelin/contracts/security/ReentrancyGuard.sol\":2598:2616  _status = _ENTERED */\n      dup2\n      swap1\n      sstore\n      pop\n        /* \"@openzeppelin/contracts/security/ReentrancyGuard.sol\":2336:2623  function _nonReentrantBefore() private {... */\n      jump\t// out\n        /* \"contracts/staking edu/staking.sol\":4830:5093  function _updateReward(address _user) internal returns (uint256) {... */\n    tag_89:\n        /* \"contracts/staking edu/staking.sol\":4886:4893  uint256 */\n      0x00\n        /* \"contracts/staking edu/staking.sol\":4906:4920  uint256 reward */\n      dup1\n        /* \"contracts/staking edu/staking.sol\":4923:4943  pendingReward(_user) */\n      tag_172\n        /* \"contracts/staking edu/staking.sol\":4937:4942  _user */\n      dup4\n        /* \"contracts/staking edu/staking.sol\":4923:4936  pendingReward */\n      tag_69\n        /* \"contracts/staking edu/staking.sol\":4923:4943  pendingReward(_user) */\n      jump\t// in\n    tag_172:\n        /* \"contracts/staking edu/staking.sol\":4906:4943  uint256 reward = pendingReward(_user) */\n      swap1\n      pop\n        /* \"contracts/staking edu/staking.sol\":4977:4978  0 */\n      0x00\n        /* \"contracts/staking edu/staking.sol\":4968:4974  reward */\n      dup2\n        /* \"contracts/staking edu/staking.sol\":4968:4978  reward > 0 */\n      gt\n        /* \"contracts/staking edu/staking.sol\":4964:5052  if (reward > 0) {... */\n      iszero\n      tag_173\n      jumpi\n        /* \"contracts/staking edu/staking.sol\":5025:5040  block.timestamp */\n      timestamp\n        /* \"contracts/staking edu/staking.sol\":4995:5001  stakes */\n      0x05\n        /* \"contracts/staking edu/staking.sol\":4995:5008  stakes[_user] */\n      0x00\n        /* \"contracts/staking edu/staking.sol\":5002:5007  _user */\n      dup6\n        /* \"contracts/staking edu/staking.sol\":4995:5008  stakes[_user] */\n      0xffffffffffffffffffffffffffffffffffffffff\n      and\n      0xffffffffffffffffffffffffffffffffffffffff\n      and\n      dup2\n      mstore\n      0x20\n      add\n      swap1\n      dup2\n      mstore\n      0x20\n      add\n      0x00\n      keccak256\n        /* \"contracts/staking edu/staking.sol\":4995:5022  stakes[_user].lastClaimTime */\n      0x02\n      add\n        /* \"contracts/staking edu/staking.sol\":4995:5040  stakes[_user].lastClaimTime = block.timestamp */\n      dup2\n      swap1\n      sstore\n      pop\n        /* \"contracts/staking edu/staking.sol\":4964:5052  if (reward > 0) {... */\n    tag_173:\n        /* \"contracts/staking edu/staking.sol\":5079:5085  reward */\n      dup1\n        /* \"contracts/staking edu/staking.sol\":5072:5085  return reward */\n      swap2\n      pop\n      pop\n        /* \"contracts/staking edu/staking.sol\":4830:5093  function _updateReward(address _user) internal returns (uint256) {... */\n      swap2\n      swap1\n      pop\n      jump\t// out\n        /* \"@openzeppelin/contracts/security/ReentrancyGuard.sol\":2629:2838  function _nonReentrantAfter() private {... */\n    tag_105:\n        /* \"@openzeppelin/contracts/security/ReentrancyGuard.sol\":1716:1717  1 */\n      0x01\n        /* \"@openzeppelin/contracts/security/ReentrancyGuard.sol\":2809:2816  _status */\n      dup1\n        /* \"@openzeppelin/contracts/security/ReentrancyGuard.sol\":2809:2831  _status = _NOT_ENTERED */\n      dup2\n      swap1\n      sstore\n      pop\n        /* \"@openzeppelin/contracts/security/ReentrancyGuard.sol\":2629:2838  function _nonReentrantAfter() private {... */\n      jump\t// out\n        /* \"@openzeppelin/contracts/access/Ownable.sol\":1796:1958  function _checkOwner() internal view virtual {... */\n    tag_108:\n        /* \"@openzeppelin/contracts/access/Ownable.sol\":1866:1878  _msgSender() */\n      tag_176\n        /* \"@openzeppelin/contracts/access/Ownable.sol\":1866:1876  _msgSender */\n      tag_177\n        /* \"@openzeppelin/contracts/access/Ownable.sol\":1866:1878  _msgSender() */\n      jump\t// in\n    tag_176:\n        /* \"@openzeppelin/contracts/access/Ownable.sol\":1855:1878  owner() != _msgSender() */\n      0xffffffffffffffffffffffffffffffffffffffff\n      and\n        /* \"@openzeppelin/contracts/access/Ownable.sol\":1855:1862  owner() */\n      tag_178\n        /* \"@openzeppelin/contracts/access/Ownable.sol\":1855:1860  owner */\n      tag_48\n        /* \"@openzeppelin/contracts/access/Ownable.sol\":1855:1862  owner() */\n      jump\t// in\n    tag_178:\n        /* \"@openzeppelin/contracts/access/Ownable.sol\":1855:1878  owner() != _msgSender() */\n      0xffffffffffffffffffffffffffffffffffffffff\n      and\n      eq\n        /* \"@openzeppelin/contracts/access/Ownable.sol\":1851:1952  if (owner() != _msgSender()) {... */\n      tag_179\n      jumpi\n        /* \"@openzeppelin/contracts/access/Ownable.sol\":1928:1940  _msgSender() */\n      tag_180\n        /* \"@openzeppelin/contracts/access/Ownable.sol\":1928:1938  _msgSender */\n      tag_177\n        /* \"@openzeppelin/contracts/access/Ownable.sol\":1928:1940  _msgSender() */\n      jump\t// in\n    tag_180:\n        /* \"@openzeppelin/contracts/access/Ownable.sol\":1901:1941  OwnableUnauthorizedAccount(_msgSender()) */\n      mload(0x40)\n      0x118cdaa700000000000000000000000000000000000000000000000000000000\n      dup2\n      mstore\n      0x04\n      add\n      tag_181\n      swap2\n      swap1\n      tag_50\n      jump\t// in\n    tag_181:\n      mload(0x40)\n      dup1\n      swap2\n      sub\n      swap1\n      revert\n        /* \"@openzeppelin/contracts/access/Ownable.sol\":1851:1952  if (owner() != _msgSender()) {... */\n    tag_179:\n        /* \"@openzeppelin/contracts/access/Ownable.sol\":1796:1958  function _checkOwner() internal view virtual {... */\n      jump\t// out\n        /* \"@openzeppelin/contracts/access/Ownable.sol\":2912:3099  function _transferOwnership(address newOwner) internal virtual {... */\n    tag_111:\n        /* \"@openzeppelin/contracts/access/Ownable.sol\":2985:3001  address oldOwner */\n      0x00\n        /* \"@openzeppelin/contracts/access/Ownable.sol\":3004:3010  _owner */\n      dup1\n      0x00\n      swap1\n      sload\n      swap1\n      0x0100\n      exp\n      swap1\n      div\n      0xffffffffffffffffffffffffffffffffffffffff\n      and\n        /* \"@openzeppelin/contracts/access/Ownable.sol\":2985:3010  address oldOwner = _owner */\n      swap1\n      pop\n        /* \"@openzeppelin/contracts/access/Ownable.sol\":3029:3037  newOwner */\n      dup2\n        /* \"@openzeppelin/contracts/access/Ownable.sol\":3020:3026  _owner */\n      0x00\n      dup1\n        /* \"@openzeppelin/contracts/access/Ownable.sol\":3020:3037  _owner = newOwner */\n      0x0100\n      exp\n      dup2\n      sload\n      dup2\n      0xffffffffffffffffffffffffffffffffffffffff\n      mul\n      not\n      and\n      swap1\n      dup4\n      0xffffffffffffffffffffffffffffffffffffffff\n      and\n      mul\n      or\n      swap1\n      sstore\n      pop\n        /* \"@openzeppelin/contracts/access/Ownable.sol\":3083:3091  newOwner */\n      dup2\n        /* \"@openzeppelin/contracts/access/Ownable.sol\":3052:3092  OwnershipTransferred(oldOwner, newOwner) */\n      0xffffffffffffffffffffffffffffffffffffffff\n      and\n        /* \"@openzeppelin/contracts/access/Ownable.sol\":3073:3081  oldOwner */\n      dup2\n        /* \"@openzeppelin/contracts/access/Ownable.sol\":3052:3092  OwnershipTransferred(oldOwner, newOwner) */\n      0xffffffffffffffffffffffffffffffffffffffff\n      and\n      0x8be0079c531659141344cd1fd0a4f28419497f9722a3daafe3b4186f6b6457e0\n      mload(0x40)\n      mload(0x40)\n      dup1\n      swap2\n      sub\n      swap1\n      log3\n        /* \"@openzeppelin/contracts/access/Ownable.sol\":2975:3099  {... */\n      pop\n        /* \"@openzeppelin/contracts/access/Ownable.sol\":2912:3099  function _transferOwnership(address newOwner) internal virtual {... */\n      pop\n      jump\t// out\n        /* \"@openzeppelin/contracts/utils/Context.sol\":656:752  function _msgSender() internal view virtual returns (address) {... */\n    tag_177:\n        /* \"@openzeppelin/contracts/utils/Context.sol\":709:716  address */\n      0x00\n        /* \"@openzeppelin/contracts/utils/Context.sol\":735:745  msg.sender */\n      caller\n        /* \"@openzeppelin/contracts/utils/Context.sol\":728:745  return msg.sender */\n      swap1\n      pop\n        /* \"@openzeppelin/contracts/utils/Context.sol\":656:752  function _msgSender() internal view virtual returns (address) {... */\n      swap1\n      jump\t// out\n        /* \"#utility.yul\":88:205   */\n    tag_185:\n        /* \"#utility.yul\":197:198   */\n      0x00\n        /* \"#utility.yul\":194:195   */\n      dup1\n        /* \"#utility.yul\":187:199   */\n      revert\n        /* \"#utility.yul\":334:460   */\n    tag_187:\n        /* \"#utility.yul\":371:378   */\n      0x00\n        /* \"#utility.yul\":411:453   */\n      0xffffffffffffffffffffffffffffffffffffffff\n        /* \"#utility.yul\":404:409   */\n      dup3\n        /* \"#utility.yul\":400:454   */\n      and\n        /* \"#utility.yul\":389:454   */\n      swap1\n      pop\n        /* \"#utility.yul\":334:460   */\n      swap2\n      swap1\n      pop\n      jump\t// out\n        /* \"#utility.yul\":466:562   */\n    tag_188:\n        /* \"#utility.yul\":503:510   */\n      0x00\n        /* \"#utility.yul\":532:556   */\n      tag_225\n        /* \"#utility.yul\":550:555   */\n      dup3\n        /* \"#utility.yul\":532:556   */\n      tag_187\n      jump\t// in\n    tag_225:\n        /* \"#utility.yul\":521:556   */\n      swap1\n      pop\n        /* \"#utility.yul\":466:562   */\n      swap2\n      swap1\n      pop\n      jump\t// out\n        /* \"#utility.yul\":568:690   */\n    tag_189:\n        /* \"#utility.yul\":641:665   */\n      tag_227\n        /* \"#utility.yul\":659:664   */\n      dup2\n        /* \"#utility.yul\":641:665   */\n      tag_188\n      jump\t// in\n    tag_227:\n        /* \"#utility.yul\":634:639   */\n      dup2\n        /* \"#utility.yul\":631:666   */\n      eq\n        /* \"#utility.yul\":621:684   */\n      tag_228\n      jumpi\n        /* \"#utility.yul\":680:681   */\n      0x00\n        /* \"#utility.yul\":677:678   */\n      dup1\n        /* \"#utility.yul\":670:682   */\n      revert\n        /* \"#utility.yul\":621:684   */\n    tag_228:\n        /* \"#utility.yul\":568:690   */\n      pop\n      jump\t// out\n        /* \"#utility.yul\":696:835   */\n    tag_190:\n        /* \"#utility.yul\":742:747   */\n      0x00\n        /* \"#utility.yul\":780:786   */\n      dup2\n        /* \"#utility.yul\":767:787   */\n      calldataload\n        /* \"#utility.yul\":758:787   */\n      swap1\n      pop\n        /* \"#utility.yul\":796:829   */\n      tag_230\n        /* \"#utility.yul\":823:828   */\n      dup2\n        /* \"#utility.yul\":796:829   */\n      tag_189\n      jump\t// in\n    tag_230:\n        /* \"#utility.yul\":696:835   */\n      swap3\n      swap2\n      pop\n      pop\n      jump\t// out\n        /* \"#utility.yul\":841:1170   */\n    tag_23:\n        /* \"#utility.yul\":900:906   */\n      0x00\n        /* \"#utility.yul\":949:951   */\n      0x20\n        /* \"#utility.yul\":937:946   */\n      dup3\n        /* \"#utility.yul\":928:935   */\n      dup5\n        /* \"#utility.yul\":924:947   */\n      sub\n        /* \"#utility.yul\":920:952   */\n      slt\n        /* \"#utility.yul\":917:1036   */\n      iszero\n      tag_232\n      jumpi\n        /* \"#utility.yul\":955:1034   */\n      tag_233\n      tag_185\n      jump\t// in\n    tag_233:\n        /* \"#utility.yul\":917:1036   */\n    tag_232:\n        /* \"#utility.yul\":1075:1076   */\n      0x00\n        /* \"#utility.yul\":1100:1153   */\n      tag_234\n        /* \"#utility.yul\":1145:1152   */\n      dup5\n        /* \"#utility.yul\":1136:1142   */\n      dup3\n        /* \"#utility.yul\":1125:1134   */\n      dup6\n        /* \"#utility.yul\":1121:1143   */\n      add\n        /* \"#utility.yul\":1100:1153   */\n      tag_190\n      jump\t// in\n    tag_234:\n        /* \"#utility.yul\":1090:1153   */\n      swap2\n      pop\n        /* \"#utility.yul\":1046:1163   */\n      pop\n        /* \"#utility.yul\":841:1170   */\n      swap3\n      swap2\n      pop\n      pop\n      jump\t// out\n        /* \"#utility.yul\":1176:1253   */\n    tag_191:\n        /* \"#utility.yul\":1213:1220   */\n      0x00\n        /* \"#utility.yul\":1242:1247   */\n      dup2\n        /* \"#utility.yul\":1231:1247   */\n      swap1\n      pop\n        /* \"#utility.yul\":1176:1253   */\n      swap2\n      swap1\n      pop\n      jump\t// out\n        /* \"#utility.yul\":1259:1377   */\n    tag_192:\n        /* \"#utility.yul\":1346:1370   */\n      tag_237\n        /* \"#utility.yul\":1364:1369   */\n      dup2\n        /* \"#utility.yul\":1346:1370   */\n      tag_191\n      jump\t// in\n    tag_237:\n        /* \"#utility.yul\":1341:1344   */\n      dup3\n        /* \"#utility.yul\":1334:1371   */\n      mstore\n        /* \"#utility.yul\":1259:1377   */\n      pop\n      pop\n      jump\t// out\n        /* \"#utility.yul\":1383:1825   */\n    tag_26:\n        /* \"#utility.yul\":1532:1536   */\n      0x00\n        /* \"#utility.yul\":1570:1572   */\n      0x60\n        /* \"#utility.yul\":1559:1568   */\n      dup3\n        /* \"#utility.yul\":1555:1573   */\n      add\n        /* \"#utility.yul\":1547:1573   */\n      swap1\n      pop\n        /* \"#utility.yul\":1583:1654   */\n      tag_239\n        /* \"#utility.yul\":1651:1652   */\n      0x00\n        /* \"#utility.yul\":1640:1649   */\n      dup4\n        /* \"#utility.yul\":1636:1653   */\n      add\n        /* \"#utility.yul\":1627:1633   */\n      dup7\n        /* \"#utility.yul\":1583:1654   */\n      tag_192\n      jump\t// in\n    tag_239:\n        /* \"#utility.yul\":1664:1736   */\n      tag_240\n        /* \"#utility.yul\":1732:1734   */\n      0x20\n        /* \"#utility.yul\":1721:1730   */\n      dup4\n        /* \"#utility.yul\":1717:1735   */\n      add\n        /* \"#utility.yul\":1708:1714   */\n      dup6\n        /* \"#utility.yul\":1664:1736   */\n      tag_192\n      jump\t// in\n    tag_240:\n        /* \"#utility.yul\":1746:1818   */\n      tag_241\n        /* \"#utility.yul\":1814:1816   */\n      0x40\n        /* \"#utility.yul\":1803:1812   */\n      dup4\n        /* \"#utility.yul\":1799:1817   */\n      add\n        /* \"#utility.yul\":1790:1796   */\n      dup5\n        /* \"#utility.yul\":1746:1818   */\n      tag_192\n      jump\t// in\n    tag_241:\n        /* \"#utility.yul\":1383:1825   */\n      swap5\n      swap4\n      pop\n      pop\n      pop\n      pop\n      jump\t// out\n        /* \"#utility.yul\":1831:2053   */\n    tag_30:\n        /* \"#utility.yul\":1924:1928   */\n      0x00\n        /* \"#utility.yul\":1962:1964   */\n      0x20\n        /* \"#utility.yul\":1951:1960   */\n      dup3\n        /* \"#utility.yul\":1947:1965   */\n      add\n        /* \"#utility.yul\":1939:1965   */\n      swap1\n      pop\n        /* \"#utility.yul\":1975:2046   */\n      tag_243\n        /* \"#utility.yul\":2043:2044   */\n      0x00\n        /* \"#utility.yul\":2032:2041   */\n      dup4\n        /* \"#utility.yul\":2028:2045   */\n      add\n        /* \"#utility.yul\":2019:2025   */\n      dup5\n        /* \"#utility.yul\":1975:2046   */\n      tag_192\n      jump\t// in\n    tag_243:\n        /* \"#utility.yul\":1831:2053   */\n      swap3\n      swap2\n      pop\n      pop\n      jump\t// out\n        /* \"#utility.yul\":2059:2181   */\n    tag_193:\n        /* \"#utility.yul\":2132:2156   */\n      tag_245\n        /* \"#utility.yul\":2150:2155   */\n      dup2\n        /* \"#utility.yul\":2132:2156   */\n      tag_191\n      jump\t// in\n    tag_245:\n        /* \"#utility.yul\":2125:2130   */\n      dup2\n        /* \"#utility.yul\":2122:2157   */\n      eq\n        /* \"#utility.yul\":2112:2175   */\n      tag_246\n      jumpi\n        /* \"#utility.yul\":2171:2172   */\n      0x00\n        /* \"#utility.yul\":2168:2169   */\n      dup1\n        /* \"#utility.yul\":2161:2173   */\n      revert\n        /* \"#utility.yul\":2112:2175   */\n    tag_246:\n        /* \"#utility.yul\":2059:2181   */\n      pop\n      jump\t// out\n        /* \"#utility.yul\":2187:2326   */\n    tag_194:\n        /* \"#utility.yul\":2233:2238   */\n      0x00\n        /* \"#utility.yul\":2271:2277   */\n      dup2\n        /* \"#utility.yul\":2258:2278   */\n      calldataload\n        /* \"#utility.yul\":2249:2278   */\n      swap1\n      pop\n        /* \"#utility.yul\":2287:2320   */\n      tag_248\n        /* \"#utility.yul\":2314:2319   */\n      dup2\n        /* \"#utility.yul\":2287:2320   */\n      tag_193\n      jump\t// in\n    tag_248:\n        /* \"#utility.yul\":2187:2326   */\n      swap3\n      swap2\n      pop\n      pop\n      jump\t// out\n        /* \"#utility.yul\":2332:2661   */\n    tag_33:\n        /* \"#utility.yul\":2391:2397   */\n      0x00\n        /* \"#utility.yul\":2440:2442   */\n      0x20\n        /* \"#utility.yul\":2428:2437   */\n      dup3\n        /* \"#utility.yul\":2419:2426   */\n      dup5\n        /* \"#utility.yul\":2415:2438   */\n      sub\n        /* \"#utility.yul\":2411:2443   */\n      slt\n        /* \"#utility.yul\":2408:2527   */\n      iszero\n      tag_250\n      jumpi\n        /* \"#utility.yul\":2446:2525   */\n      tag_251\n      tag_185\n      jump\t// in\n    tag_251:\n        /* \"#utility.yul\":2408:2527   */\n    tag_250:\n        /* \"#utility.yul\":2566:2567   */\n      0x00\n        /* \"#utility.yul\":2591:2644   */\n      tag_252\n        /* \"#utility.yul\":2636:2643   */\n      dup5\n        /* \"#utility.yul\":2627:2633   */\n      dup3\n        /* \"#utility.yul\":2616:2625   */\n      dup6\n        /* \"#utility.yul\":2612:2634   */\n      add\n        /* \"#utility.yul\":2591:2644   */\n      tag_194\n      jump\t// in\n    tag_252:\n        /* \"#utility.yul\":2581:2644   */\n      swap2\n      pop\n        /* \"#utility.yul\":2537:2654   */\n      pop\n        /* \"#utility.yul\":2332:2661   */\n      swap3\n      swap2\n      pop\n      pop\n      jump\t// out\n        /* \"#utility.yul\":2667:2727   */\n    tag_195:\n        /* \"#utility.yul\":2695:2698   */\n      0x00\n        /* \"#utility.yul\":2716:2721   */\n      dup2\n        /* \"#utility.yul\":2709:2721   */\n      swap1\n      pop\n        /* \"#utility.yul\":2667:2727   */\n      swap2\n      swap1\n      pop\n      jump\t// out\n        /* \"#utility.yul\":2733:2875   */\n    tag_196:\n        /* \"#utility.yul\":2783:2792   */\n      0x00\n        /* \"#utility.yul\":2816:2869   */\n      tag_255\n        /* \"#utility.yul\":2834:2868   */\n      tag_256\n        /* \"#utility.yul\":2843:2867   */\n      tag_257\n        /* \"#utility.yul\":2861:2866   */\n      dup5\n        /* \"#utility.yul\":2843:2867   */\n      tag_187\n      jump\t// in\n    tag_257:\n        /* \"#utility.yul\":2834:2868   */\n      tag_195\n      jump\t// in\n    tag_256:\n        /* \"#utility.yul\":2816:2869   */\n      tag_187\n      jump\t// in\n    tag_255:\n        /* \"#utility.yul\":2803:2869   */\n      swap1\n      pop\n        /* \"#utility.yul\":2733:2875   */\n      swap2\n      swap1\n      pop\n      jump\t// out\n        /* \"#utility.yul\":2881:3007   */\n    tag_197:\n        /* \"#utility.yul\":2931:2940   */\n      0x00\n        /* \"#utility.yul\":2964:3001   */\n      tag_259\n        /* \"#utility.yul\":2995:3000   */\n      dup3\n        /* \"#utility.yul\":2964:3001   */\n      tag_196\n      jump\t// in\n    tag_259:\n        /* \"#utility.yul\":2951:3001   */\n      swap1\n      pop\n        /* \"#utility.yul\":2881:3007   */\n      swap2\n      swap1\n      pop\n      jump\t// out\n        /* \"#utility.yul\":3013:3153   */\n    tag_198:\n        /* \"#utility.yul\":3077:3086   */\n      0x00\n        /* \"#utility.yul\":3110:3147   */\n      tag_261\n        /* \"#utility.yul\":3141:3146   */\n      dup3\n        /* \"#utility.yul\":3110:3147   */\n      tag_197\n      jump\t// in\n    tag_261:\n        /* \"#utility.yul\":3097:3147   */\n      swap1\n      pop\n        /* \"#utility.yul\":3013:3153   */\n      swap2\n      swap1\n      pop\n      jump\t// out\n        /* \"#utility.yul\":3159:3318   */\n    tag_199:\n        /* \"#utility.yul\":3260:3311   */\n      tag_263\n        /* \"#utility.yul\":3305:3310   */\n      dup2\n        /* \"#utility.yul\":3260:3311   */\n      tag_198\n      jump\t// in\n    tag_263:\n        /* \"#utility.yul\":3255:3258   */\n      dup3\n        /* \"#utility.yul\":3248:3312   */\n      mstore\n        /* \"#utility.yul\":3159:3318   */\n      pop\n      pop\n      jump\t// out\n        /* \"#utility.yul\":3324:3574   */\n    tag_40:\n        /* \"#utility.yul\":3431:3435   */\n      0x00\n        /* \"#utility.yul\":3469:3471   */\n      0x20\n        /* \"#utility.yul\":3458:3467   */\n      dup3\n        /* \"#utility.yul\":3454:3472   */\n      add\n        /* \"#utility.yul\":3446:3472   */\n      swap1\n      pop\n        /* \"#utility.yul\":3482:3567   */\n      tag_265\n        /* \"#utility.yul\":3564:3565   */\n      0x00\n        /* \"#utility.yul\":3553:3562   */\n      dup4\n        /* \"#utility.yul\":3549:3566   */\n      add\n        /* \"#utility.yul\":3540:3546   */\n      dup5\n        /* \"#utility.yul\":3482:3567   */\n      tag_199\n      jump\t// in\n    tag_265:\n        /* \"#utility.yul\":3324:3574   */\n      swap3\n      swap2\n      pop\n      pop\n      jump\t// out\n        /* \"#utility.yul\":3580:3698   */\n    tag_200:\n        /* \"#utility.yul\":3667:3691   */\n      tag_267\n        /* \"#utility.yul\":3685:3690   */\n      dup2\n        /* \"#utility.yul\":3667:3691   */\n      tag_188\n      jump\t// in\n    tag_267:\n        /* \"#utility.yul\":3662:3665   */\n      dup3\n        /* \"#utility.yul\":3655:3692   */\n      mstore\n        /* \"#utility.yul\":3580:3698   */\n      pop\n      pop\n      jump\t// out\n        /* \"#utility.yul\":3704:3926   */\n    tag_50:\n        /* \"#utility.yul\":3797:3801   */\n      0x00\n        /* \"#utility.yul\":3835:3837   */\n      0x20\n        /* \"#utility.yul\":3824:3833   */\n      dup3\n        /* \"#utility.yul\":3820:3838   */\n      add\n        /* \"#utility.yul\":3812:3838   */\n      swap1\n      pop\n        /* \"#utility.yul\":3848:3919   */\n      tag_269\n        /* \"#utility.yul\":3916:3917   */\n      0x00\n        /* \"#utility.yul\":3905:3914   */\n      dup4\n        /* \"#utility.yul\":3901:3918   */\n      add\n        /* \"#utility.yul\":3892:3898   */\n      dup5\n        /* \"#utility.yul\":3848:3919   */\n      tag_200\n      jump\t// in\n    tag_269:\n        /* \"#utility.yul\":3704:3926   */\n      swap3\n      swap2\n      pop\n      pop\n      jump\t// out\n        /* \"#utility.yul\":3932:4485   */\n    tag_63:\n        /* \"#utility.yul\":4109:4113   */\n      0x00\n        /* \"#utility.yul\":4147:4150   */\n      0x80\n        /* \"#utility.yul\":4136:4145   */\n      dup3\n        /* \"#utility.yul\":4132:4151   */\n      add\n        /* \"#utility.yul\":4124:4151   */\n      swap1\n      pop\n        /* \"#utility.yul\":4161:4232   */\n      tag_271\n        /* \"#utility.yul\":4229:4230   */\n      0x00\n        /* \"#utility.yul\":4218:4227   */\n      dup4\n        /* \"#utility.yul\":4214:4231   */\n      add\n        /* \"#utility.yul\":4205:4211   */\n      dup8\n        /* \"#utility.yul\":4161:4232   */\n      tag_192\n      jump\t// in\n    tag_271:\n        /* \"#utility.yul\":4242:4314   */\n      tag_272\n        /* \"#utility.yul\":4310:4312   */\n      0x20\n        /* \"#utility.yul\":4299:4308   */\n      dup4\n        /* \"#utility.yul\":4295:4313   */\n      add\n        /* \"#utility.yul\":4286:4292   */\n      dup7\n        /* \"#utility.yul\":4242:4314   */\n      tag_192\n      jump\t// in\n    tag_272:\n        /* \"#utility.yul\":4324:4396   */\n      tag_273\n        /* \"#utility.yul\":4392:4394   */\n      0x40\n        /* \"#utility.yul\":4381:4390   */\n      dup4\n        /* \"#utility.yul\":4377:4395   */\n      add\n        /* \"#utility.yul\":4368:4374   */\n      dup6\n        /* \"#utility.yul\":4324:4396   */\n      tag_192\n      jump\t// in\n    tag_273:\n        /* \"#utility.yul\":4406:4478   */\n      tag_274\n        /* \"#utility.yul\":4474:4476   */\n      0x60\n        /* \"#utility.yul\":4463:4472   */\n      dup4\n        /* \"#utility.yul\":4459:4477   */\n      add\n        /* \"#utility.yul\":4450:4456   */\n      dup5\n        /* \"#utility.yul\":4406:4478   */\n      tag_192\n      jump\t// in\n    tag_274:\n        /* \"#utility.yul\":3932:4485   */\n      swap6\n      swap5\n      pop\n      pop\n      pop\n      pop\n      pop\n      jump\t// out\n        /* \"#utility.yul\":4491:4671   */\n    tag_201:\n        /* \"#utility.yul\":4539:4616   */\n      0x4e487b7100000000000000000000000000000000000000000000000000000000\n        /* \"#utility.yul\":4536:4537   */\n      0x00\n        /* \"#utility.yul\":4529:4617   */\n      mstore\n        /* \"#utility.yul\":4636:4640   */\n      0x11\n        /* \"#utility.yul\":4633:4634   */\n      0x04\n        /* \"#utility.yul\":4626:4641   */\n      mstore\n        /* \"#utility.yul\":4660:4664   */\n      0x24\n        /* \"#utility.yul\":4657:4658   */\n      0x00\n        /* \"#utility.yul\":4650:4665   */\n      revert\n        /* \"#utility.yul\":4677:5087   */\n    tag_79:\n        /* \"#utility.yul\":4717:4724   */\n      0x00\n        /* \"#utility.yul\":4740:4760   */\n      tag_277\n        /* \"#utility.yul\":4758:4759   */\n      dup3\n        /* \"#utility.yul\":4740:4760   */\n      tag_191\n      jump\t// in\n    tag_277:\n        /* \"#utility.yul\":4735:4760   */\n      swap2\n      pop\n        /* \"#utility.yul\":4774:4794   */\n      tag_278\n        /* \"#utility.yul\":4792:4793   */\n      dup4\n        /* \"#utility.yul\":4774:4794   */\n      tag_191\n      jump\t// in\n    tag_278:\n        /* \"#utility.yul\":4769:4794   */\n      swap3\n      pop\n        /* \"#utility.yul\":4829:4830   */\n      dup3\n        /* \"#utility.yul\":4826:4827   */\n      dup3\n        /* \"#utility.yul\":4822:4831   */\n      mul\n        /* \"#utility.yul\":4851:4881   */\n      tag_279\n        /* \"#utility.yul\":4869:4880   */\n      dup2\n        /* \"#utility.yul\":4851:4881   */\n      tag_191\n      jump\t// in\n    tag_279:\n        /* \"#utility.yul\":4840:4881   */\n      swap2\n      pop\n        /* \"#utility.yul\":5030:5031   */\n      dup3\n        /* \"#utility.yul\":5021:5028   */\n      dup3\n        /* \"#utility.yul\":5017:5032   */\n      div\n        /* \"#utility.yul\":5014:5015   */\n      dup5\n        /* \"#utility.yul\":5011:5033   */\n      eq\n        /* \"#utility.yul\":4991:4992   */\n      dup4\n        /* \"#utility.yul\":4984:4993   */\n      iszero\n        /* \"#utility.yul\":4964:5047   */\n      or\n        /* \"#utility.yul\":4941:5080   */\n      tag_280\n      jumpi\n        /* \"#utility.yul\":5060:5078   */\n      tag_281\n      tag_201\n      jump\t// in\n    tag_281:\n        /* \"#utility.yul\":4941:5080   */\n    tag_280:\n        /* \"#utility.yul\":4725:5087   */\n      pop\n        /* \"#utility.yul\":4677:5087   */\n      swap3\n      swap2\n      pop\n      pop\n      jump\t// out\n        /* \"#utility.yul\":5093:5262   */\n    tag_202:\n        /* \"#utility.yul\":5177:5188   */\n      0x00\n        /* \"#utility.yul\":5211:5217   */\n      dup3\n        /* \"#utility.yul\":5206:5209   */\n      dup3\n        /* \"#utility.yul\":5199:5218   */\n      mstore\n        /* \"#utility.yul\":5251:5255   */\n      0x20\n        /* \"#utility.yul\":5246:5249   */\n      dup3\n        /* \"#utility.yul\":5242:5256   */\n      add\n        /* \"#utility.yul\":5227:5256   */\n      swap1\n      pop\n        /* \"#utility.yul\":5093:5262   */\n      swap3\n      swap2\n      pop\n      pop\n      jump\t// out\n        /* \"#utility.yul\":5268:5444   */\n    tag_203:\n        /* \"#utility.yul\":5408:5436   */\n      0x496e73756666696369656e74207374616b656420616d6f756e74000000000000\n        /* \"#utility.yul\":5404:5405   */\n      0x00\n        /* \"#utility.yul\":5396:5402   */\n      dup3\n        /* \"#utility.yul\":5392:5406   */\n      add\n        /* \"#utility.yul\":5385:5437   */\n      mstore\n        /* \"#utility.yul\":5268:5444   */\n      pop\n      jump\t// out\n        /* \"#utility.yul\":5450:5816   */\n    tag_204:\n        /* \"#utility.yul\":5592:5595   */\n      0x00\n        /* \"#utility.yul\":5613:5680   */\n      tag_285\n        /* \"#utility.yul\":5677:5679   */\n      0x1a\n        /* \"#utility.yul\":5672:5675   */\n      dup4\n        /* \"#utility.yul\":5613:5680   */\n      tag_202\n      jump\t// in\n    tag_285:\n        /* \"#utility.yul\":5606:5680   */\n      swap2\n      pop\n        /* \"#utility.yul\":5689:5782   */\n      tag_286\n        /* \"#utility.yul\":5778:5781   */\n      dup3\n        /* \"#utility.yul\":5689:5782   */\n      tag_203\n      jump\t// in\n    tag_286:\n        /* \"#utility.yul\":5807:5809   */\n      0x20\n        /* \"#utility.yul\":5802:5805   */\n      dup3\n        /* \"#utility.yul\":5798:5810   */\n      add\n        /* \"#utility.yul\":5791:5810   */\n      swap1\n      pop\n        /* \"#utility.yul\":5450:5816   */\n      swap2\n      swap1\n      pop\n      jump\t// out\n        /* \"#utility.yul\":5822:6241   */\n    tag_82:\n        /* \"#utility.yul\":5988:5992   */\n      0x00\n        /* \"#utility.yul\":6026:6028   */\n      0x20\n        /* \"#utility.yul\":6015:6024   */\n      dup3\n        /* \"#utility.yul\":6011:6029   */\n      add\n        /* \"#utility.yul\":6003:6029   */\n      swap1\n      pop\n        /* \"#utility.yul\":6075:6084   */\n      dup2\n        /* \"#utility.yul\":6069:6073   */\n      dup2\n        /* \"#utility.yul\":6065:6085   */\n      sub\n        /* \"#utility.yul\":6061:6062   */\n      0x00\n        /* \"#utility.yul\":6050:6059   */\n      dup4\n        /* \"#utility.yul\":6046:6063   */\n      add\n        /* \"#utility.yul\":6039:6086   */\n      mstore\n        /* \"#utility.yul\":6103:6234   */\n      tag_288\n        /* \"#utility.yul\":6229:6233   */\n      dup2\n        /* \"#utility.yul\":6103:6234   */\n      tag_204\n      jump\t// in\n    tag_288:\n        /* \"#utility.yul\":6095:6234   */\n      swap1\n      pop\n        /* \"#utility.yul\":5822:6241   */\n      swap2\n      swap1\n      pop\n      jump\t// out\n        /* \"#utility.yul\":6247:6438   */\n    tag_84:\n        /* \"#utility.yul\":6287:6290   */\n      0x00\n        /* \"#utility.yul\":6306:6326   */\n      tag_290\n        /* \"#utility.yul\":6324:6325   */\n      dup3\n        /* \"#utility.yul\":6306:6326   */\n      tag_191\n      jump\t// in\n    tag_290:\n        /* \"#utility.yul\":6301:6326   */\n      swap2\n      pop\n        /* \"#utility.yul\":6340:6360   */\n      tag_291\n        /* \"#utility.yul\":6358:6359   */\n      dup4\n        /* \"#utility.yul\":6340:6360   */\n      tag_191\n      jump\t// in\n    tag_291:\n        /* \"#utility.yul\":6335:6360   */\n      swap3\n      pop\n        /* \"#utility.yul\":6383:6384   */\n      dup3\n        /* \"#utility.yul\":6380:6381   */\n      dup3\n        /* \"#utility.yul\":6376:6385   */\n      add\n        /* \"#utility.yul\":6369:6385   */\n      swap1\n      pop\n        /* \"#utility.yul\":6404:6407   */\n      dup1\n        /* \"#utility.yul\":6401:6402   */\n      dup3\n        /* \"#utility.yul\":6398:6408   */\n      gt\n        /* \"#utility.yul\":6395:6431   */\n      iszero\n      tag_292\n      jumpi\n        /* \"#utility.yul\":6411:6429   */\n      tag_293\n      tag_201\n      jump\t// in\n    tag_293:\n        /* \"#utility.yul\":6395:6431   */\n    tag_292:\n        /* \"#utility.yul\":6247:6438   */\n      swap3\n      swap2\n      pop\n      pop\n      jump\t// out\n        /* \"#utility.yul\":6444:6615   */\n    tag_205:\n        /* \"#utility.yul\":6584:6607   */\n      0x4c6f636b20706572696f64206e6f7420656e6465640000000000000000000000\n        /* \"#utility.yul\":6580:6581   */\n      0x00\n        /* \"#utility.yul\":6572:6578   */\n      dup3\n        /* \"#utility.yul\":6568:6582   */\n      add\n        /* \"#utility.yul\":6561:6608   */\n      mstore\n        /* \"#utility.yul\":6444:6615   */\n      pop\n      jump\t// out\n        /* \"#utility.yul\":6621:6987   */\n    tag_206:\n        /* \"#utility.yul\":6763:6766   */\n      0x00\n        /* \"#utility.yul\":6784:6851   */\n      tag_296\n        /* \"#utility.yul\":6848:6850   */\n      0x15\n        /* \"#utility.yul\":6843:6846   */\n      dup4\n        /* \"#utility.yul\":6784:6851   */\n      tag_202\n      jump\t// in\n    tag_296:\n        /* \"#utility.yul\":6777:6851   */\n      swap2\n      pop\n        /* \"#utility.yul\":6860:6953   */\n      tag_297\n        /* \"#utility.yul\":6949:6952   */\n      dup3\n        /* \"#utility.yul\":6860:6953   */\n      tag_205\n      jump\t// in\n    tag_297:\n        /* \"#utility.yul\":6978:6980   */\n      0x20\n        /* \"#utility.yul\":6973:6976   */\n      dup3\n        /* \"#utility.yul\":6969:6981   */\n      add\n        /* \"#utility.yul\":6962:6981   */\n      swap1\n      pop\n        /* \"#utility.yul\":6621:6987   */\n      swap2\n      swap1\n      pop\n      jump\t// out\n        /* \"#utility.yul\":6993:7412   */\n    tag_87:\n        /* \"#utility.yul\":7159:7163   */\n      0x00\n        /* \"#utility.yul\":7197:7199   */\n      0x20\n        /* \"#utility.yul\":7186:7195   */\n      dup3\n        /* \"#utility.yul\":7182:7200   */\n      add\n        /* \"#utility.yul\":7174:7200   */\n      swap1\n      pop\n        /* \"#utility.yul\":7246:7255   */\n      dup2\n        /* \"#utility.yul\":7240:7244   */\n      dup2\n        /* \"#utility.yul\":7236:7256   */\n      sub\n        /* \"#utility.yul\":7232:7233   */\n      0x00\n        /* \"#utility.yul\":7221:7230   */\n      dup4\n        /* \"#utility.yul\":7217:7234   */\n      add\n        /* \"#utility.yul\":7210:7257   */\n      mstore\n        /* \"#utility.yul\":7274:7405   */\n      tag_299\n        /* \"#utility.yul\":7400:7404   */\n      dup2\n        /* \"#utility.yul\":7274:7405   */\n      tag_206\n      jump\t// in\n    tag_299:\n        /* \"#utility.yul\":7266:7405   */\n      swap1\n      pop\n        /* \"#utility.yul\":6993:7412   */\n      swap2\n      swap1\n      pop\n      jump\t// out\n        /* \"#utility.yul\":7418:7612   */\n    tag_91:\n        /* \"#utility.yul\":7458:7462   */\n      0x00\n        /* \"#utility.yul\":7478:7498   */\n      tag_301\n        /* \"#utility.yul\":7496:7497   */\n      dup3\n        /* \"#utility.yul\":7478:7498   */\n      tag_191\n      jump\t// in\n    tag_301:\n        /* \"#utility.yul\":7473:7498   */\n      swap2\n      pop\n        /* \"#utility.yul\":7512:7532   */\n      tag_302\n        /* \"#utility.yul\":7530:7531   */\n      dup4\n        /* \"#utility.yul\":7512:7532   */\n      tag_191\n      jump\t// in\n    tag_302:\n        /* \"#utility.yul\":7507:7532   */\n      swap3\n      pop\n        /* \"#utility.yul\":7556:7557   */\n      dup3\n        /* \"#utility.yul\":7553:7554   */\n      dup3\n        /* \"#utility.yul\":7549:7558   */\n      sub\n        /* \"#utility.yul\":7541:7558   */\n      swap1\n      pop\n        /* \"#utility.yul\":7580:7581   */\n      dup2\n        /* \"#utility.yul\":7574:7578   */\n      dup2\n        /* \"#utility.yul\":7571:7582   */\n      gt\n        /* \"#utility.yul\":7568:7605   */\n      iszero\n      tag_303\n      jumpi\n        /* \"#utility.yul\":7585:7603   */\n      tag_304\n      tag_201\n      jump\t// in\n    tag_304:\n        /* \"#utility.yul\":7568:7605   */\n    tag_303:\n        /* \"#utility.yul\":7418:7612   */\n      swap3\n      swap2\n      pop\n      pop\n      jump\t// out\n        /* \"#utility.yul\":7618:7950   */\n    tag_95:\n        /* \"#utility.yul\":7739:7743   */\n      0x00\n        /* \"#utility.yul\":7777:7779   */\n      0x40\n        /* \"#utility.yul\":7766:7775   */\n      dup3\n        /* \"#utility.yul\":7762:7780   */\n      add\n        /* \"#utility.yul\":7754:7780   */\n      swap1\n      pop\n        /* \"#utility.yul\":7790:7861   */\n      tag_306\n        /* \"#utility.yul\":7858:7859   */\n      0x00\n        /* \"#utility.yul\":7847:7856   */\n      dup4\n        /* \"#utility.yul\":7843:7860   */\n      add\n        /* \"#utility.yul\":7834:7840   */\n      dup6\n        /* \"#utility.yul\":7790:7861   */\n      tag_200\n      jump\t// in\n    tag_306:\n        /* \"#utility.yul\":7871:7943   */\n      tag_307\n        /* \"#utility.yul\":7939:7941   */\n      0x20\n        /* \"#utility.yul\":7928:7937   */\n      dup4\n        /* \"#utility.yul\":7924:7942   */\n      add\n        /* \"#utility.yul\":7915:7921   */\n      dup5\n        /* \"#utility.yul\":7871:7943   */\n      tag_192\n      jump\t// in\n    tag_307:\n        /* \"#utility.yul\":7618:7950   */\n      swap4\n      swap3\n      pop\n      pop\n      pop\n      jump\t// out\n        /* \"#utility.yul\":7956:8046   */\n    tag_207:\n        /* \"#utility.yul\":7990:7997   */\n      0x00\n        /* \"#utility.yul\":8033:8038   */\n      dup2\n        /* \"#utility.yul\":8026:8039   */\n      iszero\n        /* \"#utility.yul\":8019:8040   */\n      iszero\n        /* \"#utility.yul\":8008:8040   */\n      swap1\n      pop\n        /* \"#utility.yul\":7956:8046   */\n      swap2\n      swap1\n      pop\n      jump\t// out\n        /* \"#utility.yul\":8052:8168   */\n    tag_208:\n        /* \"#utility.yul\":8122:8143   */\n      tag_310\n        /* \"#utility.yul\":8137:8142   */\n      dup2\n        /* \"#utility.yul\":8122:8143   */\n      tag_207\n      jump\t// in\n    tag_310:\n        /* \"#utility.yul\":8115:8120   */\n      dup2\n        /* \"#utility.yul\":8112:8144   */\n      eq\n        /* \"#utility.yul\":8102:8162   */\n      tag_311\n      jumpi\n        /* \"#utility.yul\":8158:8159   */\n      0x00\n        /* \"#utility.yul\":8155:8156   */\n      dup1\n        /* \"#utility.yul\":8148:8160   */\n      revert\n        /* \"#utility.yul\":8102:8162   */\n    tag_311:\n        /* \"#utility.yul\":8052:8168   */\n      pop\n      jump\t// out\n        /* \"#utility.yul\":8174:8311   */\n    tag_209:\n        /* \"#utility.yul\":8228:8233   */\n      0x00\n        /* \"#utility.yul\":8259:8265   */\n      dup2\n        /* \"#utility.yul\":8253:8266   */\n      mload\n        /* \"#utility.yul\":8244:8266   */\n      swap1\n      pop\n        /* \"#utility.yul\":8275:8305   */\n      tag_313\n        /* \"#utility.yul\":8299:8304   */\n      dup2\n        /* \"#utility.yul\":8275:8305   */\n      tag_208\n      jump\t// in\n    tag_313:\n        /* \"#utility.yul\":8174:8311   */\n      swap3\n      swap2\n      pop\n      pop\n      jump\t// out\n        /* \"#utility.yul\":8317:8662   */\n    tag_99:\n        /* \"#utility.yul\":8384:8390   */\n      0x00\n        /* \"#utility.yul\":8433:8435   */\n      0x20\n        /* \"#utility.yul\":8421:8430   */\n      dup3\n        /* \"#utility.yul\":8412:8419   */\n      dup5\n        /* \"#utility.yul\":8408:8431   */\n      sub\n        /* \"#utility.yul\":8404:8436   */\n      slt\n        /* \"#utility.yul\":8401:8520   */\n      iszero\n      tag_315\n      jumpi\n        /* \"#utility.yul\":8439:8518   */\n      tag_316\n      tag_185\n      jump\t// in\n    tag_316:\n        /* \"#utility.yul\":8401:8520   */\n    tag_315:\n        /* \"#utility.yul\":8559:8560   */\n      0x00\n        /* \"#utility.yul\":8584:8645   */\n      tag_317\n        /* \"#utility.yul\":8637:8644   */\n      dup5\n        /* \"#utility.yul\":8628:8634   */\n      dup3\n        /* \"#utility.yul\":8617:8626   */\n      dup6\n        /* \"#utility.yul\":8613:8635   */\n      add\n        /* \"#utility.yul\":8584:8645   */\n      tag_209\n      jump\t// in\n    tag_317:\n        /* \"#utility.yul\":8574:8645   */\n      swap2\n      pop\n        /* \"#utility.yul\":8530:8655   */\n      pop\n        /* \"#utility.yul\":8317:8662   */\n      swap3\n      swap2\n      pop\n      pop\n      jump\t// out\n        /* \"#utility.yul\":8668:8833   */\n    tag_210:\n        /* \"#utility.yul\":8808:8825   */\n      0x5472616e73666572206661696c65640000000000000000000000000000000000\n        /* \"#utility.yul\":8804:8805   */\n      0x00\n        /* \"#utility.yul\":8796:8802   */\n      dup3\n        /* \"#utility.yul\":8792:8806   */\n      add\n        /* \"#utility.yul\":8785:8826   */\n      mstore\n        /* \"#utility.yul\":8668:8833   */\n      pop\n      jump\t// out\n        /* \"#utility.yul\":8839:9205   */\n    tag_211:\n        /* \"#utility.yul\":8981:8984   */\n      0x00\n        /* \"#utility.yul\":9002:9069   */\n      tag_320\n        /* \"#utility.yul\":9066:9068   */\n      0x0f\n        /* \"#utility.yul\":9061:9064   */\n      dup4\n        /* \"#utility.yul\":9002:9069   */\n      tag_202\n      jump\t// in\n    tag_320:\n        /* \"#utility.yul\":8995:9069   */\n      swap2\n      pop\n        /* \"#utility.yul\":9078:9171   */\n      tag_321\n        /* \"#utility.yul\":9167:9170   */\n      dup3\n        /* \"#utility.yul\":9078:9171   */\n      tag_210\n      jump\t// in\n    tag_321:\n        /* \"#utility.yul\":9196:9198   */\n      0x20\n        /* \"#utility.yul\":9191:9194   */\n      dup3\n        /* \"#utility.yul\":9187:9199   */\n      add\n        /* \"#utility.yul\":9180:9199   */\n      swap1\n      pop\n        /* \"#utility.yul\":8839:9205   */\n      swap2\n      swap1\n      pop\n      jump\t// out\n        /* \"#utility.yul\":9211:9630   */\n    tag_102:\n        /* \"#utility.yul\":9377:9381   */\n      0x00\n        /* \"#utility.yul\":9415:9417   */\n      0x20\n        /* \"#utility.yul\":9404:9413   */\n      dup3\n        /* \"#utility.yul\":9400:9418   */\n      add\n        /* \"#utility.yul\":9392:9418   */\n      swap1\n      pop\n        /* \"#utility.yul\":9464:9473   */\n      dup2\n        /* \"#utility.yul\":9458:9462   */\n      dup2\n        /* \"#utility.yul\":9454:9474   */\n      sub\n        /* \"#utility.yul\":9450:9451   */\n      0x00\n        /* \"#utility.yul\":9439:9448   */\n      dup4\n        /* \"#utility.yul\":9435:9452   */\n      add\n        /* \"#utility.yul\":9428:9475   */\n      mstore\n        /* \"#utility.yul\":9492:9623   */\n      tag_323\n        /* \"#utility.yul\":9618:9622   */\n      dup2\n        /* \"#utility.yul\":9492:9623   */\n      tag_211\n      jump\t// in\n    tag_323:\n        /* \"#utility.yul\":9484:9623   */\n      swap1\n      pop\n        /* \"#utility.yul\":9211:9630   */\n      swap2\n      swap1\n      pop\n      jump\t// out\n        /* \"#utility.yul\":9636:9800   */\n    tag_212:\n        /* \"#utility.yul\":9776:9792   */\n      0x43616e6e6f74207374616b652030000000000000000000000000000000000000\n        /* \"#utility.yul\":9772:9773   */\n      0x00\n        /* \"#utility.yul\":9764:9770   */\n      dup3\n        /* \"#utility.yul\":9760:9774   */\n      add\n        /* \"#utility.yul\":9753:9793   */\n      mstore\n        /* \"#utility.yul\":9636:9800   */\n      pop\n      jump\t// out\n        /* \"#utility.yul\":9806:10172   */\n    tag_213:\n        /* \"#utility.yul\":9948:9951   */\n      0x00\n        /* \"#utility.yul\":9969:10036   */\n      tag_326\n        /* \"#utility.yul\":10033:10035   */\n      0x0e\n        /* \"#utility.yul\":10028:10031   */\n      dup4\n        /* \"#utility.yul\":9969:10036   */\n      tag_202\n      jump\t// in\n    tag_326:\n        /* \"#utility.yul\":9962:10036   */\n      swap2\n      pop\n        /* \"#utility.yul\":10045:10138   */\n      tag_327\n        /* \"#utility.yul\":10134:10137   */\n      dup3\n        /* \"#utility.yul\":10045:10138   */\n      tag_212\n      jump\t// in\n    tag_327:\n        /* \"#utility.yul\":10163:10165   */\n      0x20\n        /* \"#utility.yul\":10158:10161   */\n      dup3\n        /* \"#utility.yul\":10154:10166   */\n      add\n        /* \"#utility.yul\":10147:10166   */\n      swap1\n      pop\n        /* \"#utility.yul\":9806:10172   */\n      swap2\n      swap1\n      pop\n      jump\t// out\n        /* \"#utility.yul\":10178:10597   */\n    tag_121:\n        /* \"#utility.yul\":10344:10348   */\n      0x00\n        /* \"#utility.yul\":10382:10384   */\n      0x20\n        /* \"#utility.yul\":10371:10380   */\n      dup3\n        /* \"#utility.yul\":10367:10385   */\n      add\n        /* \"#utility.yul\":10359:10385   */\n      swap1\n      pop\n        /* \"#utility.yul\":10431:10440   */\n      dup2\n        /* \"#utility.yul\":10425:10429   */\n      dup2\n        /* \"#utility.yul\":10421:10441   */\n      sub\n        /* \"#utility.yul\":10417:10418   */\n      0x00\n        /* \"#utility.yul\":10406:10415   */\n      dup4\n        /* \"#utility.yul\":10402:10419   */\n      add\n        /* \"#utility.yul\":10395:10442   */\n      mstore\n        /* \"#utility.yul\":10459:10590   */\n      tag_329\n        /* \"#utility.yul\":10585:10589   */\n      dup2\n        /* \"#utility.yul\":10459:10590   */\n      tag_213\n      jump\t// in\n    tag_329:\n        /* \"#utility.yul\":10451:10590   */\n      swap1\n      pop\n        /* \"#utility.yul\":10178:10597   */\n      swap2\n      swap1\n      pop\n      jump\t// out\n        /* \"#utility.yul\":10603:11045   */\n    tag_125:\n        /* \"#utility.yul\":10752:10756   */\n      0x00\n        /* \"#utility.yul\":10790:10792   */\n      0x60\n        /* \"#utility.yul\":10779:10788   */\n      dup3\n        /* \"#utility.yul\":10775:10793   */\n      add\n        /* \"#utility.yul\":10767:10793   */\n      swap1\n      pop\n        /* \"#utility.yul\":10803:10874   */\n      tag_331\n        /* \"#utility.yul\":10871:10872   */\n      0x00\n        /* \"#utility.yul\":10860:10869   */\n      dup4\n        /* \"#utility.yul\":10856:10873   */\n      add\n        /* \"#utility.yul\":10847:10853   */\n      dup7\n        /* \"#utility.yul\":10803:10874   */\n      tag_200\n      jump\t// in\n    tag_331:\n        /* \"#utility.yul\":10884:10956   */\n      tag_332\n        /* \"#utility.yul\":10952:10954   */\n      0x20\n        /* \"#utility.yul\":10941:10950   */\n      dup4\n        /* \"#utility.yul\":10937:10955   */\n      add\n        /* \"#utility.yul\":10928:10934   */\n      dup6\n        /* \"#utility.yul\":10884:10956   */\n      tag_200\n      jump\t// in\n    tag_332:\n        /* \"#utility.yul\":10966:11038   */\n      tag_333\n        /* \"#utility.yul\":11034:11036   */\n      0x40\n        /* \"#utility.yul\":11023:11032   */\n      dup4\n        /* \"#utility.yul\":11019:11037   */\n      add\n        /* \"#utility.yul\":11010:11016   */\n      dup5\n        /* \"#utility.yul\":10966:11038   */\n      tag_192\n      jump\t// in\n    tag_333:\n        /* \"#utility.yul\":10603:11045   */\n      swap5\n      swap4\n      pop\n      pop\n      pop\n      pop\n      jump\t// out\n        /* \"#utility.yul\":11051:11223   */\n    tag_214:\n        /* \"#utility.yul\":11191:11215   */\n      0x526577617264207472616e73666572206661696c656400000000000000000000\n        /* \"#utility.yul\":11187:11188   */\n      0x00\n        /* \"#utility.yul\":11179:11185   */\n      dup3\n        /* \"#utility.yul\":11175:11189   */\n      add\n        /* \"#utility.yul\":11168:11216   */\n      mstore\n        /* \"#utility.yul\":11051:11223   */\n      pop\n      jump\t// out\n        /* \"#utility.yul\":11229:11595   */\n    tag_215:\n        /* \"#utility.yul\":11371:11374   */\n      0x00\n        /* \"#utility.yul\":11392:11459   */\n      tag_336\n        /* \"#utility.yul\":11456:11458   */\n      0x16\n        /* \"#utility.yul\":11451:11454   */\n      dup4\n        /* \"#utility.yul\":11392:11459   */\n      tag_202\n      jump\t// in\n    tag_336:\n        /* \"#utility.yul\":11385:11459   */\n      swap2\n      pop\n        /* \"#utility.yul\":11468:11561   */\n      tag_337\n        /* \"#utility.yul\":11557:11560   */\n      dup3\n        /* \"#utility.yul\":11468:11561   */\n      tag_214\n      jump\t// in\n    tag_337:\n        /* \"#utility.yul\":11586:11588   */\n      0x20\n        /* \"#utility.yul\":11581:11584   */\n      dup3\n        /* \"#utility.yul\":11577:11589   */\n      add\n        /* \"#utility.yul\":11570:11589   */\n      swap1\n      pop\n        /* \"#utility.yul\":11229:11595   */\n      swap2\n      swap1\n      pop\n      jump\t// out\n        /* \"#utility.yul\":11601:12020   */\n    tag_147:\n        /* \"#utility.yul\":11767:11771   */\n      0x00\n        /* \"#utility.yul\":11805:11807   */\n      0x20\n        /* \"#utility.yul\":11794:11803   */\n      dup3\n        /* \"#utility.yul\":11790:11808   */\n      add\n        /* \"#utility.yul\":11782:11808   */\n      swap1\n      pop\n        /* \"#utility.yul\":11854:11863   */\n      dup2\n        /* \"#utility.yul\":11848:11852   */\n      dup2\n        /* \"#utility.yul\":11844:11864   */\n      sub\n        /* \"#utility.yul\":11840:11841   */\n      0x00\n        /* \"#utility.yul\":11829:11838   */\n      dup4\n        /* \"#utility.yul\":11825:11842   */\n      add\n        /* \"#utility.yul\":11818:11865   */\n      mstore\n        /* \"#utility.yul\":11882:12013   */\n      tag_339\n        /* \"#utility.yul\":12008:12012   */\n      dup2\n        /* \"#utility.yul\":11882:12013   */\n      tag_215\n      jump\t// in\n    tag_339:\n        /* \"#utility.yul\":11874:12013   */\n      swap1\n      pop\n        /* \"#utility.yul\":11601:12020   */\n      swap2\n      swap1\n      pop\n      jump\t// out\n        /* \"#utility.yul\":12026:12206   */\n    tag_216:\n        /* \"#utility.yul\":12074:12151   */\n      0x4e487b7100000000000000000000000000000000000000000000000000000000\n        /* \"#utility.yul\":12071:12072   */\n      0x00\n        /* \"#utility.yul\":12064:12152   */\n      mstore\n        /* \"#utility.yul\":12171:12175   */\n      0x12\n        /* \"#utility.yul\":12168:12169   */\n      0x04\n        /* \"#utility.yul\":12161:12176   */\n      mstore\n        /* \"#utility.yul\":12195:12199   */\n      0x24\n        /* \"#utility.yul\":12192:12193   */\n      0x00\n        /* \"#utility.yul\":12185:12200   */\n      revert\n        /* \"#utility.yul\":12212:12397   */\n    tag_152:\n        /* \"#utility.yul\":12252:12253   */\n      0x00\n        /* \"#utility.yul\":12269:12289   */\n      tag_342\n        /* \"#utility.yul\":12287:12288   */\n      dup3\n        /* \"#utility.yul\":12269:12289   */\n      tag_191\n      jump\t// in\n    tag_342:\n        /* \"#utility.yul\":12264:12289   */\n      swap2\n      pop\n        /* \"#utility.yul\":12303:12323   */\n      tag_343\n        /* \"#utility.yul\":12321:12322   */\n      dup4\n        /* \"#utility.yul\":12303:12323   */\n      tag_191\n      jump\t// in\n    tag_343:\n        /* \"#utility.yul\":12298:12323   */\n      swap3\n      pop\n        /* \"#utility.yul\":12342:12343   */\n      dup3\n        /* \"#utility.yul\":12332:12367   */\n      tag_344\n      jumpi\n        /* \"#utility.yul\":12347:12365   */\n      tag_345\n      tag_216\n      jump\t// in\n    tag_345:\n        /* \"#utility.yul\":12332:12367   */\n    tag_344:\n        /* \"#utility.yul\":12389:12390   */\n      dup3\n        /* \"#utility.yul\":12386:12387   */\n      dup3\n        /* \"#utility.yul\":12382:12391   */\n      div\n        /* \"#utility.yul\":12377:12391   */\n      swap1\n      pop\n        /* \"#utility.yul\":12212:12397   */\n      swap3\n      swap2\n      pop\n      pop\n      jump\t// out\n        /* \"#utility.yul\":12403:12584   */\n    tag_217:\n        /* \"#utility.yul\":12543:12576   */\n      0x5265656e7472616e637947756172643a207265656e7472616e742063616c6c00\n        /* \"#utility.yul\":12539:12540   */\n      0x00\n        /* \"#utility.yul\":12531:12537   */\n      dup3\n        /* \"#utility.yul\":12527:12541   */\n      add\n        /* \"#utility.yul\":12520:12577   */\n      mstore\n        /* \"#utility.yul\":12403:12584   */\n      pop\n      jump\t// out\n        /* \"#utility.yul\":12590:12956   */\n    tag_218:\n        /* \"#utility.yul\":12732:12735   */\n      0x00\n        /* \"#utility.yul\":12753:12820   */\n      tag_348\n        /* \"#utility.yul\":12817:12819   */\n      0x1f\n        /* \"#utility.yul\":12812:12815   */\n      dup4\n        /* \"#utility.yul\":12753:12820   */\n      tag_202\n      jump\t// in\n    tag_348:\n        /* \"#utility.yul\":12746:12820   */\n      swap2\n      pop\n        /* \"#utility.yul\":12829:12922   */\n      tag_349\n        /* \"#utility.yul\":12918:12921   */\n      dup3\n        /* \"#utility.yul\":12829:12922   */\n      tag_217\n      jump\t// in\n    tag_349:\n        /* \"#utility.yul\":12947:12949   */\n      0x20\n        /* \"#utility.yul\":12942:12945   */\n      dup3\n        /* \"#utility.yul\":12938:12950   */\n      add\n        /* \"#utility.yul\":12931:12950   */\n      swap1\n      pop\n        /* \"#utility.yul\":12590:12956   */\n      swap2\n      swap1\n      pop\n      jump\t// out\n        /* \"#utility.yul\":12962:13381   */\n    tag_170:\n        /* \"#utility.yul\":13128:13132   */\n      0x00\n        /* \"#utility.yul\":13166:13168   */\n      0x20\n        /* \"#utility.yul\":13155:13164   */\n      dup3\n        /* \"#utility.yul\":13151:13169   */\n      add\n        /* \"#utility.yul\":13143:13169   */\n      swap1\n      pop\n        /* \"#utility.yul\":13215:13224   */\n      dup2\n        /* \"#utility.yul\":13209:13213   */\n      dup2\n        /* \"#utility.yul\":13205:13225   */\n      sub\n        /* \"#utility.yul\":13201:13202   */\n      0x00\n        /* \"#utility.yul\":13190:13199   */\n      dup4\n        /* \"#utility.yul\":13186:13203   */\n      add\n        /* \"#utility.yul\":13179:13226   */\n      mstore\n        /* \"#utility.yul\":13243:13374   */\n      tag_351\n        /* \"#utility.yul\":13369:13373   */\n      dup2\n        /* \"#utility.yul\":13243:13374   */\n      tag_218\n      jump\t// in\n    tag_351:\n        /* \"#utility.yul\":13235:13374   */\n      swap1\n      pop\n        /* \"#utility.yul\":12962:13381   */\n      swap2\n      swap1\n      pop\n      jump\t// out\n\n    auxdata: 0xa26469706673582212203679cd24df9016be778c4f68134a152a379d741cc8e9a8cf715aee02761897d364736f6c634300081a0033\n}\n",
				"bytecode": {
					"linkReferences": {},
					"object": "60806040526103e8600455348015610015575f80fd5b506040516116ea3803806116ea83398181016040528101906100379190610265565b335f73ffffffffffffffffffffffffffffffffffffffff168173ffffffffffffffffffffffffffffffffffffffff16036100a8575f6040517f1e4fbdf700000000000000000000000000000000000000000000000000000000815260040161009f91906102b2565b60405180910390fd5b6100b78161014660201b60201c565b50600180819055508160025f6101000a81548173ffffffffffffffffffffffffffffffffffffffff021916908373ffffffffffffffffffffffffffffffffffffffff1602179055508060035f6101000a81548173ffffffffffffffffffffffffffffffffffffffff021916908373ffffffffffffffffffffffffffffffffffffffff16021790555050506102cb565b5f805f9054906101000a900473ffffffffffffffffffffffffffffffffffffffff169050815f806101000a81548173ffffffffffffffffffffffffffffffffffffffff021916908373ffffffffffffffffffffffffffffffffffffffff1602179055508173ffffffffffffffffffffffffffffffffffffffff168173ffffffffffffffffffffffffffffffffffffffff167f8be0079c531659141344cd1fd0a4f28419497f9722a3daafe3b4186f6b6457e060405160405180910390a35050565b5f80fd5b5f73ffffffffffffffffffffffffffffffffffffffff82169050919050565b5f6102348261020b565b9050919050565b6102448161022a565b811461024e575f80fd5b50565b5f8151905061025f8161023b565b92915050565b5f806040838503121561027b5761027a610207565b5b5f61028885828601610251565b925050602061029985828601610251565b9150509250929050565b6102ac8161022a565b82525050565b5f6020820190506102c55f8301846102a3565b92915050565b611412806102d85f395ff3fe608060405234801561000f575f80fd5b50600436106100f3575f3560e01c80638da5cb5b11610095578063c345315311610064578063c345315314610227578063f2fde38b1461025a578063f40f0f5214610276578063f7c618c1146102a6576100f3565b80638da5cb5b146101c75780639e447fc6146101e5578063a694fc3a14610201578063b88a802f1461021d576100f3565b8063715018a6116100d1578063715018a61461016357806372f702f31461016d5780637b0a47ee1461018b578063817b1cd2146101a9576100f3565b806316934fc4146100f757806321a40589146101295780632e17de7814610147575b5f80fd5b610111600480360381019061010c9190610daa565b6102c4565b60405161012093929190610ded565b60405180910390f35b6101316102ea565b60405161013e9190610e22565b60405180910390f35b610161600480360381019061015c9190610e65565b6102f1565b005b61016b610570565b005b610175610583565b6040516101829190610eeb565b60405180910390f35b6101936105a8565b6040516101a09190610e22565b60405180910390f35b6101b16105ae565b6040516101be9190610e22565b60405180910390f35b6101cf6105b4565b6040516101dc9190610f13565b60405180910390f35b6101ff60048036038101906101fa9190610e65565b6105db565b005b61021b60048036038101906102169190610e65565b6105ed565b005b61022561081e565b005b610241600480360381019061023c9190610daa565b61096f565b6040516102519493929190610f2c565b60405180910390f35b610274600480360381019061026f9190610daa565b6109fb565b005b610290600480360381019061028b9190610daa565b610a7f565b60405161029d9190610e22565b60405180910390f35b6102ae610b1c565b6040516102bb9190610eeb565b60405180910390f35b6005602052805f5260405f205f91509050805f0154908060010154908060020154905083565b6212750081565b6102f9610b41565b5f60055f3373ffffffffffffffffffffffffffffffffffffffff1673ffffffffffffffffffffffffffffffffffffffff1681526020019081526020015f2090505f670de0b6b3a76400008361034e9190610f9c565b905080825f01541015610396576040517f08c379a000000000000000000000000000000000000000000000000000000000815260040161038d90611037565b60405180910390fd5b6212750082600101546103a99190611055565b4210156103eb576040517f08c379a00000000000000000000000000000000000000000000000000000000081526004016103e2906110d2565b60405180910390fd5b6103f433610b90565b5080825f015f82825461040791906110f0565b925050819055508060065f82825461041f91906110f0565b925050819055505f825f01540361043a575f82600101819055505b60025f9054906101000a900473ffffffffffffffffffffffffffffffffffffffff1673ffffffffffffffffffffffffffffffffffffffff1663a9059cbb33836040518363ffffffff1660e01b8152600401610496929190611123565b6020604051808303815f875af11580156104b2573d5f803e3d5ffd5b505050506040513d601f19601f820116820180604052508101906104d6919061117f565b610515576040517f08c379a000000000000000000000000000000000000000000000000000000000815260040161050c906111f4565b60405180910390fd5b3373ffffffffffffffffffffffffffffffffffffffff167f0f5bb82176feb1b5e747e28471aa92156a04d9f3ab9f45f28e2d704232b93f758260405161055b9190610e22565b60405180910390a2505061056d610bf4565b50565b610578610bfd565b6105815f610c84565b565b60025f9054906101000a900473ffffffffffffffffffffffffffffffffffffffff1681565b60045481565b60065481565b5f805f9054906101000a900473ffffffffffffffffffffffffffffffffffffffff16905090565b6105e3610bfd565b8060048190555050565b6105f5610b41565b5f8111610637576040517f08c379a000000000000000000000000000000000000000000000000000000000815260040161062e9061125c565b60405180910390fd5b5f670de0b6b3a76400008261064c9190610f9c565b905061065733610b90565b5060025f9054906101000a900473ffffffffffffffffffffffffffffffffffffffff1673ffffffffffffffffffffffffffffffffffffffff166323b872dd3330846040518463ffffffff1660e01b81526004016106b69392919061127a565b6020604051808303815f875af11580156106d2573d5f803e3d5ffd5b505050506040513d601f19601f820116820180604052508101906106f6919061117f565b610735576040517f08c379a000000000000000000000000000000000000000000000000000000000815260040161072c906111f4565b60405180910390fd5b5f60055f3373ffffffffffffffffffffffffffffffffffffffff1673ffffffffffffffffffffffffffffffffffffffff1681526020019081526020015f2090505f815f015403610792574281600101819055504281600201819055505b81815f015f8282546107a49190611055565b925050819055508160065f8282546107bc9190611055565b925050819055503373ffffffffffffffffffffffffffffffffffffffff167f9e71bc8eea02a63969f509818f2dafb9254532904319f9dbda79b67bd34a5f3d836040516108099190610e22565b60405180910390a2505061081b610bf4565b50565b610826610b41565b5f61083033610b90565b90505f8111156109645760035f9054906101000a900473ffffffffffffffffffffffffffffffffffffffff1673ffffffffffffffffffffffffffffffffffffffff1663a9059cbb33836040518363ffffffff1660e01b8152600401610896929190611123565b6020604051808303815f875af11580156108b2573d5f803e3d5ffd5b505050506040513d601f19601f820116820180604052508101906108d6919061117f565b610915576040517f08c379a000000000000000000000000000000000000000000000000000000000815260040161090c906112f9565b60405180910390fd5b3373ffffffffffffffffffffffffffffffffffffffff167f106f923f993c2149d49b4255ff723acafa1f2d94393f561d3eda32ae348f72418260405161095b9190610e22565b60405180910390a25b5061096d610bf4565b565b5f805f805f60055f8773ffffffffffffffffffffffffffffffffffffffff1673ffffffffffffffffffffffffffffffffffffffff1681526020019081526020015f209050670de0b6b3a7640000815f01546109ca9190611344565b81600101546212750083600101546109e29190611055565b6109eb89610a7f565b9450945094509450509193509193565b610a03610bfd565b5f73ffffffffffffffffffffffffffffffffffffffff168173ffffffffffffffffffffffffffffffffffffffff1603610a73575f6040517f1e4fbdf7000000000000000000000000000000000000000000000000000000008152600401610a6a9190610f13565b60405180910390fd5b610a7c81610c84565b50565b5f8060055f8473ffffffffffffffffffffffffffffffffffffffff1673ffffffffffffffffffffffffffffffffffffffff1681526020019081526020015f2090505f815f015403610ad3575f915050610b17565b5f816002015442610ae491906110f0565b905064496cebb80081600454845f0154610afe9190610f9c565b610b089190610f9c565b610b129190611344565b925050505b919050565b60035f9054906101000a900473ffffffffffffffffffffffffffffffffffffffff1681565b600260015403610b86576040517f08c379a0000000000000000000000000000000000000000000000000000000008152600401610b7d906113be565b60405180910390fd5b6002600181905550565b5f80610b9b83610a7f565b90505f811115610beb574260055f8573ffffffffffffffffffffffffffffffffffffffff1673ffffffffffffffffffffffffffffffffffffffff1681526020019081526020015f20600201819055505b80915050919050565b60018081905550565b610c05610d45565b73ffffffffffffffffffffffffffffffffffffffff16610c236105b4565b73ffffffffffffffffffffffffffffffffffffffff1614610c8257610c46610d45565b6040517f118cdaa7000000000000000000000000000000000000000000000000000000008152600401610c799190610f13565b60405180910390fd5b565b5f805f9054906101000a900473ffffffffffffffffffffffffffffffffffffffff169050815f806101000a81548173ffffffffffffffffffffffffffffffffffffffff021916908373ffffffffffffffffffffffffffffffffffffffff1602179055508173ffffffffffffffffffffffffffffffffffffffff168173ffffffffffffffffffffffffffffffffffffffff167f8be0079c531659141344cd1fd0a4f28419497f9722a3daafe3b4186f6b6457e060405160405180910390a35050565b5f33905090565b5f80fd5b5f73ffffffffffffffffffffffffffffffffffffffff82169050919050565b5f610d7982610d50565b9050919050565b610d8981610d6f565b8114610d93575f80fd5b50565b5f81359050610da481610d80565b92915050565b5f60208284031215610dbf57610dbe610d4c565b5b5f610dcc84828501610d96565b91505092915050565b5f819050919050565b610de781610dd5565b82525050565b5f606082019050610e005f830186610dde565b610e0d6020830185610dde565b610e1a6040830184610dde565b949350505050565b5f602082019050610e355f830184610dde565b92915050565b610e4481610dd5565b8114610e4e575f80fd5b50565b5f81359050610e5f81610e3b565b92915050565b5f60208284031215610e7a57610e79610d4c565b5b5f610e8784828501610e51565b91505092915050565b5f819050919050565b5f610eb3610eae610ea984610d50565b610e90565b610d50565b9050919050565b5f610ec482610e99565b9050919050565b5f610ed582610eba565b9050919050565b610ee581610ecb565b82525050565b5f602082019050610efe5f830184610edc565b92915050565b610f0d81610d6f565b82525050565b5f602082019050610f265f830184610f04565b92915050565b5f608082019050610f3f5f830187610dde565b610f4c6020830186610dde565b610f596040830185610dde565b610f666060830184610dde565b95945050505050565b7f4e487b71000000000000000000000000000000000000000000000000000000005f52601160045260245ffd5b5f610fa682610dd5565b9150610fb183610dd5565b9250828202610fbf81610dd5565b91508282048414831517610fd657610fd5610f6f565b5b5092915050565b5f82825260208201905092915050565b7f496e73756666696369656e74207374616b656420616d6f756e740000000000005f82015250565b5f611021601a83610fdd565b915061102c82610fed565b602082019050919050565b5f6020820190508181035f83015261104e81611015565b9050919050565b5f61105f82610dd5565b915061106a83610dd5565b925082820190508082111561108257611081610f6f565b5b92915050565b7f4c6f636b20706572696f64206e6f7420656e64656400000000000000000000005f82015250565b5f6110bc601583610fdd565b91506110c782611088565b602082019050919050565b5f6020820190508181035f8301526110e9816110b0565b9050919050565b5f6110fa82610dd5565b915061110583610dd5565b925082820390508181111561111d5761111c610f6f565b5b92915050565b5f6040820190506111365f830185610f04565b6111436020830184610dde565b9392505050565b5f8115159050919050565b61115e8161114a565b8114611168575f80fd5b50565b5f8151905061117981611155565b92915050565b5f6020828403121561119457611193610d4c565b5b5f6111a18482850161116b565b91505092915050565b7f5472616e73666572206661696c656400000000000000000000000000000000005f82015250565b5f6111de600f83610fdd565b91506111e9826111aa565b602082019050919050565b5f6020820190508181035f83015261120b816111d2565b9050919050565b7f43616e6e6f74207374616b6520300000000000000000000000000000000000005f82015250565b5f611246600e83610fdd565b915061125182611212565b602082019050919050565b5f6020820190508181035f8301526112738161123a565b9050919050565b5f60608201905061128d5f830186610f04565b61129a6020830185610f04565b6112a76040830184610dde565b949350505050565b7f526577617264207472616e73666572206661696c6564000000000000000000005f82015250565b5f6112e3601683610fdd565b91506112ee826112af565b602082019050919050565b5f6020820190508181035f830152611310816112d7565b9050919050565b7f4e487b71000000000000000000000000000000000000000000000000000000005f52601260045260245ffd5b5f61134e82610dd5565b915061135983610dd5565b92508261136957611368611317565b5b828204905092915050565b7f5265656e7472616e637947756172643a207265656e7472616e742063616c6c005f82015250565b5f6113a8601f83610fdd565b91506113b382611374565b602082019050919050565b5f6020820190508181035f8301526113d58161139c565b905091905056fea26469706673582212203679cd24df9016be778c4f68134a152a379d741cc8e9a8cf715aee02761897d364736f6c634300081a0033",
					"opcodes": "PUSH1 0x80 PUSH1 0x40 MSTORE PUSH2 0x3E8 PUSH1 0x4 SSTORE CALLVALUE DUP1 ISZERO PUSH2 0x15 JUMPI PUSH0 DUP1 REVERT JUMPDEST POP PUSH1 0x40 MLOAD PUSH2 0x16EA CODESIZE SUB DUP1 PUSH2 0x16EA DUP4 CODECOPY DUP2 DUP2 ADD PUSH1 0x40 MSTORE DUP2 ADD SWAP1 PUSH2 0x37 SWAP2 SWAP1 PUSH2 0x265 JUMP JUMPDEST CALLER PUSH0 PUSH20 0xFFFFFFFFFFFFFFFFFFFFFFFFFFFFFFFFFFFFFFFF AND DUP2 PUSH20 0xFFFFFFFFFFFFFFFFFFFFFFFFFFFFFFFFFFFFFFFF AND SUB PUSH2 0xA8 JUMPI PUSH0 PUSH1 0x40 MLOAD PUSH32 0x1E4FBDF700000000000000000000000000000000000000000000000000000000 DUP2 MSTORE PUSH1 0x4 ADD PUSH2 0x9F SWAP2 SWAP1 PUSH2 0x2B2 JUMP JUMPDEST PUSH1 0x40 MLOAD DUP1 SWAP2 SUB SWAP1 REVERT JUMPDEST PUSH2 0xB7 DUP2 PUSH2 0x146 PUSH1 0x20 SHL PUSH1 0x20 SHR JUMP JUMPDEST POP PUSH1 0x1 DUP1 DUP2 SWAP1 SSTORE POP DUP2 PUSH1 0x2 PUSH0 PUSH2 0x100 EXP DUP2 SLOAD DUP2 PUSH20 0xFFFFFFFFFFFFFFFFFFFFFFFFFFFFFFFFFFFFFFFF MUL NOT AND SWAP1 DUP4 PUSH20 0xFFFFFFFFFFFFFFFFFFFFFFFFFFFFFFFFFFFFFFFF AND MUL OR SWAP1 SSTORE POP DUP1 PUSH1 0x3 PUSH0 PUSH2 0x100 EXP DUP2 SLOAD DUP2 PUSH20 0xFFFFFFFFFFFFFFFFFFFFFFFFFFFFFFFFFFFFFFFF MUL NOT AND SWAP1 DUP4 PUSH20 0xFFFFFFFFFFFFFFFFFFFFFFFFFFFFFFFFFFFFFFFF AND MUL OR SWAP1 SSTORE POP POP POP PUSH2 0x2CB JUMP JUMPDEST PUSH0 DUP1 PUSH0 SWAP1 SLOAD SWAP1 PUSH2 0x100 EXP SWAP1 DIV PUSH20 0xFFFFFFFFFFFFFFFFFFFFFFFFFFFFFFFFFFFFFFFF AND SWAP1 POP DUP2 PUSH0 DUP1 PUSH2 0x100 EXP DUP2 SLOAD DUP2 PUSH20 0xFFFFFFFFFFFFFFFFFFFFFFFFFFFFFFFFFFFFFFFF MUL NOT AND SWAP1 DUP4 PUSH20 0xFFFFFFFFFFFFFFFFFFFFFFFFFFFFFFFFFFFFFFFF AND MUL OR SWAP1 SSTORE POP DUP2 PUSH20 0xFFFFFFFFFFFFFFFFFFFFFFFFFFFFFFFFFFFFFFFF AND DUP2 PUSH20 0xFFFFFFFFFFFFFFFFFFFFFFFFFFFFFFFFFFFFFFFF AND PUSH32 0x8BE0079C531659141344CD1FD0A4F28419497F9722A3DAAFE3B4186F6B6457E0 PUSH1 0x40 MLOAD PUSH1 0x40 MLOAD DUP1 SWAP2 SUB SWAP1 LOG3 POP POP JUMP JUMPDEST PUSH0 DUP1 REVERT JUMPDEST PUSH0 PUSH20 0xFFFFFFFFFFFFFFFFFFFFFFFFFFFFFFFFFFFFFFFF DUP3 AND SWAP1 POP SWAP2 SWAP1 POP JUMP JUMPDEST PUSH0 PUSH2 0x234 DUP3 PUSH2 0x20B JUMP JUMPDEST SWAP1 POP SWAP2 SWAP1 POP JUMP JUMPDEST PUSH2 0x244 DUP2 PUSH2 0x22A JUMP JUMPDEST DUP2 EQ PUSH2 0x24E JUMPI PUSH0 DUP1 REVERT JUMPDEST POP JUMP JUMPDEST PUSH0 DUP2 MLOAD SWAP1 POP PUSH2 0x25F DUP2 PUSH2 0x23B JUMP JUMPDEST SWAP3 SWAP2 POP POP JUMP JUMPDEST PUSH0 DUP1 PUSH1 0x40 DUP4 DUP6 SUB SLT ISZERO PUSH2 0x27B JUMPI PUSH2 0x27A PUSH2 0x207 JUMP JUMPDEST JUMPDEST PUSH0 PUSH2 0x288 DUP6 DUP3 DUP7 ADD PUSH2 0x251 JUMP JUMPDEST SWAP3 POP POP PUSH1 0x20 PUSH2 0x299 DUP6 DUP3 DUP7 ADD PUSH2 0x251 JUMP JUMPDEST SWAP2 POP POP SWAP3 POP SWAP3 SWAP1 POP JUMP JUMPDEST PUSH2 0x2AC DUP2 PUSH2 0x22A JUMP JUMPDEST DUP3 MSTORE POP POP JUMP JUMPDEST PUSH0 PUSH1 0x20 DUP3 ADD SWAP1 POP PUSH2 0x2C5 PUSH0 DUP4 ADD DUP5 PUSH2 0x2A3 JUMP JUMPDEST SWAP3 SWAP2 POP POP JUMP JUMPDEST PUSH2 0x1412 DUP1 PUSH2 0x2D8 PUSH0 CODECOPY PUSH0 RETURN INVALID PUSH1 0x80 PUSH1 0x40 MSTORE CALLVALUE DUP1 ISZERO PUSH2 0xF JUMPI PUSH0 DUP1 REVERT JUMPDEST POP PUSH1 0x4 CALLDATASIZE LT PUSH2 0xF3 JUMPI PUSH0 CALLDATALOAD PUSH1 0xE0 SHR DUP1 PUSH4 0x8DA5CB5B GT PUSH2 0x95 JUMPI DUP1 PUSH4 0xC3453153 GT PUSH2 0x64 JUMPI DUP1 PUSH4 0xC3453153 EQ PUSH2 0x227 JUMPI DUP1 PUSH4 0xF2FDE38B EQ PUSH2 0x25A JUMPI DUP1 PUSH4 0xF40F0F52 EQ PUSH2 0x276 JUMPI DUP1 PUSH4 0xF7C618C1 EQ PUSH2 0x2A6 JUMPI PUSH2 0xF3 JUMP JUMPDEST DUP1 PUSH4 0x8DA5CB5B EQ PUSH2 0x1C7 JUMPI DUP1 PUSH4 0x9E447FC6 EQ PUSH2 0x1E5 JUMPI DUP1 PUSH4 0xA694FC3A EQ PUSH2 0x201 JUMPI DUP1 PUSH4 0xB88A802F EQ PUSH2 0x21D JUMPI PUSH2 0xF3 JUMP JUMPDEST DUP1 PUSH4 0x715018A6 GT PUSH2 0xD1 JUMPI DUP1 PUSH4 0x715018A6 EQ PUSH2 0x163 JUMPI DUP1 PUSH4 0x72F702F3 EQ PUSH2 0x16D JUMPI DUP1 PUSH4 0x7B0A47EE EQ PUSH2 0x18B JUMPI DUP1 PUSH4 0x817B1CD2 EQ PUSH2 0x1A9 JUMPI PUSH2 0xF3 JUMP JUMPDEST DUP1 PUSH4 0x16934FC4 EQ PUSH2 0xF7 JUMPI DUP1 PUSH4 0x21A40589 EQ PUSH2 0x129 JUMPI DUP1 PUSH4 0x2E17DE78 EQ PUSH2 0x147 JUMPI JUMPDEST PUSH0 DUP1 REVERT JUMPDEST PUSH2 0x111 PUSH1 0x4 DUP1 CALLDATASIZE SUB DUP2 ADD SWAP1 PUSH2 0x10C SWAP2 SWAP1 PUSH2 0xDAA JUMP JUMPDEST PUSH2 0x2C4 JUMP JUMPDEST PUSH1 0x40 MLOAD PUSH2 0x120 SWAP4 SWAP3 SWAP2 SWAP1 PUSH2 0xDED JUMP JUMPDEST PUSH1 0x40 MLOAD DUP1 SWAP2 SUB SWAP1 RETURN JUMPDEST PUSH2 0x131 PUSH2 0x2EA JUMP JUMPDEST PUSH1 0x40 MLOAD PUSH2 0x13E SWAP2 SWAP1 PUSH2 0xE22 JUMP JUMPDEST PUSH1 0x40 MLOAD DUP1 SWAP2 SUB SWAP1 RETURN JUMPDEST PUSH2 0x161 PUSH1 0x4 DUP1 CALLDATASIZE SUB DUP2 ADD SWAP1 PUSH2 0x15C SWAP2 SWAP1 PUSH2 0xE65 JUMP JUMPDEST PUSH2 0x2F1 JUMP JUMPDEST STOP JUMPDEST PUSH2 0x16B PUSH2 0x570 JUMP JUMPDEST STOP JUMPDEST PUSH2 0x175 PUSH2 0x583 JUMP JUMPDEST PUSH1 0x40 MLOAD PUSH2 0x182 SWAP2 SWAP1 PUSH2 0xEEB JUMP JUMPDEST PUSH1 0x40 MLOAD DUP1 SWAP2 SUB SWAP1 RETURN JUMPDEST PUSH2 0x193 PUSH2 0x5A8 JUMP JUMPDEST PUSH1 0x40 MLOAD PUSH2 0x1A0 SWAP2 SWAP1 PUSH2 0xE22 JUMP JUMPDEST PUSH1 0x40 MLOAD DUP1 SWAP2 SUB SWAP1 RETURN JUMPDEST PUSH2 0x1B1 PUSH2 0x5AE JUMP JUMPDEST PUSH1 0x40 MLOAD PUSH2 0x1BE SWAP2 SWAP1 PUSH2 0xE22 JUMP JUMPDEST PUSH1 0x40 MLOAD DUP1 SWAP2 SUB SWAP1 RETURN JUMPDEST PUSH2 0x1CF PUSH2 0x5B4 JUMP JUMPDEST PUSH1 0x40 MLOAD PUSH2 0x1DC SWAP2 SWAP1 PUSH2 0xF13 JUMP JUMPDEST PUSH1 0x40 MLOAD DUP1 SWAP2 SUB SWAP1 RETURN JUMPDEST PUSH2 0x1FF PUSH1 0x4 DUP1 CALLDATASIZE SUB DUP2 ADD SWAP1 PUSH2 0x1FA SWAP2 SWAP1 PUSH2 0xE65 JUMP JUMPDEST PUSH2 0x5DB JUMP JUMPDEST STOP JUMPDEST PUSH2 0x21B PUSH1 0x4 DUP1 CALLDATASIZE SUB DUP2 ADD SWAP1 PUSH2 0x216 SWAP2 SWAP1 PUSH2 0xE65 JUMP JUMPDEST PUSH2 0x5ED JUMP JUMPDEST STOP JUMPDEST PUSH2 0x225 PUSH2 0x81E JUMP JUMPDEST STOP JUMPDEST PUSH2 0x241 PUSH1 0x4 DUP1 CALLDATASIZE SUB DUP2 ADD SWAP1 PUSH2 0x23C SWAP2 SWAP1 PUSH2 0xDAA JUMP JUMPDEST PUSH2 0x96F JUMP JUMPDEST PUSH1 0x40 MLOAD PUSH2 0x251 SWAP5 SWAP4 SWAP3 SWAP2 SWAP1 PUSH2 0xF2C JUMP JUMPDEST PUSH1 0x40 MLOAD DUP1 SWAP2 SUB SWAP1 RETURN JUMPDEST PUSH2 0x274 PUSH1 0x4 DUP1 CALLDATASIZE SUB DUP2 ADD SWAP1 PUSH2 0x26F SWAP2 SWAP1 PUSH2 0xDAA JUMP JUMPDEST PUSH2 0x9FB JUMP JUMPDEST STOP JUMPDEST PUSH2 0x290 PUSH1 0x4 DUP1 CALLDATASIZE SUB DUP2 ADD SWAP1 PUSH2 0x28B SWAP2 SWAP1 PUSH2 0xDAA JUMP JUMPDEST PUSH2 0xA7F JUMP JUMPDEST PUSH1 0x40 MLOAD PUSH2 0x29D SWAP2 SWAP1 PUSH2 0xE22 JUMP JUMPDEST PUSH1 0x40 MLOAD DUP1 SWAP2 SUB SWAP1 RETURN JUMPDEST PUSH2 0x2AE PUSH2 0xB1C JUMP JUMPDEST PUSH1 0x40 MLOAD PUSH2 0x2BB SWAP2 SWAP1 PUSH2 0xEEB JUMP JUMPDEST PUSH1 0x40 MLOAD DUP1 SWAP2 SUB SWAP1 RETURN JUMPDEST PUSH1 0x5 PUSH1 0x20 MSTORE DUP1 PUSH0 MSTORE PUSH1 0x40 PUSH0 KECCAK256 PUSH0 SWAP2 POP SWAP1 POP DUP1 PUSH0 ADD SLOAD SWAP1 DUP1 PUSH1 0x1 ADD SLOAD SWAP1 DUP1 PUSH1 0x2 ADD SLOAD SWAP1 POP DUP4 JUMP JUMPDEST PUSH3 0x127500 DUP2 JUMP JUMPDEST PUSH2 0x2F9 PUSH2 0xB41 JUMP JUMPDEST PUSH0 PUSH1 0x5 PUSH0 CALLER PUSH20 0xFFFFFFFFFFFFFFFFFFFFFFFFFFFFFFFFFFFFFFFF AND PUSH20 0xFFFFFFFFFFFFFFFFFFFFFFFFFFFFFFFFFFFFFFFF AND DUP2 MSTORE PUSH1 0x20 ADD SWAP1 DUP2 MSTORE PUSH1 0x20 ADD PUSH0 KECCAK256 SWAP1 POP PUSH0 PUSH8 0xDE0B6B3A7640000 DUP4 PUSH2 0x34E SWAP2 SWAP1 PUSH2 0xF9C JUMP JUMPDEST SWAP1 POP DUP1 DUP3 PUSH0 ADD SLOAD LT ISZERO PUSH2 0x396 JUMPI PUSH1 0x40 MLOAD PUSH32 0x8C379A000000000000000000000000000000000000000000000000000000000 DUP2 MSTORE PUSH1 0x4 ADD PUSH2 0x38D SWAP1 PUSH2 0x1037 JUMP JUMPDEST PUSH1 0x40 MLOAD DUP1 SWAP2 SUB SWAP1 REVERT JUMPDEST PUSH3 0x127500 DUP3 PUSH1 0x1 ADD SLOAD PUSH2 0x3A9 SWAP2 SWAP1 PUSH2 0x1055 JUMP JUMPDEST TIMESTAMP LT ISZERO PUSH2 0x3EB JUMPI PUSH1 0x40 MLOAD PUSH32 0x8C379A000000000000000000000000000000000000000000000000000000000 DUP2 MSTORE PUSH1 0x4 ADD PUSH2 0x3E2 SWAP1 PUSH2 0x10D2 JUMP JUMPDEST PUSH1 0x40 MLOAD DUP1 SWAP2 SUB SWAP1 REVERT JUMPDEST PUSH2 0x3F4 CALLER PUSH2 0xB90 JUMP JUMPDEST POP DUP1 DUP3 PUSH0 ADD PUSH0 DUP3 DUP3 SLOAD PUSH2 0x407 SWAP2 SWAP1 PUSH2 0x10F0 JUMP JUMPDEST SWAP3 POP POP DUP2 SWAP1 SSTORE POP DUP1 PUSH1 0x6 PUSH0 DUP3 DUP3 SLOAD PUSH2 0x41F SWAP2 SWAP1 PUSH2 0x10F0 JUMP JUMPDEST SWAP3 POP POP DUP2 SWAP1 SSTORE POP PUSH0 DUP3 PUSH0 ADD SLOAD SUB PUSH2 0x43A JUMPI PUSH0 DUP3 PUSH1 0x1 ADD DUP2 SWAP1 SSTORE POP JUMPDEST PUSH1 0x2 PUSH0 SWAP1 SLOAD SWAP1 PUSH2 0x100 EXP SWAP1 DIV PUSH20 0xFFFFFFFFFFFFFFFFFFFFFFFFFFFFFFFFFFFFFFFF AND PUSH20 0xFFFFFFFFFFFFFFFFFFFFFFFFFFFFFFFFFFFFFFFF AND PUSH4 0xA9059CBB CALLER DUP4 PUSH1 0x40 MLOAD DUP4 PUSH4 0xFFFFFFFF AND PUSH1 0xE0 SHL DUP2 MSTORE PUSH1 0x4 ADD PUSH2 0x496 SWAP3 SWAP2 SWAP1 PUSH2 0x1123 JUMP JUMPDEST PUSH1 0x20 PUSH1 0x40 MLOAD DUP1 DUP4 SUB DUP2 PUSH0 DUP8 GAS CALL ISZERO DUP1 ISZERO PUSH2 0x4B2 JUMPI RETURNDATASIZE PUSH0 DUP1 RETURNDATACOPY RETURNDATASIZE PUSH0 REVERT JUMPDEST POP POP POP POP PUSH1 0x40 MLOAD RETURNDATASIZE PUSH1 0x1F NOT PUSH1 0x1F DUP3 ADD AND DUP3 ADD DUP1 PUSH1 0x40 MSTORE POP DUP2 ADD SWAP1 PUSH2 0x4D6 SWAP2 SWAP1 PUSH2 0x117F JUMP JUMPDEST PUSH2 0x515 JUMPI PUSH1 0x40 MLOAD PUSH32 0x8C379A000000000000000000000000000000000000000000000000000000000 DUP2 MSTORE PUSH1 0x4 ADD PUSH2 0x50C SWAP1 PUSH2 0x11F4 JUMP JUMPDEST PUSH1 0x40 MLOAD DUP1 SWAP2 SUB SWAP1 REVERT JUMPDEST CALLER PUSH20 0xFFFFFFFFFFFFFFFFFFFFFFFFFFFFFFFFFFFFFFFF AND PUSH32 0xF5BB82176FEB1B5E747E28471AA92156A04D9F3AB9F45F28E2D704232B93F75 DUP3 PUSH1 0x40 MLOAD PUSH2 0x55B SWAP2 SWAP1 PUSH2 0xE22 JUMP JUMPDEST PUSH1 0x40 MLOAD DUP1 SWAP2 SUB SWAP1 LOG2 POP POP PUSH2 0x56D PUSH2 0xBF4 JUMP JUMPDEST POP JUMP JUMPDEST PUSH2 0x578 PUSH2 0xBFD JUMP JUMPDEST PUSH2 0x581 PUSH0 PUSH2 0xC84 JUMP JUMPDEST JUMP JUMPDEST PUSH1 0x2 PUSH0 SWAP1 SLOAD SWAP1 PUSH2 0x100 EXP SWAP1 DIV PUSH20 0xFFFFFFFFFFFFFFFFFFFFFFFFFFFFFFFFFFFFFFFF AND DUP2 JUMP JUMPDEST PUSH1 0x4 SLOAD DUP2 JUMP JUMPDEST PUSH1 0x6 SLOAD DUP2 JUMP JUMPDEST PUSH0 DUP1 PUSH0 SWAP1 SLOAD SWAP1 PUSH2 0x100 EXP SWAP1 DIV PUSH20 0xFFFFFFFFFFFFFFFFFFFFFFFFFFFFFFFFFFFFFFFF AND SWAP1 POP SWAP1 JUMP JUMPDEST PUSH2 0x5E3 PUSH2 0xBFD JUMP JUMPDEST DUP1 PUSH1 0x4 DUP2 SWAP1 SSTORE POP POP JUMP JUMPDEST PUSH2 0x5F5 PUSH2 0xB41 JUMP JUMPDEST PUSH0 DUP2 GT PUSH2 0x637 JUMPI PUSH1 0x40 MLOAD PUSH32 0x8C379A000000000000000000000000000000000000000000000000000000000 DUP2 MSTORE PUSH1 0x4 ADD PUSH2 0x62E SWAP1 PUSH2 0x125C JUMP JUMPDEST PUSH1 0x40 MLOAD DUP1 SWAP2 SUB SWAP1 REVERT JUMPDEST PUSH0 PUSH8 0xDE0B6B3A7640000 DUP3 PUSH2 0x64C SWAP2 SWAP1 PUSH2 0xF9C JUMP JUMPDEST SWAP1 POP PUSH2 0x657 CALLER PUSH2 0xB90 JUMP JUMPDEST POP PUSH1 0x2 PUSH0 SWAP1 SLOAD SWAP1 PUSH2 0x100 EXP SWAP1 DIV PUSH20 0xFFFFFFFFFFFFFFFFFFFFFFFFFFFFFFFFFFFFFFFF AND PUSH20 0xFFFFFFFFFFFFFFFFFFFFFFFFFFFFFFFFFFFFFFFF AND PUSH4 0x23B872DD CALLER ADDRESS DUP5 PUSH1 0x40 MLOAD DUP5 PUSH4 0xFFFFFFFF AND PUSH1 0xE0 SHL DUP2 MSTORE PUSH1 0x4 ADD PUSH2 0x6B6 SWAP4 SWAP3 SWAP2 SWAP1 PUSH2 0x127A JUMP JUMPDEST PUSH1 0x20 PUSH1 0x40 MLOAD DUP1 DUP4 SUB DUP2 PUSH0 DUP8 GAS CALL ISZERO DUP1 ISZERO PUSH2 0x6D2 JUMPI RETURNDATASIZE PUSH0 DUP1 RETURNDATACOPY RETURNDATASIZE PUSH0 REVERT JUMPDEST POP POP POP POP PUSH1 0x40 MLOAD RETURNDATASIZE PUSH1 0x1F NOT PUSH1 0x1F DUP3 ADD AND DUP3 ADD DUP1 PUSH1 0x40 MSTORE POP DUP2 ADD SWAP1 PUSH2 0x6F6 SWAP2 SWAP1 PUSH2 0x117F JUMP JUMPDEST PUSH2 0x735 JUMPI PUSH1 0x40 MLOAD PUSH32 0x8C379A000000000000000000000000000000000000000000000000000000000 DUP2 MSTORE PUSH1 0x4 ADD PUSH2 0x72C SWAP1 PUSH2 0x11F4 JUMP JUMPDEST PUSH1 0x40 MLOAD DUP1 SWAP2 SUB SWAP1 REVERT JUMPDEST PUSH0 PUSH1 0x5 PUSH0 CALLER PUSH20 0xFFFFFFFFFFFFFFFFFFFFFFFFFFFFFFFFFFFFFFFF AND PUSH20 0xFFFFFFFFFFFFFFFFFFFFFFFFFFFFFFFFFFFFFFFF AND DUP2 MSTORE PUSH1 0x20 ADD SWAP1 DUP2 MSTORE PUSH1 0x20 ADD PUSH0 KECCAK256 SWAP1 POP PUSH0 DUP2 PUSH0 ADD SLOAD SUB PUSH2 0x792 JUMPI TIMESTAMP DUP2 PUSH1 0x1 ADD DUP2 SWAP1 SSTORE POP TIMESTAMP DUP2 PUSH1 0x2 ADD DUP2 SWAP1 SSTORE POP JUMPDEST DUP2 DUP2 PUSH0 ADD PUSH0 DUP3 DUP3 SLOAD PUSH2 0x7A4 SWAP2 SWAP1 PUSH2 0x1055 JUMP JUMPDEST SWAP3 POP POP DUP2 SWAP1 SSTORE POP DUP2 PUSH1 0x6 PUSH0 DUP3 DUP3 SLOAD PUSH2 0x7BC SWAP2 SWAP1 PUSH2 0x1055 JUMP JUMPDEST SWAP3 POP POP DUP2 SWAP1 SSTORE POP CALLER PUSH20 0xFFFFFFFFFFFFFFFFFFFFFFFFFFFFFFFFFFFFFFFF AND PUSH32 0x9E71BC8EEA02A63969F509818F2DAFB9254532904319F9DBDA79B67BD34A5F3D DUP4 PUSH1 0x40 MLOAD PUSH2 0x809 SWAP2 SWAP1 PUSH2 0xE22 JUMP JUMPDEST PUSH1 0x40 MLOAD DUP1 SWAP2 SUB SWAP1 LOG2 POP POP PUSH2 0x81B PUSH2 0xBF4 JUMP JUMPDEST POP JUMP JUMPDEST PUSH2 0x826 PUSH2 0xB41 JUMP JUMPDEST PUSH0 PUSH2 0x830 CALLER PUSH2 0xB90 JUMP JUMPDEST SWAP1 POP PUSH0 DUP2 GT ISZERO PUSH2 0x964 JUMPI PUSH1 0x3 PUSH0 SWAP1 SLOAD SWAP1 PUSH2 0x100 EXP SWAP1 DIV PUSH20 0xFFFFFFFFFFFFFFFFFFFFFFFFFFFFFFFFFFFFFFFF AND PUSH20 0xFFFFFFFFFFFFFFFFFFFFFFFFFFFFFFFFFFFFFFFF AND PUSH4 0xA9059CBB CALLER DUP4 PUSH1 0x40 MLOAD DUP4 PUSH4 0xFFFFFFFF AND PUSH1 0xE0 SHL DUP2 MSTORE PUSH1 0x4 ADD PUSH2 0x896 SWAP3 SWAP2 SWAP1 PUSH2 0x1123 JUMP JUMPDEST PUSH1 0x20 PUSH1 0x40 MLOAD DUP1 DUP4 SUB DUP2 PUSH0 DUP8 GAS CALL ISZERO DUP1 ISZERO PUSH2 0x8B2 JUMPI RETURNDATASIZE PUSH0 DUP1 RETURNDATACOPY RETURNDATASIZE PUSH0 REVERT JUMPDEST POP POP POP POP PUSH1 0x40 MLOAD RETURNDATASIZE PUSH1 0x1F NOT PUSH1 0x1F DUP3 ADD AND DUP3 ADD DUP1 PUSH1 0x40 MSTORE POP DUP2 ADD SWAP1 PUSH2 0x8D6 SWAP2 SWAP1 PUSH2 0x117F JUMP JUMPDEST PUSH2 0x915 JUMPI PUSH1 0x40 MLOAD PUSH32 0x8C379A000000000000000000000000000000000000000000000000000000000 DUP2 MSTORE PUSH1 0x4 ADD PUSH2 0x90C SWAP1 PUSH2 0x12F9 JUMP JUMPDEST PUSH1 0x40 MLOAD DUP1 SWAP2 SUB SWAP1 REVERT JUMPDEST CALLER PUSH20 0xFFFFFFFFFFFFFFFFFFFFFFFFFFFFFFFFFFFFFFFF AND PUSH32 0x106F923F993C2149D49B4255FF723ACAFA1F2D94393F561D3EDA32AE348F7241 DUP3 PUSH1 0x40 MLOAD PUSH2 0x95B SWAP2 SWAP1 PUSH2 0xE22 JUMP JUMPDEST PUSH1 0x40 MLOAD DUP1 SWAP2 SUB SWAP1 LOG2 JUMPDEST POP PUSH2 0x96D PUSH2 0xBF4 JUMP JUMPDEST JUMP JUMPDEST PUSH0 DUP1 PUSH0 DUP1 PUSH0 PUSH1 0x5 PUSH0 DUP8 PUSH20 0xFFFFFFFFFFFFFFFFFFFFFFFFFFFFFFFFFFFFFFFF AND PUSH20 0xFFFFFFFFFFFFFFFFFFFFFFFFFFFFFFFFFFFFFFFF AND DUP2 MSTORE PUSH1 0x20 ADD SWAP1 DUP2 MSTORE PUSH1 0x20 ADD PUSH0 KECCAK256 SWAP1 POP PUSH8 0xDE0B6B3A7640000 DUP2 PUSH0 ADD SLOAD PUSH2 0x9CA SWAP2 SWAP1 PUSH2 0x1344 JUMP JUMPDEST DUP2 PUSH1 0x1 ADD SLOAD PUSH3 0x127500 DUP4 PUSH1 0x1 ADD SLOAD PUSH2 0x9E2 SWAP2 SWAP1 PUSH2 0x1055 JUMP JUMPDEST PUSH2 0x9EB DUP10 PUSH2 0xA7F JUMP JUMPDEST SWAP5 POP SWAP5 POP SWAP5 POP SWAP5 POP POP SWAP2 SWAP4 POP SWAP2 SWAP4 JUMP JUMPDEST PUSH2 0xA03 PUSH2 0xBFD JUMP JUMPDEST PUSH0 PUSH20 0xFFFFFFFFFFFFFFFFFFFFFFFFFFFFFFFFFFFFFFFF AND DUP2 PUSH20 0xFFFFFFFFFFFFFFFFFFFFFFFFFFFFFFFFFFFFFFFF AND SUB PUSH2 0xA73 JUMPI PUSH0 PUSH1 0x40 MLOAD PUSH32 0x1E4FBDF700000000000000000000000000000000000000000000000000000000 DUP2 MSTORE PUSH1 0x4 ADD PUSH2 0xA6A SWAP2 SWAP1 PUSH2 0xF13 JUMP JUMPDEST PUSH1 0x40 MLOAD DUP1 SWAP2 SUB SWAP1 REVERT JUMPDEST PUSH2 0xA7C DUP2 PUSH2 0xC84 JUMP JUMPDEST POP JUMP JUMPDEST PUSH0 DUP1 PUSH1 0x5 PUSH0 DUP5 PUSH20 0xFFFFFFFFFFFFFFFFFFFFFFFFFFFFFFFFFFFFFFFF AND PUSH20 0xFFFFFFFFFFFFFFFFFFFFFFFFFFFFFFFFFFFFFFFF AND DUP2 MSTORE PUSH1 0x20 ADD SWAP1 DUP2 MSTORE PUSH1 0x20 ADD PUSH0 KECCAK256 SWAP1 POP PUSH0 DUP2 PUSH0 ADD SLOAD SUB PUSH2 0xAD3 JUMPI PUSH0 SWAP2 POP POP PUSH2 0xB17 JUMP JUMPDEST PUSH0 DUP2 PUSH1 0x2 ADD SLOAD TIMESTAMP PUSH2 0xAE4 SWAP2 SWAP1 PUSH2 0x10F0 JUMP JUMPDEST SWAP1 POP PUSH5 0x496CEBB800 DUP2 PUSH1 0x4 SLOAD DUP5 PUSH0 ADD SLOAD PUSH2 0xAFE SWAP2 SWAP1 PUSH2 0xF9C JUMP JUMPDEST PUSH2 0xB08 SWAP2 SWAP1 PUSH2 0xF9C JUMP JUMPDEST PUSH2 0xB12 SWAP2 SWAP1 PUSH2 0x1344 JUMP JUMPDEST SWAP3 POP POP POP JUMPDEST SWAP2 SWAP1 POP JUMP JUMPDEST PUSH1 0x3 PUSH0 SWAP1 SLOAD SWAP1 PUSH2 0x100 EXP SWAP1 DIV PUSH20 0xFFFFFFFFFFFFFFFFFFFFFFFFFFFFFFFFFFFFFFFF AND DUP2 JUMP JUMPDEST PUSH1 0x2 PUSH1 0x1 SLOAD SUB PUSH2 0xB86 JUMPI PUSH1 0x40 MLOAD PUSH32 0x8C379A000000000000000000000000000000000000000000000000000000000 DUP2 MSTORE PUSH1 0x4 ADD PUSH2 0xB7D SWAP1 PUSH2 0x13BE JUMP JUMPDEST PUSH1 0x40 MLOAD DUP1 SWAP2 SUB SWAP1 REVERT JUMPDEST PUSH1 0x2 PUSH1 0x1 DUP2 SWAP1 SSTORE POP JUMP JUMPDEST PUSH0 DUP1 PUSH2 0xB9B DUP4 PUSH2 0xA7F JUMP JUMPDEST SWAP1 POP PUSH0 DUP2 GT ISZERO PUSH2 0xBEB JUMPI TIMESTAMP PUSH1 0x5 PUSH0 DUP6 PUSH20 0xFFFFFFFFFFFFFFFFFFFFFFFFFFFFFFFFFFFFFFFF AND PUSH20 0xFFFFFFFFFFFFFFFFFFFFFFFFFFFFFFFFFFFFFFFF AND DUP2 MSTORE PUSH1 0x20 ADD SWAP1 DUP2 MSTORE PUSH1 0x20 ADD PUSH0 KECCAK256 PUSH1 0x2 ADD DUP2 SWAP1 SSTORE POP JUMPDEST DUP1 SWAP2 POP POP SWAP2 SWAP1 POP JUMP JUMPDEST PUSH1 0x1 DUP1 DUP2 SWAP1 SSTORE POP JUMP JUMPDEST PUSH2 0xC05 PUSH2 0xD45 JUMP JUMPDEST PUSH20 0xFFFFFFFFFFFFFFFFFFFFFFFFFFFFFFFFFFFFFFFF AND PUSH2 0xC23 PUSH2 0x5B4 JUMP JUMPDEST PUSH20 0xFFFFFFFFFFFFFFFFFFFFFFFFFFFFFFFFFFFFFFFF AND EQ PUSH2 0xC82 JUMPI PUSH2 0xC46 PUSH2 0xD45 JUMP JUMPDEST PUSH1 0x40 MLOAD PUSH32 0x118CDAA700000000000000000000000000000000000000000000000000000000 DUP2 MSTORE PUSH1 0x4 ADD PUSH2 0xC79 SWAP2 SWAP1 PUSH2 0xF13 JUMP JUMPDEST PUSH1 0x40 MLOAD DUP1 SWAP2 SUB SWAP1 REVERT JUMPDEST JUMP JUMPDEST PUSH0 DUP1 PUSH0 SWAP1 SLOAD SWAP1 PUSH2 0x100 EXP SWAP1 DIV PUSH20 0xFFFFFFFFFFFFFFFFFFFFFFFFFFFFFFFFFFFFFFFF AND SWAP1 POP DUP2 PUSH0 DUP1 PUSH2 0x100 EXP DUP2 SLOAD DUP2 PUSH20 0xFFFFFFFFFFFFFFFFFFFFFFFFFFFFFFFFFFFFFFFF MUL NOT AND SWAP1 DUP4 PUSH20 0xFFFFFFFFFFFFFFFFFFFFFFFFFFFFFFFFFFFFFFFF AND MUL OR SWAP1 SSTORE POP DUP2 PUSH20 0xFFFFFFFFFFFFFFFFFFFFFFFFFFFFFFFFFFFFFFFF AND DUP2 PUSH20 0xFFFFFFFFFFFFFFFFFFFFFFFFFFFFFFFFFFFFFFFF AND PUSH32 0x8BE0079C531659141344CD1FD0A4F28419497F9722A3DAAFE3B4186F6B6457E0 PUSH1 0x40 MLOAD PUSH1 0x40 MLOAD DUP1 SWAP2 SUB SWAP1 LOG3 POP POP JUMP JUMPDEST PUSH0 CALLER SWAP1 POP SWAP1 JUMP JUMPDEST PUSH0 DUP1 REVERT JUMPDEST PUSH0 PUSH20 0xFFFFFFFFFFFFFFFFFFFFFFFFFFFFFFFFFFFFFFFF DUP3 AND SWAP1 POP SWAP2 SWAP1 POP JUMP JUMPDEST PUSH0 PUSH2 0xD79 DUP3 PUSH2 0xD50 JUMP JUMPDEST SWAP1 POP SWAP2 SWAP1 POP JUMP JUMPDEST PUSH2 0xD89 DUP2 PUSH2 0xD6F JUMP JUMPDEST DUP2 EQ PUSH2 0xD93 JUMPI PUSH0 DUP1 REVERT JUMPDEST POP JUMP JUMPDEST PUSH0 DUP2 CALLDATALOAD SWAP1 POP PUSH2 0xDA4 DUP2 PUSH2 0xD80 JUMP JUMPDEST SWAP3 SWAP2 POP POP JUMP JUMPDEST PUSH0 PUSH1 0x20 DUP3 DUP5 SUB SLT ISZERO PUSH2 0xDBF JUMPI PUSH2 0xDBE PUSH2 0xD4C JUMP JUMPDEST JUMPDEST PUSH0 PUSH2 0xDCC DUP5 DUP3 DUP6 ADD PUSH2 0xD96 JUMP JUMPDEST SWAP2 POP POP SWAP3 SWAP2 POP POP JUMP JUMPDEST PUSH0 DUP2 SWAP1 POP SWAP2 SWAP1 POP JUMP JUMPDEST PUSH2 0xDE7 DUP2 PUSH2 0xDD5 JUMP JUMPDEST DUP3 MSTORE POP POP JUMP JUMPDEST PUSH0 PUSH1 0x60 DUP3 ADD SWAP1 POP PUSH2 0xE00 PUSH0 DUP4 ADD DUP7 PUSH2 0xDDE JUMP JUMPDEST PUSH2 0xE0D PUSH1 0x20 DUP4 ADD DUP6 PUSH2 0xDDE JUMP JUMPDEST PUSH2 0xE1A PUSH1 0x40 DUP4 ADD DUP5 PUSH2 0xDDE JUMP JUMPDEST SWAP5 SWAP4 POP POP POP POP JUMP JUMPDEST PUSH0 PUSH1 0x20 DUP3 ADD SWAP1 POP PUSH2 0xE35 PUSH0 DUP4 ADD DUP5 PUSH2 0xDDE JUMP JUMPDEST SWAP3 SWAP2 POP POP JUMP JUMPDEST PUSH2 0xE44 DUP2 PUSH2 0xDD5 JUMP JUMPDEST DUP2 EQ PUSH2 0xE4E JUMPI PUSH0 DUP1 REVERT JUMPDEST POP JUMP JUMPDEST PUSH0 DUP2 CALLDATALOAD SWAP1 POP PUSH2 0xE5F DUP2 PUSH2 0xE3B JUMP JUMPDEST SWAP3 SWAP2 POP POP JUMP JUMPDEST PUSH0 PUSH1 0x20 DUP3 DUP5 SUB SLT ISZERO PUSH2 0xE7A JUMPI PUSH2 0xE79 PUSH2 0xD4C JUMP JUMPDEST JUMPDEST PUSH0 PUSH2 0xE87 DUP5 DUP3 DUP6 ADD PUSH2 0xE51 JUMP JUMPDEST SWAP2 POP POP SWAP3 SWAP2 POP POP JUMP JUMPDEST PUSH0 DUP2 SWAP1 POP SWAP2 SWAP1 POP JUMP JUMPDEST PUSH0 PUSH2 0xEB3 PUSH2 0xEAE PUSH2 0xEA9 DUP5 PUSH2 0xD50 JUMP JUMPDEST PUSH2 0xE90 JUMP JUMPDEST PUSH2 0xD50 JUMP JUMPDEST SWAP1 POP SWAP2 SWAP1 POP JUMP JUMPDEST PUSH0 PUSH2 0xEC4 DUP3 PUSH2 0xE99 JUMP JUMPDEST SWAP1 POP SWAP2 SWAP1 POP JUMP JUMPDEST PUSH0 PUSH2 0xED5 DUP3 PUSH2 0xEBA JUMP JUMPDEST SWAP1 POP SWAP2 SWAP1 POP JUMP JUMPDEST PUSH2 0xEE5 DUP2 PUSH2 0xECB JUMP JUMPDEST DUP3 MSTORE POP POP JUMP JUMPDEST PUSH0 PUSH1 0x20 DUP3 ADD SWAP1 POP PUSH2 0xEFE PUSH0 DUP4 ADD DUP5 PUSH2 0xEDC JUMP JUMPDEST SWAP3 SWAP2 POP POP JUMP JUMPDEST PUSH2 0xF0D DUP2 PUSH2 0xD6F JUMP JUMPDEST DUP3 MSTORE POP POP JUMP JUMPDEST PUSH0 PUSH1 0x20 DUP3 ADD SWAP1 POP PUSH2 0xF26 PUSH0 DUP4 ADD DUP5 PUSH2 0xF04 JUMP JUMPDEST SWAP3 SWAP2 POP POP JUMP JUMPDEST PUSH0 PUSH1 0x80 DUP3 ADD SWAP1 POP PUSH2 0xF3F PUSH0 DUP4 ADD DUP8 PUSH2 0xDDE JUMP JUMPDEST PUSH2 0xF4C PUSH1 0x20 DUP4 ADD DUP7 PUSH2 0xDDE JUMP JUMPDEST PUSH2 0xF59 PUSH1 0x40 DUP4 ADD DUP6 PUSH2 0xDDE JUMP JUMPDEST PUSH2 0xF66 PUSH1 0x60 DUP4 ADD DUP5 PUSH2 0xDDE JUMP JUMPDEST SWAP6 SWAP5 POP POP POP POP POP JUMP JUMPDEST PUSH32 0x4E487B7100000000000000000000000000000000000000000000000000000000 PUSH0 MSTORE PUSH1 0x11 PUSH1 0x4 MSTORE PUSH1 0x24 PUSH0 REVERT JUMPDEST PUSH0 PUSH2 0xFA6 DUP3 PUSH2 0xDD5 JUMP JUMPDEST SWAP2 POP PUSH2 0xFB1 DUP4 PUSH2 0xDD5 JUMP JUMPDEST SWAP3 POP DUP3 DUP3 MUL PUSH2 0xFBF DUP2 PUSH2 0xDD5 JUMP JUMPDEST SWAP2 POP DUP3 DUP3 DIV DUP5 EQ DUP4 ISZERO OR PUSH2 0xFD6 JUMPI PUSH2 0xFD5 PUSH2 0xF6F JUMP JUMPDEST JUMPDEST POP SWAP3 SWAP2 POP POP JUMP JUMPDEST PUSH0 DUP3 DUP3 MSTORE PUSH1 0x20 DUP3 ADD SWAP1 POP SWAP3 SWAP2 POP POP JUMP JUMPDEST PUSH32 0x496E73756666696369656E74207374616B656420616D6F756E74000000000000 PUSH0 DUP3 ADD MSTORE POP JUMP JUMPDEST PUSH0 PUSH2 0x1021 PUSH1 0x1A DUP4 PUSH2 0xFDD JUMP JUMPDEST SWAP2 POP PUSH2 0x102C DUP3 PUSH2 0xFED JUMP JUMPDEST PUSH1 0x20 DUP3 ADD SWAP1 POP SWAP2 SWAP1 POP JUMP JUMPDEST PUSH0 PUSH1 0x20 DUP3 ADD SWAP1 POP DUP2 DUP2 SUB PUSH0 DUP4 ADD MSTORE PUSH2 0x104E DUP2 PUSH2 0x1015 JUMP JUMPDEST SWAP1 POP SWAP2 SWAP1 POP JUMP JUMPDEST PUSH0 PUSH2 0x105F DUP3 PUSH2 0xDD5 JUMP JUMPDEST SWAP2 POP PUSH2 0x106A DUP4 PUSH2 0xDD5 JUMP JUMPDEST SWAP3 POP DUP3 DUP3 ADD SWAP1 POP DUP1 DUP3 GT ISZERO PUSH2 0x1082 JUMPI PUSH2 0x1081 PUSH2 0xF6F JUMP JUMPDEST JUMPDEST SWAP3 SWAP2 POP POP JUMP JUMPDEST PUSH32 0x4C6F636B20706572696F64206E6F7420656E6465640000000000000000000000 PUSH0 DUP3 ADD MSTORE POP JUMP JUMPDEST PUSH0 PUSH2 0x10BC PUSH1 0x15 DUP4 PUSH2 0xFDD JUMP JUMPDEST SWAP2 POP PUSH2 0x10C7 DUP3 PUSH2 0x1088 JUMP JUMPDEST PUSH1 0x20 DUP3 ADD SWAP1 POP SWAP2 SWAP1 POP JUMP JUMPDEST PUSH0 PUSH1 0x20 DUP3 ADD SWAP1 POP DUP2 DUP2 SUB PUSH0 DUP4 ADD MSTORE PUSH2 0x10E9 DUP2 PUSH2 0x10B0 JUMP JUMPDEST SWAP1 POP SWAP2 SWAP1 POP JUMP JUMPDEST PUSH0 PUSH2 0x10FA DUP3 PUSH2 0xDD5 JUMP JUMPDEST SWAP2 POP PUSH2 0x1105 DUP4 PUSH2 0xDD5 JUMP JUMPDEST SWAP3 POP DUP3 DUP3 SUB SWAP1 POP DUP2 DUP2 GT ISZERO PUSH2 0x111D JUMPI PUSH2 0x111C PUSH2 0xF6F JUMP JUMPDEST JUMPDEST SWAP3 SWAP2 POP POP JUMP JUMPDEST PUSH0 PUSH1 0x40 DUP3 ADD SWAP1 POP PUSH2 0x1136 PUSH0 DUP4 ADD DUP6 PUSH2 0xF04 JUMP JUMPDEST PUSH2 0x1143 PUSH1 0x20 DUP4 ADD DUP5 PUSH2 0xDDE JUMP JUMPDEST SWAP4 SWAP3 POP POP POP JUMP JUMPDEST PUSH0 DUP2 ISZERO ISZERO SWAP1 POP SWAP2 SWAP1 POP JUMP JUMPDEST PUSH2 0x115E DUP2 PUSH2 0x114A JUMP JUMPDEST DUP2 EQ PUSH2 0x1168 JUMPI PUSH0 DUP1 REVERT JUMPDEST POP JUMP JUMPDEST PUSH0 DUP2 MLOAD SWAP1 POP PUSH2 0x1179 DUP2 PUSH2 0x1155 JUMP JUMPDEST SWAP3 SWAP2 POP POP JUMP JUMPDEST PUSH0 PUSH1 0x20 DUP3 DUP5 SUB SLT ISZERO PUSH2 0x1194 JUMPI PUSH2 0x1193 PUSH2 0xD4C JUMP JUMPDEST JUMPDEST PUSH0 PUSH2 0x11A1 DUP5 DUP3 DUP6 ADD PUSH2 0x116B JUMP JUMPDEST SWAP2 POP POP SWAP3 SWAP2 POP POP JUMP JUMPDEST PUSH32 0x5472616E73666572206661696C65640000000000000000000000000000000000 PUSH0 DUP3 ADD MSTORE POP JUMP JUMPDEST PUSH0 PUSH2 0x11DE PUSH1 0xF DUP4 PUSH2 0xFDD JUMP JUMPDEST SWAP2 POP PUSH2 0x11E9 DUP3 PUSH2 0x11AA JUMP JUMPDEST PUSH1 0x20 DUP3 ADD SWAP1 POP SWAP2 SWAP1 POP JUMP JUMPDEST PUSH0 PUSH1 0x20 DUP3 ADD SWAP1 POP DUP2 DUP2 SUB PUSH0 DUP4 ADD MSTORE PUSH2 0x120B DUP2 PUSH2 0x11D2 JUMP JUMPDEST SWAP1 POP SWAP2 SWAP1 POP JUMP JUMPDEST PUSH32 0x43616E6E6F74207374616B652030000000000000000000000000000000000000 PUSH0 DUP3 ADD MSTORE POP JUMP JUMPDEST PUSH0 PUSH2 0x1246 PUSH1 0xE DUP4 PUSH2 0xFDD JUMP JUMPDEST SWAP2 POP PUSH2 0x1251 DUP3 PUSH2 0x1212 JUMP JUMPDEST PUSH1 0x20 DUP3 ADD SWAP1 POP SWAP2 SWAP1 POP JUMP JUMPDEST PUSH0 PUSH1 0x20 DUP3 ADD SWAP1 POP DUP2 DUP2 SUB PUSH0 DUP4 ADD MSTORE PUSH2 0x1273 DUP2 PUSH2 0x123A JUMP JUMPDEST SWAP1 POP SWAP2 SWAP1 POP JUMP JUMPDEST PUSH0 PUSH1 0x60 DUP3 ADD SWAP1 POP PUSH2 0x128D PUSH0 DUP4 ADD DUP7 PUSH2 0xF04 JUMP JUMPDEST PUSH2 0x129A PUSH1 0x20 DUP4 ADD DUP6 PUSH2 0xF04 JUMP JUMPDEST PUSH2 0x12A7 PUSH1 0x40 DUP4 ADD DUP5 PUSH2 0xDDE JUMP JUMPDEST SWAP5 SWAP4 POP POP POP POP JUMP JUMPDEST PUSH32 0x526577617264207472616E73666572206661696C656400000000000000000000 PUSH0 DUP3 ADD MSTORE POP JUMP JUMPDEST PUSH0 PUSH2 0x12E3 PUSH1 0x16 DUP4 PUSH2 0xFDD JUMP JUMPDEST SWAP2 POP PUSH2 0x12EE DUP3 PUSH2 0x12AF JUMP JUMPDEST PUSH1 0x20 DUP3 ADD SWAP1 POP SWAP2 SWAP1 POP JUMP JUMPDEST PUSH0 PUSH1 0x20 DUP3 ADD SWAP1 POP DUP2 DUP2 SUB PUSH0 DUP4 ADD MSTORE PUSH2 0x1310 DUP2 PUSH2 0x12D7 JUMP JUMPDEST SWAP1 POP SWAP2 SWAP1 POP JUMP JUMPDEST PUSH32 0x4E487B7100000000000000000000000000000000000000000000000000000000 PUSH0 MSTORE PUSH1 0x12 PUSH1 0x4 MSTORE PUSH1 0x24 PUSH0 REVERT JUMPDEST PUSH0 PUSH2 0x134E DUP3 PUSH2 0xDD5 JUMP JUMPDEST SWAP2 POP PUSH2 0x1359 DUP4 PUSH2 0xDD5 JUMP JUMPDEST SWAP3 POP DUP3 PUSH2 0x1369 JUMPI PUSH2 0x1368 PUSH2 0x1317 JUMP JUMPDEST JUMPDEST DUP3 DUP3 DIV SWAP1 POP SWAP3 SWAP2 POP POP JUMP JUMPDEST PUSH32 0x5265656E7472616E637947756172643A207265656E7472616E742063616C6C00 PUSH0 DUP3 ADD MSTORE POP JUMP JUMPDEST PUSH0 PUSH2 0x13A8 PUSH1 0x1F DUP4 PUSH2 0xFDD JUMP JUMPDEST SWAP2 POP PUSH2 0x13B3 DUP3 PUSH2 0x1374 JUMP JUMPDEST PUSH1 0x20 DUP3 ADD SWAP1 POP SWAP2 SWAP1 POP JUMP JUMPDEST PUSH0 PUSH1 0x20 DUP3 ADD SWAP1 POP DUP2 DUP2 SUB PUSH0 DUP4 ADD MSTORE PUSH2 0x13D5 DUP2 PUSH2 0x139C JUMP JUMPDEST SWAP1 POP SWAP2 SWAP1 POP JUMP INVALID LOG2 PUSH5 0x6970667358 0x22 SLT KECCAK256 CALLDATASIZE PUSH26 0xCD24DF9016BE778C4F68134A152A379D741CC8E9A8CF715AEE02 PUSH23 0x1897D364736F6C634300081A0033000000000000000000 "
				},
				"gasEstimates": {
					"creation": {
						"codeDepositCost": "1027600",
						"executionCost": "infinite",
						"totalCost": "infinite"
					},
					"external": {
						"MINIMUM_LOCK_PERIOD()": "371",
						"claimReward()": "infinite",
						"getStakeInfo(address)": "infinite",
						"owner()": "2538",
						"pendingReward(address)": "infinite",
						"renounceOwnership()": "infinite",
						"rewardRate()": "2492",
						"rewardToken()": "infinite",
						"setRewardRate(uint256)": "infinite",
						"stake(uint256)": "infinite",
						"stakes(address)": "infinite",
						"stakingToken()": "infinite",
						"totalStaked()": "2514",
						"transferOwnership(address)": "infinite",
						"unstake(uint256)": "infinite"
					},
					"internal": {
						"_updateReward(address)": "infinite"
					}
				},
				"methodIdentifiers": {
					"MINIMUM_LOCK_PERIOD()": "21a40589",
					"claimReward()": "b88a802f",
					"getStakeInfo(address)": "c3453153",
					"owner()": "8da5cb5b",
					"pendingReward(address)": "f40f0f52",
					"renounceOwnership()": "715018a6",
					"rewardRate()": "7b0a47ee",
					"rewardToken()": "f7c618c1",
					"setRewardRate(uint256)": "9e447fc6",
					"stake(uint256)": "a694fc3a",
					"stakes(address)": "16934fc4",
					"stakingToken()": "72f702f3",
					"totalStaked()": "817b1cd2",
					"transferOwnership(address)": "f2fde38b",
					"unstake(uint256)": "2e17de78"
				}
			},
			"storageLayout": {
				"storage": [
					{
						"astId": 8,
						"contract": "contracts/staking edu/staking.sol:SimpleStaking",
						"label": "_owner",
						"offset": 0,
						"slot": "0",
						"type": "t_address"
					},
					{
						"astId": 158,
						"contract": "contracts/staking edu/staking.sol:SimpleStaking",
						"label": "_status",
						"offset": 0,
						"slot": "1",
						"type": "t_uint256"
					},
					{
						"astId": 332,
						"contract": "contracts/staking edu/staking.sol:SimpleStaking",
						"label": "stakingToken",
						"offset": 0,
						"slot": "2",
						"type": "t_contract(IERC20)290"
					},
					{
						"astId": 335,
						"contract": "contracts/staking edu/staking.sol:SimpleStaking",
						"label": "rewardToken",
						"offset": 0,
						"slot": "3",
						"type": "t_contract(IERC20)290"
					},
					{
						"astId": 341,
						"contract": "contracts/staking edu/staking.sol:SimpleStaking",
						"label": "rewardRate",
						"offset": 0,
						"slot": "4",
						"type": "t_uint256"
					},
					{
						"astId": 353,
						"contract": "contracts/staking edu/staking.sol:SimpleStaking",
						"label": "stakes",
						"offset": 0,
						"slot": "5",
						"type": "t_mapping(t_address,t_struct(StakeInfo)348_storage)"
					},
					{
						"astId": 355,
						"contract": "contracts/staking edu/staking.sol:SimpleStaking",
						"label": "totalStaked",
						"offset": 0,
						"slot": "6",
						"type": "t_uint256"
					}
				],
				"types": {
					"t_address": {
						"encoding": "inplace",
						"label": "address",
						"numberOfBytes": "20"
					},
					"t_contract(IERC20)290": {
						"encoding": "inplace",
						"label": "contract IERC20",
						"numberOfBytes": "20"
					},
					"t_mapping(t_address,t_struct(StakeInfo)348_storage)": {
						"encoding": "mapping",
						"key": "t_address",
						"label": "mapping(address => struct SimpleStaking.StakeInfo)",
						"numberOfBytes": "32",
						"value": "t_struct(StakeInfo)348_storage"
					},
					"t_struct(StakeInfo)348_storage": {
						"encoding": "inplace",
						"label": "struct SimpleStaking.StakeInfo",
						"members": [
							{
								"astId": 343,
								"contract": "contracts/staking edu/staking.sol:SimpleStaking",
								"label": "amount",
								"offset": 0,
								"slot": "0",
								"type": "t_uint256"
							},
							{
								"astId": 345,
								"contract": "contracts/staking edu/staking.sol:SimpleStaking",
								"label": "startTime",
								"offset": 0,
								"slot": "1",
								"type": "t_uint256"
							},
							{
								"astId": 347,
								"contract": "contracts/staking edu/staking.sol:SimpleStaking",
								"label": "lastClaimTime",
								"offset": 0,
								"slot": "2",
								"type": "t_uint256"
							}
						],
						"numberOfBytes": "96"
					},
					"t_uint256": {
						"encoding": "inplace",
						"label": "uint256",
						"numberOfBytes": "32"
					}
				}
			},
			"userdoc": {
				"kind": "user",
				"methods": {
					"claimReward()": {
						"notice": "Claim accumulated rewards"
					},
					"getStakeInfo(address)": {
						"notice": "Get staking information for a user"
					},
					"pendingReward(address)": {
						"notice": "Calculate pending rewards for a user"
					},
					"setRewardRate(uint256)": {
						"notice": "Set reward rate (owner only)"
					},
					"stake(uint256)": {
						"notice": "Stake tokens"
					},
					"unstake(uint256)": {
						"notice": "Unstake tokens after lock period"
					}
				},
				"version": 1
			}
		}
	}
}